:020000040800F2
:1000000000000220C9860008891400088B1400082B
:100010008D1400088F1400089114000800000000DF
:10002000000000000000000000000000A1450008E2
:10003000931400080000000041460008A54600088F
:100040001987000819870008198700081987000810
:100050001987000819870008198700081987000800
:1000600019870008198700081987000819870008F0
:1000700095140008198700081987000819870008D7
:10008000198700081987000819870008A5140008B7
:10009000B5140008C5140008D51400081987000815
:1000A00019870008E5140008198700081987000857
:1000B00019870008198700081987000819870008A0
:1000C0001987000819870008198700081987000890
:1000D000198700081987000819870008F514000817
:1000E0001987000819870008198700081987000870
:1000F0001987000819870008198700081987000860
:10010000198700081987000819870008198700084F
:10011000198700081987000819870008198700083F
:1001200019870008198700080515000819870008B5
:1001300019870008000000000000000015150008E5
:100140002515000835150008451500081987000811
:10015000198700085515000819870008651500085B
:1001600019870008198700081987000819870008EF
:10017000198700081987000800000000000000002F
:08018000198700081987000827
:1001900010B5054C237833B9044B13B10448AFF3C1
:1001A00000800123237010BDA0000020000000008B
:1001B000388A000808B5034B1BB103490348AFF365
:1001C000008008BD00000000A4000020388A00085C
:1001D00081F0004102E000BF83F0004330B54FEAF8
:1001E00041044FEA430594EA050F08BF90EA020F65
:1001F0001FBF54EA000C55EA020C7FEA645C7FEAF8
:10020000655C00F0E2804FEA5454D4EB5555B8BF1A
:100210006D420CDD2C4480EA020281EA030382EA8B
:10022000000083EA010180EA020281EA0303362D1D
:1002300088BF30BD11F0004F4FEA01314FF4801CF0
:100240004CEA113102D0404261EB410113F0004F02
:100250004FEA03334CEA133302D0524263EB4303B9
:1002600094EA050F00F0A780A4F10104D5F1200E57
:100270000DDB02FA0EFC22FA05F2801841F10001B2
:1002800003FA0EF2801843FA05F359410EE0A5F186
:1002900020050EF1200E012A03FA0EFC28BF4CF0B7
:1002A000020C43FA05F3C01851EBE37101F000456D
:1002B00007D54FF0000EDCF1000C7EEB00006EEB7A
:1002C0000101B1F5801F1BD3B1F5001F0CD3490804
:1002D0005FEA30004FEA3C0C04F101044FEA44525B
:1002E00012F5800F80F09A80BCF1004F08BF5FEAE2
:1002F000500C50F1000041EB045141EA050130BDC2
:100300005FEA4C0C404141EB0101013C28BFB1F5D3
:10031000801FE9D291F0000F04BF01460020B1FA1E
:1003200081F308BF2033A3F10B03B3F120020CDAF1
:100330000C3208DD02F1140CC2F10C0201FA0CF0CF
:1003400021FA02F10CE002F11402D8BFC2F1200C34
:1003500001FA02F120FA0CFCDCBF41EA0C019040EA
:10036000E41AA2BF01EB0451294330BD6FEA040433
:100370001F3C1CDA0C340EDC04F11404C4F120021E
:1003800020FA04F001FA02F340EA030021FA04F330
:1003900045EA030130BDC4F10C04C4F1200220FA87
:1003A00002F001FA04F340EA0300294630BD21FAC5
:1003B00004F0294630BD94F0000F83F4801306BF8B
:1003C00081F480110134013D4EE77FEA645C18BF7F
:1003D0007FEA655C29D094EA050F08BF90EA020F16
:1003E00005D054EA000C04BF1946104630BD91EA0E
:1003F000030F1EBF0021002030BD5FEA545C05D111
:100400004000494128BF41F0004130BD14F580044F
:100410003CBF01F5801130BD01F0004545F0FE41C3
:1004200041F470014FF0000030BD7FEA645C1ABFF8
:10043000194610467FEA655C1CBF0B46024650EA2F
:10044000013406BF52EA033591EA030F41F400215B
:1004500030BD00BF90F0000F04BF0021704730B5E1
:100460004FF4806404F132044FF000054FF00001B6
:1004700050E700BF90F0000F04BF0021704730B577
:100480004FF4806404F1320410F0004548BF40424C
:100490004FF000013EE700BF42004FEAE2014FEAA1
:1004A00031014FEA02701FBF12F07F4393F07F4F7C
:1004B00081F06051704732F07F4208BF704793F07F
:1004C0007F4F04BF41F40021704730B54FF4607492
:1004D00001F0004521F000411CE700BF50EA010295
:1004E00008BF704730B54FF000050AE050EA01023E
:1004F00008BF704730B511F0004502D5404261EBAE
:1005000041014FF4806404F132045FEA915C3FF4EE
:10051000D8AE4FF003025FEADC0C18BF03325FEA8B
:10052000DC0C18BF033202EBDC02C2F1200300FA3C
:1005300003FC20FA02F001FA03FE40EA0E0021FA61
:1005400002F11444BDE600BF70B54FF0FF0C4CF44F
:10055000E06C1CEA11541DBF1CEA135594EA0C0F01
:1005600095EA0C0F00F0DEF82C4481EA030621EA3C
:100570004C5123EA4C5350EA013518BF52EA033577
:1005800041F4801143F4801338D0A0FB02CE4FF029
:100590000005E1FB02E506F00042E0FB03E54FF059
:1005A0000006E1FB03569CF0000F18BF4EF0010E51
:1005B000A4F1FF04B6F5007F64F5407404D25FEA4D
:1005C0004E0E6D4146EB060642EAC62141EA555100
:1005D0004FEAC52040EA5E504FEACE2EB4F1FD0C42
:1005E00088BFBCF5E06F1ED8BEF1004F08BF5FEAC0
:1005F000500E50F1000041EB045170BD06F0004672
:1006000046EA010140EA020081EA0301B4EB5C041E
:10061000C2BFD4EB0C0541EA045170BD41F4801116
:100620004FF0000E013C00F3AB8014F1360FDEBF3B
:10063000002001F0004170BDC4F10004203C35DA17
:100640000C341BDC04F11404C4F1200500FA05F39A
:1006500020FA04F001FA05F240EA020001F000423B
:1006600021F0004110EBD37021FA04F642EB0601B1
:100670005EEA430E08BF20EAD37070BDC4F10C04DB
:10068000C4F1200500FA04F320FA05F001FA04F29F
:1006900040EA020001F0004110EBD37041F100018B
:1006A0005EEA430E08BF20EAD37070BDC4F1200596
:1006B00000FA05F24EEA020E20FA04F301FA05F2FE
:1006C00043EA020321FA04F001F0004121FA04F2A6
:1006D00020EA020000EBD3705EEA430E08BF20EA76
:1006E000D37070BD94F0000F0FD101F000464000B0
:1006F00041EB010111F4801F08BF013CF7D041EA32
:10070000060195F0000F18BF704703F00046520035
:1007100043EB030313F4801F08BF013DF7D043EA06
:100720000603704794EA0C0F0CEA135518BF95EABC
:100730000C0F0CD050EA410618BF52EA4306D1D143
:1007400081EA030101F000414FF0000070BD50EA62
:10075000410606BF1046194652EA430619D094EAEC
:100760000C0F02D150EA013613D195EA0C0F05D1D6
:1007700052EA03361CBF104619460AD181EA03012A
:1007800001F0004141F0FE4141F470014FF00000E2
:1007900070BD41F0FE4141F4780170BD70B54FF07D
:1007A000FF0C4CF4E06C1CEA11541DBF1CEA1355FD
:1007B00094EA0C0F95EA0C0F00F0A7F8A4EB0504DF
:1007C00081EA030E52EA03354FEA013100F08880D6
:1007D0004FEA03334FF0805545EA131343EA12639F
:1007E0004FEA022245EA111545EA10654FEA002654
:1007F0000EF000419D4208BF964244F1FD0404F50D
:10080000407402D25B084FEA3202B61A65EB030568
:100810005B084FEA32024FF480104FF4002CB6EB25
:10082000020E75EB030E22BFB61A754640EA0C00A5
:100830005B084FEA3202B6EB020E75EB030E22BFE5
:10084000B61A754640EA5C005B084FEA3202B6EB26
:10085000020E75EB030E22BFB61A754640EA9C00E5
:100860005B084FEA3202B6EB020E75EB030E22BFB5
:10087000B61A754640EADC0055EA060E18D04FEA73
:10088000051545EA16754FEA06164FEAC30343EA13
:1008900052734FEAC2025FEA1C1CC0D111F4801FE0
:1008A0000BD141EA00014FF000004FF0004CB6E7D9
:1008B00011F4801F04BF01430020B4F1FD0C88BF78
:1008C000BCF5E06F3FF6AFAEB5EB030C04BFB6EB83
:1008D000020C5FEA500C50F1000041EB045170BD76
:1008E0000EF0004E4EEA113114EB5C04C2BFD4EBA3
:1008F0000C0541EA045170BD41F480114FF0000E27
:10090000013C90E645EA060E8DE60CEA135594EAA2
:100910000C0F08BF95EA0C0F3FF43BAF94EA0C0FA5
:100920000AD150EA01347FF434AF95EA0C0F7FF41A
:1009300025AF104619462CE795EA0C0F06D152EA6E
:1009400003353FF4FDAE1046194622E750EA410652
:1009500018BF52EA43067FF4C5AE50EA41047FF463
:100960000DAF52EA43057FF4EBAE12E780F0004092
:1009700002E000BF81F0004142001FBF5FEA410377
:1009800092EA030F7FEA226C7FEA236C6AD04FEA77
:100990001262D2EB1363C1BFD218414048404140BC
:1009A000B8BF5B42192B88BF704710F0004F40F46E
:1009B000000020F07F4018BF404211F0004F41F48A
:1009C000000121F07F4118BF494292EA030F3FD056
:1009D000A2F1010241FA03FC10EB0C00C3F1200369
:1009E00001FA03F100F0004302D5494260EB4000F8
:1009F000B0F5000F13D3B0F1807F06D340084FEA63
:100A0000310102F10102FE2A51D2B1F1004F40EB57
:100A1000C25008BF20F0010040EA030070474900BF
:100A200040EB0000013A28BFB0F5000FEDD2B0FA5C
:100A300080FCACF1080CB2EB0C0200FA0CF0AABF7F
:100A400000EBC25052421843BCBFD040184370471D
:100A500092F0000F81F4000106BF80F40000013223
:100A6000013BB5E74FEA41037FEA226C18BF7FEAFA
:100A7000236C21D092EA030F04D092F0000F08BF3C
:100A80000846704790EA010F1CBF0020704712F023
:100A90007F4F04D1400028BF40F00040704712F162
:100AA00000723CBF00F50000704700F0004343F0C7
:100AB000FE4040F4000070477FEA226216BF0846FD
:100AC0007FEA23630146420206BF5FEA412390EAC0
:100AD000010F40F4800070474FF0000304E000BFB6
:100AE00010F0004348BF40425FEA000C08BF704767
:100AF00043F0964301464FF000001CE050EA01022B
:100B000008BF70474FF000030AE000BF50EA01023F
:100B100008BF704711F0004302D5404261EB41012C
:100B20005FEA010C02BF84460146002043F0B64351
:100B300008BFA3F18053A3F50003BCFA8CF2083A76
:100B4000A3EBC25310DB01FA02FC634400FA02FC7F
:100B5000C2F12002BCF1004F20FA02F243EB020086
:100B600008BF20F00100704702F1200201FA02FCE8
:100B7000C2F1200250EA4C0021FA02F243EB0200DB
:100B800008BF20EADC70704753B94AB9002908BF92
:100B900000281CBF4FF0FF314FF0FF3000F094B938
:100BA000ADF1080C6DE904CE00F026F8DDF804E0A4
:100BB000DDE9022304B07047D0B5FFF76DFC0C4BA4
:100BC000002206460F46FFF7BFFC00F07FF90446FF
:100BD000FFF740FC074B0022FFF7B6FC02460B462E
:100BE00030463946FFF7F8FA00F070F92146D0BDDB
:100BF0000000F03D0000F0412DE9F047089D04465B
:100C00008E46002B4DD18A42944669D9B2FA82F2BF
:100C100052B101FA02F3C2F1200120FA01F10CFAFB
:100C200002FC41EA030E94404FEA1C48210CBEFB33
:100C3000F8F61FFA8CF708FB16E341EA034306FBBC
:100C400007F199420AD91CEB030306F1FF3080F04B
:100C50001F81994240F21C81023E63445B1AA4B298
:100C6000B3FBF8F008FB103344EA034400FB07F73A
:100C7000A7420AD91CEB040400F1FF3380F00A817B
:100C8000A74240F207816444023840EA0640E41B70
:100C900000261DB1D4400023C5E900433146BDE81C
:100CA000F0878B4209D9002D00F0EF800026C5E9BE
:100CB000000130463146BDE8F087B3FA83F6002ED6
:100CC0004AD18B4202D3824200F2F980841A61EB4E
:100CD000030301209E46002DE0D0C5E9004EDDE76C
:100CE00002B9FFDEB2FA82F2002A40F09280A1EB54
:100CF0000C014FEA1C471FFA8CFE0126200CB1FBA9
:100D0000F7F307FB131140EA01410EFB03F08842A1
:100D100008D91CEB010103F1FF3802D2884200F22E
:100D2000CB804346091AA4B2B1FBF7F007FB1011C0
:100D300044EA01440EFB00FEA64508D91CEB04045E
:100D400000F1FF3102D2A64500F2BB800846A4EBB9
:100D50000E0440EA03409CE7C6F12007B34022FAA4
:100D600007FC4CEA030C20FA07F401FA06F31C43D3
:100D7000F9404FEA1C4900FA06F3B1FBF9F8200CE0
:100D80001FFA8CFE09FB181140EA014108FB0EF026
:100D9000884202FA06F20BD91CEB010108F1FF3A76
:100DA00080F08880884240F28580A8F10208614482
:100DB000091AA4B2B1FBF9F009FB101144EA014190
:100DC00000FB0EFE8E4508D91CEB010100F1FF343B
:100DD0006CD28E456AD90238614440EA0840A0FBD3
:100DE0000294A1EB0E01A142C846A64656D353D0A9
:100DF0005DB1B3EB080261EB0E0101FA07F722FACD
:100E000006F3F1401F43C5E9007100263146BDE8F5
:100E1000F087C2F12003D8400CFA02FC21FA03F358
:100E2000914001434FEA1C471FFA8CFEB3FBF7F0D9
:100E300007FB10360B0C43EA064300FB0EF69E42FE
:100E400004FA02F408D91CEB030300F1FF382FD297
:100E50009E422DD9023863449B1B89B2B3FBF7F63F
:100E600007FB163341EA034106FB0EF38B4208D918
:100E70001CEB010106F1FF3816D28B4214D9023E59
:100E80006144C91A46EA004638E72E46284605E777
:100E90000646E3E61846F8E64B45A9D2B9EB020848
:100EA00064EB0C0E0138A3E74646EAE7204694E7D8
:100EB0004046D1E7D0467BE7023B614432E730460B
:100EC00009E76444023842E7704700BF4A0011D284
:100ED00012F5001211D20DD56FF47873B3EB625294
:100EE0000ED44FEAC12343F0004343EA505323FAA0
:100EF00002F070474FF00000704750EA013002D115
:100F00004FF0FF3070474FF00000704784B0002270
:100F10000092154B196B41F080011963196B01F0B8
:100F20008001009100990192196B41F0020119634F
:100F3000196B01F00201019101990292196B41F0C4
:100F400004011963196B01F00401029102990392E3
:100F50001A6B42F001021A631B6B03F00103039347
:100F6000039B04B0704700BF0038024008B5012061
:100F700003F09AF9FBE70000034B0360034B0B609F
:100F800080231360704700BFCC020020CC000020FB
:100F900010B59CB0244C0DF1540CA646BEE80F00D1
:100FA000ACE80F009EE807008CE80700002115A8B8
:100FB00003F045F91D4B18600DF1380C04F11C0EBF
:100FC000BEE80F00ACE80F009EE807008CE80700C1
:100FD00000210EA803F033F9154B18600DF11C0C1D
:100FE00004F1380EBEE80F00ACE80F009EE80700E1
:100FF0008CE80700002107A803F021F90D4B1860C9
:10100000EE4604F1540CBCE80F00AEE80F009CE87B
:1010100007008EE807000021684603F010F9064B30
:1010200018601CB010BD00BF508A0008C00000202E
:10103000BC000020C8000020C400002008B50E48F5
:101040000E4B03600323436000238360C3604FF4AF
:10105000102202614FF400124261037601224276AF
:101060008276C3760377437700F0F2FA00B908BDC1
:1010700005F072FEFBE700BF24030020006400407F
:1010800008B50E480E4B03600323436000238360C2
:10109000C3604FF4102202614FF4001242610376E4
:1010A000012242768276C3760377437700F0D0FA46
:1010B00000B908BD05F050FEFBE700BF4C0300205F
:1010C0000068004010B58AB000230593069307938B
:1010D000089309930368564A934204D0554A9342B1
:1010E0004ED00AB010BD544A136801331360012B6F
:1010F00039D000240194514B1A6B42F002021A635A
:101100001B6B03F002030193019B4FF440730593A3
:1011100002230693032308930923099305A948484A
:1011200001F0F8F922460521132001F0A1FD13205A
:1011300001F0D6FD22460521142001F099FD14206E
:1011400001F0CEFD22460521152001F091FD15206C
:1011500001F0C6FD22460521162001F089FD16206A
:1011600001F0BEFDBDE700230093344B1A6C42F042
:1011700000721A641B6C03F000730093009BB8E7C5
:10118000002302932D4B1A6C42F080621A641B6C90
:1011900003F080630293029B274A136801331360B4
:1011A000012B38D000240494244B1A6B42F0020225
:1011B0001A631B6B03F002030493049B60230593E3
:1011C00002230693032308930923099305A91C48C6
:1011D00001F0A0F9224605213F2001F049FD3F2002
:1011E00001F07EFD22460521402001F041FD402016
:1011F00001F076FD22460521412001F039FD412014
:1012000001F06EFD22460521422001F031FD422011
:1012100001F066FD65E700230393084B1A6C42F06A
:1012200000721A641B6C03F000730393039BB9E70D
:1012300000640040006800402003002000380240A5
:101240000004024010B582B000240094164B1A6BC3
:1012500042F400121A631A6B02F400120092009A10
:1012600001941A6B42F480021A631B6B03F480032F
:101270000193019B224605210C2001F0F9FC0C2072
:1012800001F02EFD224605213A2001F0F1FC3A2022
:1012900001F026FD22460521452001F0E9FC45200C
:1012A00001F01EFD02B010BD0038024008B50A482A
:1012B0000A4B03604FF4E133436000238360C36053
:1012C00003610C2242618361C36101F0CDFF00B96B
:1012D00008BD05F041FDFBE7DC04002000140140DF
:1012E00030B58BB00446002305930693079308930B
:1012F00009930368594A934204D0594A93424AD009
:101300000BB030BD00250195564B1A6C42F480227B
:101310001A641A6C02F480220192019A02951A6BE7
:1013200042F002021A631B6B03F002030293029B5A
:101330004FF4406305930223069303230893072386
:10134000099305A9484801F0E5F84848484B03606F
:101350004FF0006343608560C5604FF480630361B4
:10136000456185614FF48073C3614FF4403303627C
:10137000456201F083FA58B93C4BE3639C63002259
:101380000521272001F074FC272001F0A9FCB7E714
:1013900005F0E2FCF0E700250395324B5A6C42F071
:1013A00020025A645A6C02F020020392039A0495B8
:1013B0001A6B42F004021A631B6B03F004030493DC
:1013C000049BC02305930223069303230893082359
:1013D000099305A9274801F09DF82748274B03608A
:1013E0004FF0206343608560C5604FF48063036104
:1013F000456185614FF48073C3614FF4003303622C
:10140000456201F03BFA18BB1B4BE3639C631C482D
:101410001C4B03604FF02063436040238360002334
:10142000C3604FF48062026143618361C361036200
:10143000436201F023FA70B9114BA3639C6300224D
:101440000521472001F014FC472001F049FC57E733
:1014500005F082FCD8E705F07FFCEDE7004800408E
:1014600000140140003802400004024074030020D0
:101470002860024000080240D4030020406402407B
:1014800034040020A0640240FEE7FEE7FEE7FEE72A
:10149000FEE7704708B5024801F0E8FA08BD00BF52
:1014A0007403002008B5024800F0B5FB08BD00BF7A
:1014B0002403002008B5024800F0ADFB08BD00BFC2
:1014C0002403002008B5024800F0A5FB08BD00BFBA
:1014D0002403002008B5024800F09DFB08BD00BFB2
:1014E0002403002008B5024801F07EFC08BD00BFBF
:1014F0002405002008B5024801F0EEFF08BD00BF3A
:101500009404002008B5024801F0B0FA08BD00BFFD
:10151000D403002008B5024800F07DFB08BD00BFE1
:101520004C03002008B5024800F075FB08BD00BF61
:101530004C03002008B5024800F06DFB08BD00BF59
:101540004C03002008B5024800F065FB08BD00BF51
:101550004C03002008B5024801F088FA08BD00BF1E
:101560003404002008B5024801F0B6FF08BD00BFF2
:10157000DC04002000B583B0002200920D4B596CB2
:1015800041F480415964596C01F480410091009903
:101590000192196C41F0805119641B6C03F0805367
:1015A0000193019B0F216FF0010001F061FB03B07B
:1015B0005DF804FB0038024030B589B005460024D0
:1015C00001941E4B5A6C42F001025A645B6C03F0AA
:1015D00001030193019B02A903A800F07DFF00F025
:1015E0006BFF43001648A0FB03239B0C013B1548EF
:1015F000154A026040F2E732C260436004618460D1
:10160000846101F00DFD044610B1204609B030BDE3
:101610000C4801F0A1FB04460028F6D1192001F086
:101620005FFB0F2D01D90124EFE700222946192085
:1016300001F01EFB054B1D60E7E700BF00380240CC
:1016400083DE1B432405002000000140040000202D
:10165000002800F0A18038B5044690F82030D3B1BE
:101660002268136843F00103136001F06DFB054627
:1016700023685A6812F0010F10D101F065FB401B7E
:101680000A28F5D9636A43F400336362052384F8BA
:101690002030012038BDFFF715FDE1E71A6822F080
:1016A00002021A6001F050FB054623685A6812F0E6
:1016B000020F0DD001F048FB401B0A28F5D9636AE0
:1016C00043F400336362052384F820300120E1E70E
:1016D000227E012A3DD01A6822F080021A60637EC1
:1016E000012B3BD02268136823F040031360A37ED4
:1016F000012B39D02268136823F020031360E37EA6
:10170000012B37D02268136843F010031360237F46
:10171000012B35D02268136823F008031360637F20
:10172000012B33D02268136823F004031360A368ED
:10173000E268134322691343626913436268013A02
:1017400021681343CB6100206062012384F82030BC
:10175000A0E71A6842F080021A60C0E722681368A6
:1017600043F040031360C2E72268136843F020038C
:101770001360C4E72268136823F010031360C6E700
:101780002268136843F008031360C8E722681368EF
:1017900043F004031360CAE70120704790F820303B
:1017A000013BDBB2012B05D9436A43F4802343623A
:1017B0000120704730B5464BD3F8002242F00102B9
:1017C000C3F80022D3F8002222F47C52C3F800228E
:1017D000D3F80022486A42EA0022C3F800224A698C
:1017E00002F01F02012000FA02F2D3F81C026FEA95
:1017F000020C20EA0200C3F81C02CB69C3B9344BC7
:10180000D3F80C020CEA0000C3F80C028C8848697B
:10181000CD6844EA0544483043F830408C68088875
:1018200040EA04404C6904F1480E03EBCE035860D3
:10183000CB69012B1ED08B69002B33D12448D0F803
:1018400004320CEA0303C0F804320B698BBB204856
:10185000D0F814320CEA0303C0F814320B6A012BDF
:101860002ED01B4AD2F8003223F00103C2F8003216
:10187000002030BD164BD3F80C021043C3F80C0205
:101880008C8848690D6844EA0544483043F8304084
:1018900088894C698D6840EA0540483403EBC403ED
:1018A0005860C8E70A48D0F804321343C0F804323D
:1018B000CBE70748D0F814321343C0F81432CDE711
:1018C0000349D1F81C321A43C1F81C22C9E700BFF2
:1018D0000064004070B5044690F82050EDB2012D30
:1018E00006D0436A43F4002343620125284670BDB5
:1018F000022380F820300268136823F0010313608C
:1019000001F022FA064623685B6813F0010F0CD041
:1019100001F01AFA831B0A2BF5D9636A43F40033EA
:101920006362052384F82030E0E700256562DDE787
:1019300030B590F820C00468A4680CF1FF3C5FFA51
:101940008CFCBCF1010F62D814F0E05F59D0C4F3F5
:10195000016C012404FA0CF41C608B68002B3DD14F
:101960000D68CB68046843EA45550CF118031B0168
:10197000E55003680C690CF1180E03EB0E135C6064
:101980000B7D012B35D0D17993791B0443EA016398
:10199000517943EA012314790168234301EB0C11C7
:1019A000C1F88C31D17893781B0443EA01635178F4
:1019B00043EA0123117802680B4302EB0C12C2F8D0
:1019C000883102680CF1180C4FEA0C1C52F80C30EC
:1019D00043F0010342F80C3000201DE04C6843EA5C
:1019E000C403CC6823430CF11804240105682B516F
:1019F000BFE7036803EB0E13596841F48071596027
:101A0000C1E7436A43F400134362012004E0436AE0
:101A100043F480234362012030BD90F82030013B25
:101A2000DBB2012B01D9002070470368986810F0E1
:101A3000806000D001209A6812F0006F00D0013061
:101A40009B6813F0805FEFD00130704790F820C0A2
:101A50000CF1FF3C5FFA8CFCBCF1010F00F2A58099
:101A600030B451B90468E46814F0030F10D1436A2C
:101A700043F40013436201207EE00468246914F0FB
:101A8000030F05D1436A43F400134362012073E05E
:101A9000056801F11B0424012C5904F0040494602E
:101AA000002C6BD1056801F11B0424012C59640D35
:101AB0001460046801F11B0C4FEA0C1C54F80C4034
:101AC00004F00204D4600468A444DCF8045015F067
:101AD000080F5BD008241461056801F11B0C05EBAD
:101AE0000C156D68C5F307259561046804EB0C14AB
:101AF0006468240C5461026802EB0112D2F8B82128
:101B00001A70026802EB0112D2F8B821C2F3072260
:101B10005A70026802EB0112D2F8B821C2F30742F0
:101B20009A70026802EB0112D2F8B821120EDA7034
:101B3000026802EB0112D2F8BC211A71026802EBB2
:101B40000112D2F8BC21C2F307225A71026802EBDB
:101B50000112D2F8BC21C2F307429A71026802EB6B
:101B60000112D2F8BC21120EDA71C1B90268D36831
:101B700043F02003D360002030BC7047056801F1BA
:101B80001B0424012C59E408546092E701F11B0561
:101B900004EB0514646804F00F0414619CE7026808
:101BA000136943F020031361E5E7436A43F480239C
:101BB00043620120704790F82030013BDBB2012BDB
:101BC00001D90020704721B90368D86800F00300EC
:101BD00070470368186900F00300704790F82030E0
:101BE000013BDBB2012B05D9436A43F480234362F6
:101BF0000120704702685369194351610020704702
:101C0000704770477047704770477047704770471C
:101C10007047704770472DE9F84F054603685C69C7
:101C2000D3F804809F68D3F80CB0D3F810A0D3F891
:101C3000189014F001063BD017F0010616D00122CF
:101C40009A6017F0020F08D117F0040F0CD117F0AB
:101C5000080606D04FF4805608E0FFF7D1FF0026B3
:101C600004E0FFF7D0FF01E04FF4006617F4807F37
:101C70000DD02B684FF480729A6017F4007F40F00B
:101C8000868017F4806F00F0868046F4005617F4C3
:101C9000803F0DD02B684FF480329A6017F4003FDC
:101CA00040F0838017F4802F00F0838046F40046D4
:101CB00014F0080F07D01BF0100F04D046F4007684
:101CC0002B681022DA6014F0040F02D01BF0080F0A
:101CD00079D114F0020F04D02B68DB6813F0030FE6
:101CE00078D114F0400F07D01AF0100F04D046F44A
:101CF00080662B6810221A6114F0200F02D01AF0AF
:101D0000080F6BD114F0100F04D02B681B6913F06F
:101D1000030F6AD114F4003F02D018F0100F68D1FD
:101D200014F4803F02D018F0080F69D114F4004F6A
:101D30007AD018F0040F74D014F4807F04D019F016
:101D4000010F01D046F0010614F4007F04D019F011
:101D5000020F01D046F0020614F4806F04D019F08F
:101D6000040F01D046F0040614F4006F59D019F0A6
:101D7000700956D0B9F1400F65D058D8B9F1200F8D
:101D80005ED0B9F1300F42D146F0200644E028463B
:101D9000FFF737FF7BE717F4006F02D046F4804669
:101DA00075E72846FFF730FF71E72846FFF72AFF5F
:101DB0007EE717F4002F02D046F4803678E72846F5
:101DC000FFF723FF74E72B680822DA602846FFF745
:101DD0001DFF7EE7284603F07DFE82E72B68082280
:101DE0001A612846FFF713FF8CE7284603F077FEB9
:101DF00090E72B6810225A602846FFF709FF8FE70B
:101E00002B6808225A602846FFF703FF8EE7B9F1D6
:101E1000100F01D146F008062A68936923F0700379
:101E200093612B6804225A609EB9BDE8F88FB9F11E
:101E3000500F0BD0B9F1600FEED146F48076EBE78E
:101E400046F01006E8E746F04006E5E746F0800673
:101E5000E2E76B6A1E436E622846FFF7DBFEE4E7AB
:101E6000002800F0E08170B582B00446036813F0EA
:101E7000010F3BD09F4B9B6803F00C03042B2CD02D
:101E80009C4B9B6803F00C03082B21D06368B3F5CF
:101E9000803F4FD0B3F5A02F52D0964B1A6822F452
:101EA00080321A601A6822F480221A606368002B5C
:101EB00050D000F049FF05468E4B1B6813F4003FDD
:101EC00014D100F041FF401B6428F5D90320B1E193
:101ED000884B5B6813F4800FD8D0864B1B6813F4D3
:101EE000003F03D06368002B00F09F81236813F04C
:101EF000020F54D07F4B9B6813F00C0F3ED07D4BEC
:101F00009B6803F00C03082B33D0E368002B68D0E8
:101F1000794B01221A6000F017FF0546754B1B68CC
:101F200013F0020F54D100F00FFF401B0228F5D927
:101F300003207FE16F4A136843F480331360B5E7F1
:101F40006C4B1A6842F480221A601A6842F480329C
:101F50001A60ABE700F0F8FE0546664B1B6813F409
:101F6000003FC3D000F0F0FE401B6428F5D90320E9
:101F700060E1604B5B6813F4800FC6D15D4B1B685A
:101F800013F0020F03D0E368012B40F05081594A4F
:101F9000136823F0F803216943EAC103136023683F
:101FA00013F0080F42D063696BB3534B0122C3F89F
:101FB000802E00F0C9FE05464E4B5B6F13F0020FFA
:101FC00034D100F0C1FE401B0228F5D9032031E1D5
:101FD000484A136823F0F803216943EAC1031360F8
:101FE000DDE7454B00221A6000F0AEFE0546414B8E
:101FF0001B6813F0020FD2D000F0A6FE401B02288F
:10200000F5D9032016E13C4B0022C3F8802E00F0E6
:102010009BFE0546374B5B6F13F0020F06D000F0B6
:1020200093FE401B0228F5D9032003E1236813F037
:10203000040F77D02F4B1B6C13F0805F33D100233C
:1020400001932C4B1A6C42F080521A641B6C03F003
:1020500080530193019B0125284B1B6813F4807F5B
:1020600023D0A368012B34D0052B38D0214B1A6F15
:1020700022F001021A671A6F22F004021A67A3689D
:10208000002B3DD000F060FE06461A4B1B6F13F08C
:10209000020F46D100F058FE801B41F2883398426F
:1020A000F3D90320C6E00025D6E7144A136843F4A9
:1020B0008073136000F048FE0646104B1B6813F453
:1020C000807FCED100F040FE801B0228F5D903208E
:1020D000B0E0084A136F43F001031367CFE7054BE5
:1020E0001A6F42F004021A671A6F42F001021A676F
:1020F000C5E700BF003802400000474200700040C2
:1021000000F022FE0646524B1B6F13F0020F08D060
:1021100000F01AFE801B41F288339842F3D9032065
:1021200088E0EDB9A369002B00F08380484A9268EB
:1021300002F00C02082A51D0022B17D0454B002286
:102140001A6600F001FE0446414B1B6813F0007F45
:1021500042D000F0F9FD001B0228F5D9032069E008
:102160003B4A136C23F080531364DBE7394B0022A6
:102170001A6600F0E9FD0546354B1B6813F0007F39
:1021800006D000F0E1FD401B0228F5D9032051E004
:10219000E369226A1343626A43EA8213A26A52081D
:1021A000013A43EA0243E26A43EA0263284A53607F
:1021B000284B01221A6600F0C7FD0446244B1B6819
:1021C00013F0007F06D100F0BFFD001B0228F5D9F7
:1021D00003202FE000202DE000202BE0012B2BD04E
:1021E0001B4B5B6803F48001E269914226D103F046
:1021F0003F02216A8A4223D1616A47F6C0721A40BF
:10220000B2EB811F1ED103F44031A26A5208013A99
:10221000B1EB024F18D103F07063E26AB3EB026FC7
:1022200014D1002006E001207047012002E00120C7
:1022300000E0002002B070BD0120FBE70120F9E7BB
:102240000120F7E70120F5E70120F3E70120F1E79E
:10225000003802400000474208B5314B9B6803F04C
:102260000C03042B57D0082B57D12D4B5A6802F082
:102270003F025B6813F4800F2AD0294B5968C1F3E1
:10228000881C4FEA4C11B1EB0C006EEB0E0E4FEABE
:102290008E1343EA90638101091A63EB0E03DB009E
:1022A00043EA5173C90011EB0C0C43F100035902CE
:1022B00000234FEA4C2041EADC51FEF765FC184B45
:1022C0005B68C3F3014301335B00B0FBF3F025E02F
:1022D000134B5968C1F3881C4FEA4C11B1EB0C0049
:1022E0006EEB0E0E4FEA8E1343EA90638101091ADA
:1022F00063EB0E03DB0043EA5173C90011EB0C0CD6
:1023000043F10003990200234FEA8C2041EA9C51DB
:10231000FEF73AFCD3E7034800E0034808BD00BFDE
:102320000038024000127A000024F400002800F077
:102330009B8070B50D4604464F4B1B6803F00703A6
:102340008B4208D2CBB24C4A1370136803F00703D8
:102350008B4240F08B80236813F0020F17D013F0EC
:10236000040F04D0454A936843F4E0539360236814
:1023700013F0080F04D0414A936843F4604393601C
:102380003E4A936823F0F003A1680B4393602368EF
:1023900013F0010F32D06368012B21D09A1E012A5D
:1023A00025D9364A126812F0020F61D033498A6883
:1023B00022F0030213438B6000F0C6FC06462F4B4D
:1023C0009B6803F00C036268B3EB820F16D000F039
:1023D000BBFC801B41F288339842F0D9032042E0D5
:1023E000264A126812F4003FE0D101203BE0234A64
:1023F000126812F0007FD9D1012034E01E4B1B6817
:1024000003F00703AB4207D9EAB21B4B1A701B68F3
:1024100003F00703AB422DD1236813F0040F06D05D
:10242000164A936823F4E053E1680B4393602368F2
:1024300013F0080F07D0114A936823F46043216911
:1024400043EAC1039360FFF707FF0C4B9B68C3F39C
:1024500003130B4AD35CD8400A4B18600A4B186828
:10246000FFF7AAF8002070BD012070470120FAE7AD
:102470000120F8E70120F6E7003C02400038024066
:10248000D48C00080800002004000020014B1868CC
:10249000704700BF0800002008B5FFF7F7FF044BA6
:1024A0009B68C3F38223034AD35CD84008BD00BFB6
:1024B00000380240E48C000808B5FFF7E7FF044B42
:1024C0009B68C3F34233034AD35CD84008BD00BFC6
:1024D00000380240E48C00080F2303600B4B9A681D
:1024E00002F0030242609A6802F0F00282609A6889
:1024F00002F4E052C2609B68DB0803F4E05303611E
:10250000034B1B6803F007030B6070470038024061
:10251000003C024000230F2B00F2E48070B582B033
:1025200060E085685E000324B44025EA0405CC68B9
:10253000B4402C438460456825EA02054C68C4F326
:1025400000129A402A4342605AE0DC08083450F8EE
:10255000246003F0070295000F22AA4026EA020E2B
:102560000A69AA4042EA0E0240F824205CE00722F1
:1025700000E0002202FA0EF22A4302345A4D45F8D6
:1025800024205A4A94686FEA0C0224EA0C054E682B
:1025900016F4801F01D04CEA0405544CA560E46891
:1025A00002EA04054E6816F4001F01D04CEA040547
:1025B0004E4CE560646802EA04054E6816F4003F7C
:1025C00001D04CEA0405494C6560246822404D68FE
:1025D00015F4803F01D04CEA0402444C22600133E0
:1025E0000F2B7DD801229A400C6804EA020C32EAD3
:1025F0000404F4D14C6804F00304013C012C90D98C
:102600004A6802F00302032A09D0C4685D0003226D
:10261000AA4024EA02048A68AA402243C2604A68A7
:1026200002F00302022A90D004684FEA430E03220C
:1026300002FA0EF224EA02044A6802F0030202FAE5
:102640000EF2224302604A6812F4403FC7D00022D3
:102650000192274A546C44F480445464526C02F44E
:1026600080420192019A9C08A51C1F4A52F82550ED
:1026700003F003024FEA820E0F2202FA0EF225EA5D
:1026800002051C4A90423FF474AF02F5806290420A
:102690001AD002F58062904218D002F58062904212
:1026A00016D002F58062904214D002F5806290420A
:1026B00012D002F58062904210D002F58062904202
:1026C0003FF455AF082255E7012253E7022251E7B4
:1026D00003224FE704224DE705224BE7062249E794
:1026E00002B070BD704700BF00380140003C01409F
:1026F000003802400000024010B404686360836840
:10270000402B06D0036899600368DA605DF8044BDB
:10271000704703689A600368D960F7E738B50446E4
:10272000806880280DD094F83400012823D001203F
:1027300084F8340094F83500C0B2012806D0022095
:1027400038BD4FF4807363650120F9E7022084F8F7
:1027500035002568286840F48020286020680361DF
:10276000049B2046FFF7C8FF2268136843F001036B
:1027700013600020E4E70220E2E730B405682C682B
:1027800024F480242C60046863608368402B05D0A7
:10279000036899600368DA6030BC704703689A6028
:1027A0000368D960F8E7000010B40368D9B21039A3
:1027B0000C4AA2FB014212090B4CA25CC2655F29C4
:1027C00009D923F47F7323F0030304338365806DF9
:1027D0005DF8044B704723F47F7323F00303836594
:1027E000F5E700BFABAAAAAACC8C0008836A82696D
:1027F00092B9012B0AD0022B02D00BB100207047F6
:10280000C36A13F0807F28D100207047C36AB3F1F8
:10281000C07F24D000207047B2F5005F09D0022BA2
:1028200025D9032B25D1C36A13F0807F23D1002043
:102830007047032B03D8DFE803F01404140A0020C8
:102840007047C36A13F0807F0DD100207047C36AC0
:10285000B3F1C07F09D000207047012070470120EC
:102860007047012070470120704701207047012008
:1028700070470020704701207047000070B5044683
:1028800000F062FA002C5BD00546022384F8353054
:10289000002384F834302268136823F001031360A6
:1028A00023681A6812F0010F0AD000F04DFA431B9A
:1028B000052BF5D920236365032084F8350070BD0E
:1028C0001A68204810406168A2680A43E1680A4318
:1028D00021690A4361690A43A1690A43E1690A431C
:1028E000216A0A430243616A04291ED01A602668DD
:1028F000756925F00705636A1D43042B07D1A36A98
:102900001D43E36A1BB12046FFF770FF90B9756164
:102910002046FFF749FFE26D3F239340836000208C
:102920006065012384F83530C9E7E16A206B014313
:102930000A43DBE740236365012084F83500BEE7E6
:102940000120BCE73F8010F038B50446856D90F853
:10295000340001282BD0012084F8340094F835008D
:10296000C0B2012804D0002384F83430022038BDDE
:10297000022084F83500002060652046FFF7FDFE48
:10298000E26D3F239340AB602268136843F0160367
:102990001360236C23B12268136843F008031360AB
:1029A0002268136843F0010313600020DFE7022070
:1029B000DDE770B50446866D00F0C6F994F8353051
:1029C000DBB2022B06D080236365002384F8343009
:1029D000012070BD05462268136823F016031360BA
:1029E0002268536923F080035361236CE3B12268AA
:1029F000136823F0080313602268136823F00103AF
:102A0000136023681B6813F0010F11D000F09CF9CC
:102A1000431B052BF5D920236365032084F835007B
:102A2000002384F83430D4E7A36C002BDFD1E3E734
:102A3000E26D3F239340B360012384F835300020DA
:102A400084F83400C5E790F83530DBB2022B03D0B0
:102A50008023436501207047052380F835300268E4
:102A6000136823F00103136000207047F0B583B0B2
:102A7000044600230193724B1D68724BA3FB05357E
:102A8000AD0A876D3E68C26D08239340334210D073
:102A900003681A6812F0040F0BD01A6822F00402BF
:102AA0001A60C26D08239340BB60436D43F001037D
:102AB0004365E26D01239340334209D02268526995
:102AC00012F0800F04D0BB60636D43F002036365B6
:102AD000E26D04239340334209D02268126812F059
:102AE000020F04D0BB60636D43F004036365E26DC5
:102AF00010239340334224D02268126812F0080F4A
:102B00001FD0BB6023681A6812F4802F0DD01B6899
:102B100013F4002F04D1236C9BB12046984710E09A
:102B2000A36C73B1204698470BE01A6812F4807FBB
:102B300003D11A6822F008021A60236C0BB12046F8
:102B40009847E26D20239340334255D022681268A3
:102B500012F0100F50D0BB6094F83530DBB2052B6B
:102B60000ED023681A6812F4802F33D01B6813F438
:102B7000002F2AD1636C002B3ED0204698473BE0C3
:102B80002268136823F0160313602268536923F048
:102B900080035361236CA3B12268136823F00803F8
:102BA0001360E26D3F239340BB60012384F835300E
:102BB000002384F83430236D002B3FD02046984703
:102BC0003CE0A36C002BE7D1EBE7E36BA3B120461D
:102BD000984711E01A6812F4807F09D11A6822F030
:102BE00010021A60012384F83530002384F8343051
:102BF000E36B0BB120469847636DFBB1636D13F037
:102C0000010F17D0052384F835302268136823F0AC
:102C100001031360019B01330193AB4204D8236885
:102C20001B6813F0010FF5D1012384F83530002320
:102C300084F83430E36C0BB12046984703B0F0BD04
:102C400008000020B5814E1B406D7047074AD368CD
:102C500023F4E0631B041B0C000200F4E060034358
:102C600043F0BF6343F40033D360704700ED00E0EE
:102C700000B5194BDB68C3F30223C3F1070CBCF1A9
:102C8000040F28BF4FF0040C03F1040EBEF1060F31
:102C900018D9033B4FF0FF3E0EFA0CFC21EA0C0161
:102CA00099400EFA03F322EA0303194300280BDBD1
:102CB0000901C9B200F1604000F5614080F80013DD
:102CC0005DF804FB0023E5E700F00F000901C9B23D
:102CD000024B1954F4E700BF00ED00E014ED00E0F2
:102CE000002807DB00F01F02400901239340024A3D
:102CF00042F82030704700BF00E100E008B50B4B00
:102D00001A6842F400721A601A6842F480621A600B
:102D10001A6842F480721A600320FFF797FF0F20B1
:102D2000FEF74AFCFEF726FC002008BD003C0240EE
:102D3000034A1168034B1B780B441360704700BFB4
:102D40006C05002000000020014B1868704700BF90
:102D50006C0500207047000090F83D30DBB2012B7D
:102D600037D1022380F83D300268D36843F0010375
:102D7000D3600368194A934220D0B3F1804F1DD02D
:102D8000A2F57C42934219D002F58062934215D09D
:102D900002F58062934211D002F5784293420DD041
:102DA00002F57052934209D0A2F59432934205D0B5
:102DB0001A6842F001021A60002070479A6802F017
:102DC0000702062A07D01A6842F001021A600020A2
:102DD0007047012070470020704700BF000001408D
:102DE000704770477047704770B504460368DE68E7
:102DF0001D6915F0020F10D016F0020F0DD06FF004
:102E000002021A610123037703689B6913F0030F21
:102E10005ED0FFF7E6FF0023237715F0040F12D0F2
:102E200016F0040F0FD023686FF004021A6102231A
:102E3000237723689B6913F4407F4FD02046FFF728
:102E4000D0FF0023237715F0080F12D016F0080FDB
:102E50000FD023686FF008021A61042323772368D8
:102E6000DB6913F0030F40D02046FFF7BAFF0023C1
:102E7000237715F0100F12D016F0100F0FD0236823
:102E80006FF010021A61082323772368DB6913F4BB
:102E9000407F31D02046FFF7A4FF0023237715F0B1
:102EA000010F02D016F0010F2DD115F0800F02D0C6
:102EB00016F0800F2FD115F0400F02D016F0400F02
:102EC00031D115F0200F02D016F0200F33D170BD94
:102ED000FFF786FF2046FFF785FF9CE72046FFF7B8
:102EE0007FFF2046FFF77EFFABE72046FFF778FF26
:102EF0002046FFF777FFBAE72046FFF771FF20462D
:102F0000FFF770FFC9E723686FF001021A612046DE
:102F100003F016FFC9E723686FF080021A612046AC
:102F200000F0ABF8C7E723686FF040021A61204653
:102F3000FFF759FFC5E723686FF020021A612046AA
:102F400000F09AF8C3E700000368344A904212D0B8
:102F5000B0F1804F0FD0A2F57C4290420BD002F529
:102F60008062904207D002F58062904203D002F561
:102F70007842904203D123F070034A681343274AF2
:102F800090422AD0B0F1804F27D0A2F57C429042E7
:102F900023D002F5806290421FD002F580629042F9
:102FA0001BD002F57842904217D002F57052904241
:102FB00013D002F5806290420FD002F580629042F9
:102FC0000BD0A2F59832904207D002F58062904271
:102FD00003D002F58062904203D123F44073CA68A3
:102FE000134323F080034A69134303608B68C36271
:102FF0000B688362094B984203D003F580639842C3
:1030000001D10B69036301234361036913F0010FCD
:1030100003D0036923F001030361704700000140FE
:1030200040B310B5044690F83D30F3B1022384F864
:103030003D30214651F8040BFFF786FF012384F849
:10304000463084F83E3084F83F3084F8403084F8CD
:10305000413084F8423084F8433084F8443084F8B6
:10306000453084F83D30002010BD80F83C30FFF73B
:1030700071FEDBE70120704770477047026802F17C
:103080000C0353E8003F23F0C0030C3242E8003148
:103090000029F3D1202380F841307047026802F103
:1030A0000C0353E8003F23F490730C3242E80031E4
:1030B0000029F3D1026802F1140353E8003F23F022
:1030C0000103143242E800310029F3D1036B012BD4
:1030D00005D0202380F84230002303637047026844
:1030E00002F10C0353E8003F23F010030C3242E8D6
:1030F00000310029F3D1ECE790F84130DBB2212B0D
:1031000001D0022070478368B3F5805F17D0036A4F
:103110005A1C02621A7803685A60C38C9BB2013B46
:103120009BB2C3844BB90268D36823F08003D36099
:103130000268D36843F04003D360002070470369FE
:10314000002BE4D1036A1B880268C3F308035360B1
:10315000036A02330362E0E738B504460268136984
:1031600023F44053C1680B4313618368026913431E
:1031700042691343C2691A430168CB6823F41643BA
:1031800023F00C031343CB600268536923F44073AC
:1031900081690B4353610368314A934206D002F5BB
:1031A0008062934202D0FFF777F901E0FFF784F9DC
:1031B000E369B3F5004F29D00021031849411B18DA
:1031C00041F10001C90041EA5371DB00181863683E
:1031D0004FEA83024FEA937341F10001FDF7D4FCFB
:1031E000204DA5FB00325109642303FB11031B0191
:1031F0003233A5FB03235B0903F0F00202EB01125B
:1032000003F00F03216813448B6038BD00230218BC
:1032100043EB0301121841F10001C90041EA527168
:10322000D200101841F10001626892185B41FDF76D
:10323000ABFC0C4DA5FB00325109642303FB1103C9
:10324000DB003233A5FB03235B095A0002F4F8725A
:1032500002EB011203F00703216813448B60D4E7EB
:10326000001001401F85EB5160B310B5044690F883
:10327000413013B3242384F841302268D36823F407
:103280000053D3602046FFF767FF2268136923F4D9
:10329000904313612268536923F02A035361226823
:1032A000D36843F40053D36000206064202384F883
:1032B000413084F84230606310BD80F84030FEF742
:1032C0000FF8D7E70120704710B50446226802F1D5
:1032D0000C0353E8003F23F490730C3242E80031B2
:1032E0000029F3D1226802F1140353E8003F23F0D0
:1032F0000103143242E800310029F3D1236B012B82
:103300001FD023685B6913F0400F13D0226802F1CD
:10331000140353E8003F23F04003143242E8003125
:103320000029F3D1E36B2BB100221A65E06BFFF7A4
:1033300040FB98B90020E085202384F842302063C8
:1033400010BD226802F10C0353E8003F23F0100384
:103350000C3242E800310029F3D1D2E7E06BFFF7ED
:1033600073FC2028E6D1102363640320E8E708B546
:103370000168CA6822F04002CA60202280F8412019
:1033800002F027FA002008BD10B5846B23685A6943
:1033900094F84130DBB2212B10D023685A6902F037
:1033A000400294F84230DBB2222B11D0636C43F020
:1033B00010036364204602F010FA10BD02F0800290
:1033C000002AEAD00023E3842046FFF757FEE4E713
:1033D000002AEBD00023E3852046FFF75FFEE5E7F8
:1033E00008B5806B0023C385C38402F0F6F908BDDD
:1033F00090F84230DBB2222B69D18368B3F5805F4D
:103400004FD0826AB3F5805F04D0002B56D1036998
:10341000002B53D103685B681370836A01338362A6
:10342000C38D9BB2013B9BB2C385002B51D100B52C
:1034300083B00268D36823F02003D3600268D368A6
:1034400023F48073D3600268536923F0010353614E
:10345000202380F8423000234363036B012B33D1D8
:1034600000230363026802F10C0353E8003F23F0DA
:1034700010030C3242E800310029F3D103681A68C6
:1034800012F0100F06D0002201921A6801925B68B8
:103490000193019B818D02F093F9002003B05DF848
:1034A00004FB0269002AACD1826A03685B68C3F33B
:1034B00008031380836A02338362B1E703685B68A1
:1034C00003F07F031370A8E702F07EF9E5E702201E
:1034D000704700207047000030B583B00446026892
:1034E0001368D068516913F00F0505D113F0200F50
:1034F00002D010F0200F19D12DB111F0010119D116
:1035000010F4907F16D1216B01297DD013F0800F2C
:1035100003D010F0800F40F0198113F0400F03D05A
:1035200010F0400F40F0168103B030BD2046FFF789
:103530005FFFF9E713F0010F06D010F4807F03D08E
:10354000626C42F00102626413F0040F04D019B1FE
:10355000626C42F00202626413F0020F04D019B1EF
:10356000626C42F00402626413F0080F07D010F09E
:10357000200F00D119B1626C42F008026264626CE3
:10358000002AD1D013F0200F02D010F0200F29D143
:1035900023685B6903F04003626C12F0080F00D1EE
:1035A00063B32046FFF77AFD23685B6913F0400F91
:1035B00020D0226802F1140353E8003F23F04003B7
:1035C000143242E800310029F3D1E36B73B1634A4E
:1035D0001A65E06BFFF737FA0028A5D0E06B036DA2
:1035E0009847A1E72046FFF703FFD1E7204602F006
:1035F000F4F899E7204602F0F0F895E7204602F04B
:10360000ECF8002363648FE713F0100F3FF47EAFF4
:1036100010F0100F3FF47AAF002301931368019369
:1036200053680193019B536913F0400F52D0E26B32
:1036300013685B689BB2002B3FF476AFA18D994273
:103640007FF672AFE385D369B3F5807F37D0226808
:1036500002F10C0353E8003F23F480730C3242E87C
:1036600000310029F3D1226802F1140353E8003F2E
:1036700023F00103143242E800310029F3D122681B
:1036800002F1140353E8003F23F04003143242E8F0
:1036900000310029F3D1202384F842300023236332
:1036A000226802F10C0353E8003F23F010030C32B0
:1036B00042E800310029F3D1E06BFFF77AF90223E9
:1036C0006363A18DE38D9BB2C91A89B2204602F0D3
:1036D00077F829E7A18DE38D9BB2C91A89B2E38DF2
:1036E0009BB2002B3FF420AF00293FF41DAF2268AE
:1036F00002F10C0353E8003F23F490730C3242E8CC
:1037000000300028F3D1226802F1140353E8003F8F
:1037100023F00103143242E800300028F3D12023C3
:1037200084F8423000232363226802F10C0353E83B
:10373000003F23F010030C3242E800300028F3D1A0
:1037400002236363204602F03BF8EDE62046FFF7D4
:10375000D3FCE9E62046FFF70AFEE5E6E133000880
:1037600008B5806B01234363036B012B02D002F089
:103770002FF808BD818D490802F022F8F9E708B555
:103780000346806B1B681B6813F4807F2BD10023DA
:10379000C385026802F10C0353E8003F23F48073F1
:1037A0000C3242E800310029F3D1026802F114031F
:1037B00053E8003F23F00103143242E800310029AE
:1037C000F3D1026802F1140353E8003F23F04003F1
:1037D000143242E800310029F3D1202380F842302E
:1037E000036B012B07D000234363036B012B0FD026
:1037F00001F0EAFF08BD026802F10C0353E8003F44
:1038000023F010030C3242E800310029F3D1EAE73B
:10381000818D01F0D5FFEDE781628285C2850023AD
:103820004364222380F84230036923B10268D368DD
:1038300043F48073D3600268536943F0010353611A
:103840000268D36843F02003D3600020704708B5B6
:1038500090F84230DBB2202B08D149B10AB90120DF
:1038600008BD00230363FFF7D7FFF9E70220F7E75E
:103870000120F5E790F84230DBB2202B29D110B5BA
:1038800082B0044639B312B9012002B010BD012341
:10389000036300234363FFF7BFFF0028F5D1236BC9
:1038A000012B01D00120F0E70023019323681A685F
:1038B00001925B680193019B226802F10C0353E8BB
:1038C000003F43F010030C3242E800310029F3D1ED
:1038D000DBE7022070470120D7E7000030B583B056
:1038E000044613468162828500254564222280F8C1
:1038F0004220C26B1F48D063E26B1F481064E26B2A
:103900001E48D064E26B156520680A46011DE06B15
:10391000FFF71AF8019523681A6801925B68019312
:10392000019B23695BB1226802F10C0353E8003F5D
:1039300043F480730C3242E800310029F3D122684D
:1039400002F1140353E8003F43F00103143242E84C
:1039500000310029F3D1226802F1140353E8003F3B
:1039600043F04003143242E800310029F3D1002033
:1039700003B030BD7F370008613700088933000885
:1039800008B590F84230DBB2202B08D149B10AB912
:10399000012008BD00230363FFF7A0FFF9E7022021
:1039A000F7E70120F5E790F84230DBB2202B29D170
:1039B00010B582B0044639B312B9012002B010BD6F
:1039C0000123036300234363FFF788FF0028F5D139
:1039D000236B012B01D00120F0E700230193236822
:1039E0001A6801925B680193019B226802F10C0343
:1039F00053E8003F43F010030C3242E80031002945
:103A0000F3D1DBE7022070470120D7E7034AD2F861
:103A1000883043F47003C2F88830704700ED00E04E
:103A200000F1080343604FF0FF328260C36003611E
:103A300000230360704700230361704743684B60B5
:103A40009A688A6051609960086103680133036075
:103A5000704730B40D68B5F1FF3F11D000F1080395
:103A60001C465B681A68AA42FAD963684B60996081
:103A70008C606160086103680133036030BC70478B
:103A80000469F2E70369416882688A6041685160AD
:103A90005A68824206D0002202611A68013A1A600E
:103AA0001868704782685A60F5E70000084B1B6889
:103AB0001B6823B9074B4FF0FF321A607047044B65
:103AC0001B68DB68DB685A68024B1A60704700BFEE
:103AD00074050020480600202DE9F0470746984667
:103AE000089DDDF824900A9C266B02F18042013A81
:103AF00006EB820626F0070600293AD08E464FF0E4
:103B0000000CBCF10F0F0BD81EF80C2004EB0C03BB
:103B100083F834201EF80C3013B10CF1010CF0E7DF
:103B2000002384F84330062D00D90625E56265643C
:103B30004FF0000AC4F848A0201DFFF77CFF04F1F5
:103B40001800FFF778FF2461C5F10705A5616462DD
:103B5000C4F84CA084F850A042463946304600F0E4
:103B600009FD2060B9F1000F01D0C9F80040BDE89F
:103B7000F087002384F83430D5E7000038B50024FE
:103B800007E004EB840293000E481844FFF748FF57
:103B90000134062CF5D90C4D2846FFF741FF0B4C9C
:103BA0002046FFF73DFF0A48FFF73AFF0948FFF7B5
:103BB00037FF0948FFF734FF084B1D60084B1C60B6
:103BC00038BD00BF7C0500201C0600203006002008
:103BD00054060020800600206C060020740500209A
:103BE0007805002010B5044600F0ECFC214A13686B
:103BF00001331360204B1B685BB1204B1B686BB912
:103C00001D4B1B68DA6AE36A9A4207D81A4B1C609C
:103C100004E0194B1C601368012B28D0184A136864
:103C200001331360E06A01238340164A11680B4395
:103C3000136000EB8000211D134B03EB8000FFF7A6
:103C4000FDFE00F0E1FC0D4B1B687BB10A4B1B68CD
:103C5000DA6AE36A9A4209D24FF0E0234FF08052C9
:103C6000C3F8042DBFF34F8FBFF36F8F10BDFFF765
:103C700085FFD3E7080600207005002068060020B5
:103C800014060020180600207C05002010B504460C
:103C900090F8513063B1012B11D0022B0ED04FF0B0
:103CA000500383F31188BFF36F8FBFF34F8FFEE78D
:103CB000006B00F0E3FB204600F0E0FB10BD00F0DD
:103CC000DDFBFBE70F4B1B68D3B110B500F07AFCAE
:103CD0000D4BDB68DC68201DFFF7D4FE0B4A136830
:103CE000013B1360074A1368013B136000F08CFC32
:103CF0002046FFF7CBFF034B1B68002BE6D110BD1E
:103D0000704700BF0C060020800600200806002037
:103D100008B5FFF7D7FF074B1B68012BF9D94FF008
:103D2000E0234FF08052C3F8042DBFF34F8FBFF351
:103D30006F8FEEE77C05002070B504460D461D4BE5
:103D40001E681D4B18680430FFF79CFE50B91A4BD3
:103D50001B68DA6A012303FA02F218490B6823EAA6
:103D600002030B60B4F1FF3F0DD03444124B1B68CB
:103D70005C60A64210D9124B18680F4B19680431C9
:103D8000FFF767FE70BD002DEFD00B4B19680431B3
:103D90000C48FFF753FEF5E70B4B1868064B196804
:103DA0000431FFF756FE094B1B68A342EAD9074BC3
:103DB0001C60E7E79406002070050020180600202C
:103DC000780500206C0600207405002048060020BD
:103DD00030B587B00B9C7CB10C9DB5B154250495D2
:103DE000049D542D1AD04FF0500383F31188BFF374
:103DF0006F8FBFF34F8FFEE74FF0500383F31188AF
:103E0000BFF36F8FBFF34F8FFEE74FF0500383F385
:103E10001188BFF36F8FBFF34F8FFEE7049D0C9D9A
:103E20002C63022485F8514000240394029505ACCC
:103E300001940A9C0094FFF74FFE0C98FFF7D2FE06
:103E4000059807B030BD2DE9F04385B00746884698
:103E500014461E46900000F093FA00B381465420A9
:103E600000F08EFA0546B0B1C0F83090E5B10023FD
:103E700085F85130039302950D9B01930C9B0093A1
:103E80003346224641463846FFF726FE2846FFF7CE
:103E9000A9FE012005E0484600F0F0FAE6E74FF001
:103EA000FF3005B0BDE8F0834FF0FF30F9E70000C8
:103EB00010B588B000240594069407AA06A905A8A1
:103EC000FDF75AF8059B0293069B01930094234645
:103ED000079A0E490E48FFF77BFF0E4B186090B112
:103EE0004FF0500383F31188BFF36F8FBFF34F8FF1
:103EF000094B4FF0FF321A60084B01221A60084B41
:103F00001C6000F0F9FB08B010BD00BFEC8C00088D
:103F1000113D0008440600204806002068060020E5
:103F200094060020024A136801331360704700BFF3
:103F300010060020F8B53A4B1B68002B69D1394BAD
:103F40001D6801351D60C5B9374B1B681B6843B13F
:103F50004FF0500383F31188BFF36F8FBFF34F8F80
:103F6000FEE7314A1168314B186810601960304A19
:103F7000136801331360FFF799FD2E4B1B68AB42AA
:103F80003DD900272C4B1B68DB6A03EB83039A00A7
:103F90002A4B9B58012B00D90127294B1B68002B6A
:103FA0003CD001273AE001271F4B1B681B6843B335
:103FB0001D4B1B68DB68DC6863689D4226D3261DA9
:103FC0003046FFF75FFDA36A1BB104F11800FFF74D
:103FD00059FDE36A01229A401A49086802430A60BF
:103FE00003EB83039A00314614481044FFF726FD83
:103FF000E26A114B1B68DB6A9A42D4D2D4E70027ED
:10400000D2E70C4B4FF0FF321A60BBE7094A13604E
:10401000B8E70D4A13680133136000273846F8BD2E
:10402000100600209406002074050020780500206A
:104030004C06002048060020700500207C0500206A
:1040400098060020180600205006002038B5354B91
:104050001B6843B94FF0500383F31188BFF36F8F90
:10406000BFF34F8FFEE700F0ADFA2E4B1A68013A0E
:104070001A601B68002B4FD12B4B1B680BB9002417
:104080004BE00024294B1B681BB3284BDB68DC6822
:1040900004F11800FFF7F6FC251D2846FFF7F2FC97
:1040A000E06A01238340224A11680B43136000EB4E
:1040B000800029461F4B03EB8000FFF7BFFCE26A3C
:1040C0001D4B1B68DB6A9A42DCD31C4B01221A6031
:1040D000D8E70CB1FFF7EAFC194B1C6884B9174B01
:1040E0001C68D4B14FF0E0234FF08052C3F8042D88
:1040F000BFF34F8FBFF36F8F01240EE0013C07D059
:10410000FFF718FF0028F9D00C4B01221A60F5E7E1
:104110000B4B00221A60E2E7002400F075FA2046FB
:1041200038BD00BF100600200806002054060020FD
:10413000180600207C05002070050020980600204D
:104140005006002010B5A8B10446104B1B6843B1BF
:104150004FF0500383F31188BFF36F8FBFF34F8F7E
:10416000FEE7FFF7DFFE00212046FFF7E5FDFFF742
:104170006DFF48B94FF0E0234FF08052C3F8042D93
:10418000BFF34F8FBFF36F8F10BD00BF100600202D
:10419000204B1B681BB1204B01221A6070471E4B3D
:1041A00000221A601D4B1B68B3FA83F3DBB2C3F124
:1041B0001F0303EB83018A0019498A5842B94FF063
:1041C000500383F31188BFF36F8FBFF34F8FFEE768
:1041D000134903EB830082000A4450684068506032
:1041E00003EB830C4FEA8C0208321144884209D059
:1041F00003EB83039A000A4B13445B68DA68094BAC
:104200001A607047406862469100054A0A4450604F
:10421000EEE700BF100600209806002018060020D8
:104220007C05002070050020842801D003307047F1
:104230000020704708B5FFF73BFE002008BD2DE9C0
:10424000F04387B004460F464569BDB18669AEB1FB
:10425000D0F80480D0F80090B0F90800FFF7E4FF30
:104260000296019500903B46226949464046FFF779
:10427000AFFD0590059807B0BDE8F0836568266836
:10428000D4F81080B4F90800FFF7CEFF05AB019316
:1042900000903B461FFA88F231462846FFF7D3FDCF
:1042A0000128E7D00020E6E708B500B90120FFF7B4
:1042B00049FF002008BD0000124A12F0070F1ED06F
:1042C000D11D21F00701C1F5705313440A460E4871
:1042D0000260002141601344083B23F007030B48B0
:1042E000036059601960991A51601360084B196096
:1042F000084B1960084B4FF000421A6070474FF4AA
:104300007053E4E7A0060020B44200209C06002081
:10431000A8420020A4420020A0420020164B1A46CA
:104320001B688342FBD3516802EB010C844509D022
:10433000416800EB010C634509D00360904219D03D
:10434000106070474068014451601046F0E710B4B7
:104350000A4C2468A3420BD05B681944416013687F
:104360001B680360904200D010605DF8044B7047FA
:104370000460F7E7704700BFB44200209C060020AD
:1043800070B50546FFF7CEFD364B1B68A3B1364B23
:104390001B681D424ED135B1083515F0070F02D00C
:1043A00025F007050835002D46D0304B1B68AB4281
:1043B00051D32F4A146804E0FFF77EFFE7E7224657
:1043C0001C466368AB4202D22368002BF7D1254B11
:1043D0001B68A34241D016680836236813606368DF
:1043E0005B1B102B10D9601910F0070F08D04FF08D
:1043F000500383F31188BFF36F8FBFF34F8FFEE736
:1044000043606560FFF78AFF626818490B689B1A72
:104410000B60184909688B4201D216490B60124B98
:104420001B681343636000232360134A136801333E
:10443000136002E0002600E00026FFF707FE16F0FA
:10444000070F0CD04FF0500383F31188BFF36F8F29
:10445000BFF34F8FFEE70026EFE70026EDE730467B
:1044600070BD00BF9C060020A0420020A442002096
:10447000B4420020A8420020AC420020002834D0E2
:1044800038B50446A0F1080550F8043C174A1268F4
:10449000134208D14FF0500383F31188BFF36F8F9D
:1044A000BFF34F8FFEE750F8081C41B14FF05003A7
:1044B00083F31188BFF36F8FBFF34F8FFEE723EABB
:1044C000020340F8043CFFF72DFD54F8041C084A91
:1044D00013680B4413602846FFF720FF054A136852
:1044E00001331360FFF7B2FD38BD7047A0420020D2
:1044F000A4420020B042002082B0002301930D4B63
:104500001B68B3F1FF3F08D04FF0500383F31188CD
:10451000BFF36F8FBFF34F8FFEE74FF0500383F36E
:104520001188BFF36F8FBFF34F8F019B002BFCD01F
:1045300002B070470C00002008480068006880F353
:1045400008884FF0000080F3148862B661B6BFF3AC
:104550004F8FBFF36F8F00DF00BF000008ED00E05A
:10456000DFF80C00016841F4700101607047000041
:1045700088ED00E04FF0807340F8043C21F0010129
:1045800040F8081C054B40F80C3C40F8202C6FF01C
:10459000020340F8243C4438704700BFF944000847
:1045A000074B19680868B0E8F04F80F30988BFF33B
:1045B0006F8F4FF0000080F311887047AFF30080D9
:1045C000700500204FF0500383F31188BFF36F8F05
:1045D000BFF34F8F0B4A136801331360012B00D0D8
:1045E00070474FF0E023D3F8043D13F0FF0FF7D0EE
:1045F0004FF0500383F31188BFF36F8FBFF34F8FDA
:10460000FEE700BF0C000020094B1B6843B94FF0C8
:10461000500383F31188BFF36F8FBFF34F8FFEE713
:10462000013B034A13600BB983F31188704700BF45
:104630000C0000200000000000000000000000004E
:10464000EFF30980BFF36F8F154B1A681EF0100F40
:1046500008BF20ED108A20E9F04F10602DE9090015
:104660004FF0500080F31188BFF34F8FBFF36F8F6F
:10467000FFF78EFD4FF0000080F3118809BC196828
:104680000868B0E8F04F1EF0100F08BFB0EC108AB9
:1046900080F30988BFF36F8F704700BFAFF30080CE
:1046A0007005002008B54FF0500383F31188BFF365
:1046B0006F8FBFF34F8FFFF73DFC28B14FF0E02322
:1046C0004FF08052C3F8042D002383F3118808BDF6
:1046D0004FF0E022002313619361054B1B680549ED
:1046E000A1FB03139B09013B53610723136170472F
:1046F00008000020D34D62104FF0E023D3F8002DC6
:104700003D4B9A421CD04FF0E023D3F8002D3B4B99
:104710009A421ED030B583B0394B1A78D2B201928A
:10472000FF221A701B78DBB28DF803309DF803303E
:1047300003F05003334A1370334B07221A601BE017
:104740004FF0500383F31188BFF36F8FBFF34F8F88
:10475000FEE74FF0500383F31188BFF36F8FBFF371
:104760004F8FFEE7284A1368013B13609DF8033022
:104770005B00DBB28DF803309DF8033013F0800F3F
:10478000F0D1214B1B68032B08D04FF0500383F36B
:104790001188BFF36F8FBFF34F8FFEE71B021A4ADA
:1047A000136003F4E0631360019BDBB2144A1370DF
:1047B0004FF0E024D4F8203D43F47003C4F8203DCA
:1047C000D4F8203D43F07043C4F8203DFFF780FF4C
:1047D00000250E4B1D60FFF7C3FED4F8343F43F0B5
:1047E0004043C4F8343FFFF7A7FEFFF7D1FCFFF7C3
:1047F00083FE284603B030BD71C20F4170C20F4125
:1048000000E400E0BC420020C04200200C00002078
:1048100010B503460C4A0D490D48006840B10C48DC
:1048200000680344521A934206D8094A136010BD27
:104830000748084C0460F2E703F0B8FF0C2303605C
:104840004FF0FF30F3E700BF0000022000500000EF
:10485000C4420020904A00200120704708B503F0B0
:10486000A5FF162303604FF0FF3008BD08B54FF0D9
:10487000FF31FFF7F3FFFEE70346104605E013F8AC
:10488000011B41400348405C11464A1E0029F6D1F5
:10489000704700BFF48C0008034698B1481E99B1D8
:1048A00010B413F8011B5140C9B2084C34F8111070
:1048B00081EA1222014601380029F2D110465DF842
:1048C000044B70474FF6FF7210467047F48D000896
:1048D00070B138B5054602290CD94C1EFF2221467D
:1048E000FFF7CAFF2B5D834214BF0020012038BDB3
:1048F000002070470020FAE7D8B170B50C46064694
:10490000022918D98D1E0D4B1A882946FFF7C4FFBE
:10491000C2B2735D9A4201D0002070BDC0F30F2077
:10492000344414F8013C984201D00020F5E70120FE
:10493000F3E7002070470020EFE700BF10000020E1
:10494000B5EEC00AF1EE10FA06DDF7EE007AB4EE2D
:10495000E70AF1EE10FA07D40023036043604FF03A
:104960007E52C2608360704700230360436080ED25
:10497000030A8360704780ED000A90ED037A27EE0A
:10498000000AF7EE007A77EEC77A90ED017A67EECB
:10499000877A30EE270A80ED020A80ED010A70471F
:1049A000B5EEC00AF1EE10FA06DDF7EE007AB4EECD
:1049B000E70AF1EE10FA07D40023036043604FF0DA
:1049C0007E52C2608360704700230360436080EDC5
:1049D000030A83607047002343600360836070476D
:1049E00030B54FF0000E1BE001692144C56805EBAE
:1049F000830CDCED007A0EFB0232456905EB820286
:104A000092ED007A27EE877AD1ED007A77EE877AF9
:104A1000C1ED007A013302789A42E5DC0EF1010E15
:104A20004378734508DD03694FEA8E0403EB8E0378
:104A300000221A600023EEE7036993ED000A30BDFF
:104A4000F8B5044616461F460170427019B9B6B94A
:104A500067612046F8BD02FB01F18D002846FFF793
:104A60008FFCE0602A46002103F0E0FE2846FFF7B5
:104A700087FC60612A46002103F0D8FEE7E7B60014
:104A80003046FFF77DFC20613246002103F0CEFE68
:104A9000DEE710B504460278437803FB02F2920089
:104AA0000021C06803F0C2FE6278920000212069F4
:104AB00003F0BCFE10BD002309E0C26802EB8302D4
:104AC00001EB830CDCF800C0C2F800C001330278AF
:104AD0009A42F2DC7047000010B52DED028B0446BF
:104AE0009FED0B8A80ED058A80ED068A0023036620
:104AF000B0EE480A8430FFF723FFB0EE480A04F115
:104B00009400FFF71DFF2046BDEC028B10BD00BFD7
:104B100000000000C0F8A410704710B50446002340
:104B2000836543650365C364836403640363C3638C
:104B300083634363436443620362C362C36183620A
:104B40008430FFF748FF04F19400FFF744FF10BDE5
:104B500084B070B5044605A880E80E0004F108068C
:104B600000236361A361002525669DED140A04F10D
:104B70008400FFF7E5FE9DED150A04F19400FFF7B0
:104B8000DFFE7C222946304603F050FE0A9B002BB4
:104B900028D0C4F8A430059BA360069BE360079B64
:104BA0002361089B6361099BA3610B9B23660D9B9B
:104BB00063660E9BE367109BE366119B23670C9B68
:104BC000E365129B6367139BA3670F9BA366169B0A
:104BD000C4F880302046FFF7A0FF2046BDE87040B3
:104BE00004B070470023C4F8A430D4E784B010B5F3
:104BF000044603A880E80E007C22002104F108008E
:104C000003F014FE089BC4F8A430039BA360049B2C
:104C1000E360059B2361069B6361079BA361099B7E
:104C200023660B9B63660C9BE3670E9BE3660F9BFF
:104C300023670A9BE3659DED130A04F19400FFF7D7
:104C4000AFFE109B6367119BA3679DED120A04F1F1
:104C50008400FFF7A5FE0D9BA366149BC4F880306B
:104C60002046FFF75AFFBDE8104004B0704700002F
:104C700010B5044680ED000A80ED070A036E13F4B8
:104C8000807F40F0D180D4F8A430002B00F0EF807A
:104C90001B68A36294ED077AD4ED0A7A77EE677AFF
:104CA000C4ED157AD4ED166A37EEE67A84ED127A01
:104CB000B0EEE76AD4ED1A5AF4EEC65AF1EE10FAE5
:104CC00000F2358194ED026A27EE866A84ED0D6A62
:104CD000236E13F4007F05D077EEA67AF6EE006A15
:104CE00067EEA67A13F0080F40F0C480D4ED046A92
:104CF00027EE267A84ED0F7A236E13F0200F00F052
:104D0000E48094ED157AB0EEC77A94ED1E6AB4EEA5
:104D1000C67AF1EE10FA40F2D280D4ED1D6AB4EEFC
:104D2000E67AF1EE10FA00F3CD8036EEC77A36EE71
:104D3000C66AC7EE066A27EEA67AD4ED0C7A77EE3D
:104D4000877AC4ED0C7A13F0020F15D094ED0C7A2B
:104D5000D4ED197AB4EEE77AF1EE10FA01DDC4ED84
:104D60000C7A94ED0C7AF1EE677AB4EEE77AF1EE14
:104D700010FA01D5C4ED0C7AD4ED037A94ED0C7AD7
:104D800067EE877AC4ED0E7A13F0100F11D094ED10
:104D90001C7AD4ED157AB4EEE77AF1EE10FA06DC5F
:104DA00094ED1B7AF4EEC77AF1EE10FA01DD0022E1
:104DB000A26313F0800F40F08F80236E13F4806F96
:104DC00040F0938094ED0D0AD4ED0E7A30EE270A70
:104DD000D4ED0F7A30EE270AD4ED107A30EE270AA0
:104DE00084ED110A236E13F0400F40F09980236E7A
:104DF00013F0040F00F09E8094ED117AD4ED177A31
:104E0000B4EEE77AF1EE10FA01DDC4ED117A94ED1B
:104E1000117AF1EE677AB4EEE77AF1EE10FA40F12A
:104E20008980C4ED117A85E090ED087A77EE407ABA
:104E3000B0EEE76AD0ED206AB4EEE66AF1EE10FA61
:104E40007FF621AFF5EEC07AF1EE10FA08DDFFEE45
:104E5000007A66EEA76A37EE267A84ED077A12E7C3
:104E600002D4DFED3C7AF4E7F7EE007AF1E70023B5
:104E7000A3620FE794ED1F7AD4ED046A67EE265A19
:104E800094ED025A75EE855A86EEA56A76EE856A2D
:104E900086EEA55A27EE067AD4ED0F6A27EE267A1B
:104EA000D4ED0A6A65EE266A37EE267AD4ED0B6AEF
:104EB00026EE266A37EE467A84ED0F7A1CE7F7EE87
:104EC000006A38E7DFED236A35E794ED0C7A77EE78
:104ED000277AC4ED0C7A36E794ED0F0A04F18400CA
:104EE000FFF749FD84ED0F0A67E794ED057AD4EDED
:104EF000077AD4ED086A37EEE66A27EE067A94ED73
:104F0000066A76EEA66A77EEE67AD4ED096A77EE5F
:104F1000A67A66EE277A77EE277AC4ED107A51E703
:104F200004F19400FFF727FD84ED110A5FE72046A6
:104F3000FFF7F3FDA36AE362236A6362E369236216
:104F4000A36CE364636DA36594ED110A84ED010A1B
:104F500010BD00BF0000000010B5044680ED000A3F
:104F600080ED070A036E13F4807F40F0CA80C4ED21
:104F70000A0AD4ED077A77EEE00AC4ED150A94ED3B
:104F8000167A70EEC77AC4ED127AF0EEE06A94ED0C
:104F90001A6AB4EEE66AF1EE10FA00F23281D4ED4C
:104FA000026A60EEA66AC4ED0D6A236E13F4007FF8
:104FB00005D070EE870AB6EE007A60EE870A13F02D
:104FC000080F40F0C18094ED047A67EE877AC4ED53
:104FD0000F7A236E13F0200F00F0E180D4ED157AE4
:104FE000F0EEE77AD4ED1E6AF4EEE67AF1EE10FA0E
:104FF00040F2CF8094ED1D7AF4EEC77AF1EE10FA0C
:1050000000F3CA8077EE677A77EE666A87EEA67A53
:1050100060EE877AD4ED0C0A70EEA70AC4ED0C0A94
:1050200013F0020F15D094ED0C7AD4ED197AB4EE8A
:10503000E77AF1EE10FA01DDC4ED0C7A94ED0C7A0A
:10504000F1EE677AB4EEE77AF1EE10FA01D5C4ED2D
:105050000C7AD4ED037A94ED0C7A67EE877AC4ED7E
:105060000E7A13F0100F11D094ED1C7AD4ED157A4E
:10507000B4EEE77AF1EE10FA06DC94ED1B7AF4EE6A
:10508000C77AF1EE10FA01DD0022A26313F0800F5F
:1050900040F08C80236E13F4806F40F0908094ED8C
:1050A0000D0AD4ED0E7A30EE270AD4ED0F7A30EEE9
:1050B000270AD4ED107A30EE270A84ED110A236E08
:1050C00013F0400F40F09680236E13F0040F00F0B1
:1050D0009B8094ED117AD4ED177AB4EEE77AF1EE75
:1050E00010FA01DDC4ED117A94ED117AF1EE677AD0
:1050F000B4EEE77AF1EE10FA40F18680C4ED117A51
:1051000082E090ED087A77EE407AB0EEE76AD0ED73
:10511000206AB4EEE66AF1EE10FA7FF628AFF5EEFB
:10512000C07AF1EE10FA08DDFFEE007A66EEA76AAB
:1051300037EE267A84ED077A19E702D4DFED3A7A62
:10514000F4E7F7EE007AF1E7D4ED1F7A94ED047AF4
:1051500027EE876AD4ED025A36EE256AC7EE066A54
:1051600037EE257AC7EE065A67EEA67A94ED0F7AE7
:1051700067EE877A94ED0A7A25EE877A77EE877A5A
:1051800094ED0B7A66EE876A77EEE67AC4ED0F7AD5
:105190001FE7B7EE007A3BE79FED237A38E7D4EDBF
:1051A0000C7A77EEA00AC4ED0C0A39E794ED0F0AE9
:1051B00004F18400FFF7DFFB84ED0F0A6AE794ED4A
:1051C000057AD4ED077AD4ED086A37EEE66A27EE61
:1051D000067A94ED066A76EEA66A77EEE67AD4ED64
:1051E000096A77EEA67A66EE277A77EE277AC4ED1B
:1051F000107A54E704F19400FFF7BDFB84ED110A27
:1052000062E72046FFF789FCA36AE362236A6362D0
:10521000E3692362A36CE364636DA36594ED110AF3
:1052200084ED010A10BD00BF0000000080ED200ADF
:105230007047D0F8A4007047B4EEE01AF1EE10FA0F
:105240000ED4B4EEC01AF1EE10FA0AD571EE600A6F
:1052500001E030EE600AB4EEC10AF1EE10FAF8DCBB
:105260007047F4EEC00AF1EE10FAF9DD31EE601A83
:10527000B4EEE00AF1EE10FAF2D530EE010AF7E7EB
:10528000B5EEC00AF1EE10FA20DBDFED567AB4EE8F
:10529000E70AF1EE10FA19D5B5EEC00AF1EE10FAF0
:1052A00011DDF2EE047A20EE270ABDEEC00A4E4B65
:1052B00010EE102A03EB820393ED007ADFED4B7AB8
:1052C00087EE270A7047B1EE400AEAE7DFED457A3C
:1052D000B4EEE70AF1EE10FA22DBDFED457AB4EE28
:1052E000E70AF1EE10FA1BD537EEC00AB5EEC00A98
:1052F000F1EE10FA11DDF2EE047A20EE270ABDEE8F
:10530000C00A394B10EE102A03EB820393ED007AAA
:10531000DFED367A87EE270A7047B1EE400AEAE7FA
:10532000DFED347AB4EEE70AF1EE10FA26DBDFEDBA
:10533000327AB4EEE70AF1EE10FA1FD5DFED2C7ADF
:1053400030EE270AB5EEC00AF1EE10FA13DDF2EEE8
:10535000047A20EE270ABDEEC00A234B10EE102A75
:1053600003EB820393ED007ADFED207A87EE270AC4
:10537000B1EE400A7047B1EE400AE8E7DFED1E7A71
:10538000B4EEE70AF1EE10FA29DBB5EEC00AF1EE51
:1053900010FA02D49FED190A7047DFED157A30EE4E
:1053A000270A37EEC00AB5EEC00AF1EE10FA13DD97
:1053B000F2EE047A20EE270ABDEEC00A0A4B10EE88
:1053C000102A03EB820393ED007ADFED087A87EE73
:1053D000270AB1EE400A7047B1EE400AE8E79FEDB8
:1053E000070A70470000B442F48F00080000C8426A
:1053F00000003443000034C30000B4C200000000C9
:10540000B5EEC00AF1EE10FA24DDB5EEC00AF1EEF9
:1054100010FA25DBDFED307AB4EEE70AF1EE10FA90
:105420001ED537EEC00AB5EEC00AF1EE10FA14DD53
:10543000F2EE047A20EE270ABDEEC00A274B10EEEA
:10544000102A03EB820393ED007ADFED257A87EED5
:10545000270A7047B1EE400AD7E7B1EE400AE7E706
:10546000DFED1D7AB4EEE70AF1EE10FA26DBDFED90
:105470001D7AB4EEE70AF1EE10FA1FD5DFED167AC9
:1054800030EE670AB5EEC00AF1EE10FA13DDF2EE67
:10549000047A20EE270ABDEEC00A104B10EE102A47
:1054A00003EB820393ED007ADFED0D7A87EE270A96
:1054B000B1EE400A7047B1EE400AE8E7DFED097A45
:1054C000B4EE670AF1EE10FA02D09FED070A7047BA
:1054D000BFEE000A704700BF0000B442F48F00081E
:1054E0000000C8420000344300000000F4EEC11A7E
:1054F000F1EE10FA02D59FED200A704708B52DEDA8
:10550000048BB0EE609AB0EE418AF0EE618AB0EEA4
:10551000611AF0EE480AFFF78FFEB0EE407A30EEE7
:10552000490AB5EEC00AF1EE10FA1ADDF0EE407A43
:1055300078EEC86AB6EE006A66EE866AF4EEE76A4E
:10554000F1EE10FA0AD578EEC97AF4EEE76AF1EED8
:1055500010FA09DD37EE870A30EE480ABDEC048BFD
:1055600008BDF1EE407AE3E738EE498A38EE070AE3
:1055700030EE680AF2E700BF0000000000238360FD
:105580008361C3618B8803848B790371CB79437109
:10559000CB6843618B6803610B6803600B7C03730A
:1055A0004B6983618B69C361054B1B682BB11A463C
:1055B0009B68002BFBD190607047014B18607047CF
:1055C000C842002010B504460068FDF77DFE228C1D
:1055D0000021A06903F02AF9E06918B1228C0021AA
:1055E00003F024F910BD30B583B00846069C0121B4
:1055F00001630221416384850568696941F04001C6
:1056000069610568E96841F01001E960016800948A
:105610000431C06BFDF782F803B030BD8169002909
:1056200046D010B582B00446028C02B9FEE7037979
:10563000013B052B3BD8DFE803F0161F3A030D288A
:105640002068FEF7B0F9228C0021A06903F0EEF883
:1056500002B010BD2068FEF70DF9228C0021A06970
:1056600003F0E4F8F4E72068FEF78AF9228C0021C1
:10567000A06903F0DBF8EBE72068FEF7E8F8228C7E
:105680000021A06903F0D2F8E2E70092E3690A463C
:1056900021682046FFF7A7FF228C0021A06903F0B4
:1056A000C5F8228C0021E06903F0C0F8D0E7FEE7DE
:1056B000FEE7000010B5094B1C6800E0A4685CB16F
:1056C00023688342FAD16369002BF7D0818DA069EA
:1056D00098472046FFF7A2FF10BD00BFC842002038
:1056E00038B50546214B1C682FE0EB6B1B681A6828
:1056F00012F4002F17D11A6822F001021A60EB6B26
:105700001A68136843F400231360237B8B4206D08E
:10571000EB6B1A68136843F00103136021E06369BF
:10572000A0699847F4E71A6822F001021A60EB6B4F
:105730001A68136823F400231360237B8B42E7D19C
:105740006369E0699847E3E7A4686CB12368AB42FA
:10575000FAD16369002BF7D02279062AC5D0A06957
:1057600098472046FFF75AFF38BD00BFC8420020C7
:1057700008B5074B1B6800E09B683BB11A68824282
:10578000FAD15A69002AF7D01B69984708BD00BFB3
:10579000C842002010B5094B1C6800E0A4685CB149
:1057A00023688342FAD16369002BF7D02046FFF7C4
:1057B00009FF2046FFF732FF10BD00BFC84200209E
:1057C00008B5FFF78DFF08BD08B5FFF773FF08BDEB
:1057D000FEE708B5FFF7CCFF08BD08B5FFF7DAFF15
:1057E00008BD4B1E072B00D9FEE781637047000000
:1057F00010B50C4C2046FCF76DF802212046FCF752
:10580000EDF910212046FCF7E9F9074C2046FCF79A
:1058100061F802212046FCF7E1F910212046FCF74F
:10582000DDF910BD240300204C03002038B52DED18
:10583000028B044600F036FA054600F017FAB0EE87
:10584000408A206CFCF7E9F80028FAD0284600F0DE
:105850000DFA30EE480A84ED090A231D04F11C02FA
:1058600004F12801206CFCF763F810B9BDEC028B41
:1058700038BD0120FAE7000010B4044C0460C16098
:105880000261034A02605DF8044B7047109E0008F5
:10589000209E000881647047006C704700B58BB093
:1058A0000B6B5BB1042B09D08A6A00925B0003F09A
:1058B0000603019300230293039304E00023009363
:1058C0000193029303930023069301230793086C2B
:1058D000104B984217D0104A137803F1010C82F84C
:1058E00000C00593CB6813F0010F0CBF0123002308
:1058F0000493012308930E2309936946FBF74EFF97
:105900000BB05DF804FB054A137803F1010C82F833
:1059100000C0E6E724030020120000203D430020E1
:1059200010B5044616482060E2602361154B2360E1
:105930002164039BA364144B1B789BB1029BA3B906
:105940002363E368A362002363630823A3630E4910
:105950000A78531CDBB20B700C4941F822401B2B18
:1059600008D9FEE7FFF744FFE8E704232363E36871
:10597000E362E8E721462046FFF790FF204610BD8E
:10598000109E0008209E00083C430020CC420020CE
:1059900038B50446154601640C4B1B786BB17DB9D4
:1059A00000232363E368A362002363630823A363E4
:1059B00021462046FFF772FF38BDFFF719FFEEE7DB
:1059C00004232363E368E362EEE700BF3C43002067
:1059D00084B038B5044605A880E80E001546184B7B
:1059E0002360E260079B2361164B23602164164B02
:1059F0001B78A3B1099BABB92363A5620023636342
:105A00000823A36310490A78531CDBB20B700F49BB
:105A100041F82240089AA2641B2B07D9FEE7FFF742
:105A2000E7FEE7E704232363E562E7E72146204634
:105A3000FFF734FF2046BDE8384004B0704700BF90
:105A4000109E0008209E00083C430020CC4200200D
:105A500070B582B005460E4631462846FCF7ABF8D5
:105A600000282ED06B46184A31462846FBF7EEFF39
:105A7000002402E0042A13D00134144B1B78A34203
:105A8000EAD9134B53F824301A6CAA42F4D10E4AC7
:105A90009268002AEED10C49086819698842E9D158
:105AA0009A6C72B1084A11691972094D55F82400AF
:105AB00012696946143002F0ABFE55F82400836C7D
:105AC000984702B070BD00BF404300203C43002017
:105AD000CC42002008B50021FFF7BAFF08BD08B589
