:020000040800F2
:1000000000000220B5C000087D1800088318000811
:10001000891800088F1800089518000800000000D3
:10002000000000000000000000000000C18A00087D
:100030009B18000800000000F18A0008598B000896
:1000400005C1000805C1000805C1000805C1000878
:1000500005C1000805C1000805C1000805C1000868
:1000600005C1000805C1000805C1000805C1000858
:10007000A918000805C1000805C1000805C100084D
:1000800005C1000805C1000805C10008BD18000829
:10009000D1180008E5180008F918000805C1000883
:1000A00005C100080D19000805C1000805C10008B8
:1000B00005C1000805C1000805C1000805C1000808
:1000C00005C1000805C1000805C100082119000884
:1000D00005C1000805C1000805C100083519000860
:1000E00005C1000805C1000805C1000805C10008D8
:1000F00005C1000805C1000805C1000805C10008C8
:1001000005C1000805C1000805C1000805C10008B7
:1001100005C1000805C1000805C1000805C10008A7
:10012000491900085D19000805C100087119000887
:1001300005C100080000000000000000851900084B
:1001400099190008AD190008C1190008D51900084F
:1001500005C10008E919000805C1000805C100082B
:1001600005C1000805C1000805C1000805C1000857
:1001700005C1000805C100080000000000000000E3
:0801800005C1000805C10008DB
:1001900010B5054C237833B9044B13B10448AFF3C1
:1001A00000800123237010BD980000200000000093
:1001B0001CC4000808B5034B1BB103490348AFF347
:1001C000008008BD000000009C0000201CC4000846
:1001D00081F0004102E000BF83F0004330B54FEAF8
:1001E00041044FEA430594EA050F08BF90EA020F65
:1001F0001FBF54EA000C55EA020C7FEA645C7FEAF8
:10020000655C00F0E2804FEA5454D4EB5555B8BF1A
:100210006D420CDD2C4480EA020281EA030382EA8B
:10022000000083EA010180EA020281EA0303362D1D
:1002300088BF30BD11F0004F4FEA01314FF4801CF0
:100240004CEA113102D0404261EB410113F0004F02
:100250004FEA03334CEA133302D0524263EB4303B9
:1002600094EA050F00F0A780A4F10104D5F1200E57
:100270000DDB02FA0EFC22FA05F2801841F10001B2
:1002800003FA0EF2801843FA05F359410EE0A5F186
:1002900020050EF1200E012A03FA0EFC28BF4CF0B7
:1002A000020C43FA05F3C01851EBE37101F000456D
:1002B00007D54FF0000EDCF1000C7EEB00006EEB7A
:1002C0000101B1F5801F1BD3B1F5001F0CD3490804
:1002D0005FEA30004FEA3C0C04F101044FEA44525B
:1002E00012F5800F80F09A80BCF1004F08BF5FEAE2
:1002F000500C50F1000041EB045141EA050130BDC2
:100300005FEA4C0C404141EB0101013C28BFB1F5D3
:10031000801FE9D291F0000F04BF01460020B1FA1E
:1003200081F308BF2033A3F10B03B3F120020CDAF1
:100330000C3208DD02F1140CC2F10C0201FA0CF0CF
:1003400021FA02F10CE002F11402D8BFC2F1200C34
:1003500001FA02F120FA0CFCDCBF41EA0C019040EA
:10036000E41AA2BF01EB0451294330BD6FEA040433
:100370001F3C1CDA0C340EDC04F11404C4F120021E
:1003800020FA04F001FA02F340EA030021FA04F330
:1003900045EA030130BDC4F10C04C4F1200220FA87
:1003A00002F001FA04F340EA0300294630BD21FAC5
:1003B00004F0294630BD94F0000F83F4801306BF8B
:1003C00081F480110134013D4EE77FEA645C18BF7F
:1003D0007FEA655C29D094EA050F08BF90EA020F16
:1003E00005D054EA000C04BF1946104630BD91EA0E
:1003F000030F1EBF0021002030BD5FEA545C05D111
:100400004000494128BF41F0004130BD14F580044F
:100410003CBF01F5801130BD01F0004545F0FE41C3
:1004200041F470014FF0000030BD7FEA645C1ABFF8
:10043000194610467FEA655C1CBF0B46024650EA2F
:10044000013406BF52EA033591EA030F41F400215B
:1004500030BD00BF90F0000F04BF0021704730B5E1
:100460004FF4806404F132044FF000054FF00001B6
:1004700050E700BF90F0000F04BF0021704730B577
:100480004FF4806404F1320410F0004548BF40424C
:100490004FF000013EE700BF42004FEAE2014FEAA1
:1004A00031014FEA02701FBF12F07F4393F07F4F7C
:1004B00081F06051704732F07F4208BF704793F07F
:1004C0007F4F04BF41F40021704730B54FF4607492
:1004D00001F0004521F000411CE700BF50EA010295
:1004E00008BF704730B54FF000050AE050EA01023E
:1004F00008BF704730B511F0004502D5404261EBAE
:1005000041014FF4806404F132045FEA915C3FF4EE
:10051000D8AE4FF003025FEADC0C18BF03325FEA8B
:10052000DC0C18BF033202EBDC02C2F1200300FA3C
:1005300003FC20FA02F001FA03FE40EA0E0021FA61
:1005400002F11444BDE600BF70B54FF0FF0C4CF44F
:10055000E06C1CEA11541DBF1CEA135594EA0C0F01
:1005600095EA0C0F00F0DEF82C4481EA030621EA3C
:100570004C5123EA4C5350EA013518BF52EA033577
:1005800041F4801143F4801338D0A0FB02CE4FF029
:100590000005E1FB02E506F00042E0FB03E54FF059
:1005A0000006E1FB03569CF0000F18BF4EF0010E51
:1005B000A4F1FF04B6F5007F64F5407404D25FEA4D
:1005C0004E0E6D4146EB060642EAC62141EA555100
:1005D0004FEAC52040EA5E504FEACE2EB4F1FD0C42
:1005E00088BFBCF5E06F1ED8BEF1004F08BF5FEAC0
:1005F000500E50F1000041EB045170BD06F0004672
:1006000046EA010140EA020081EA0301B4EB5C041E
:10061000C2BFD4EB0C0541EA045170BD41F4801116
:100620004FF0000E013C00F3AB8014F1360FDEBF3B
:10063000002001F0004170BDC4F10004203C35DA17
:100640000C341BDC04F11404C4F1200500FA05F39A
:1006500020FA04F001FA05F240EA020001F000423B
:1006600021F0004110EBD37021FA04F642EB0601B1
:100670005EEA430E08BF20EAD37070BDC4F10C04DB
:10068000C4F1200500FA04F320FA05F001FA04F29F
:1006900040EA020001F0004110EBD37041F100018B
:1006A0005EEA430E08BF20EAD37070BDC4F1200596
:1006B00000FA05F24EEA020E20FA04F301FA05F2FE
:1006C00043EA020321FA04F001F0004121FA04F2A6
:1006D00020EA020000EBD3705EEA430E08BF20EA76
:1006E000D37070BD94F0000F0FD101F000464000B0
:1006F00041EB010111F4801F08BF013CF7D041EA32
:10070000060195F0000F18BF704703F00046520035
:1007100043EB030313F4801F08BF013DF7D043EA06
:100720000603704794EA0C0F0CEA135518BF95EABC
:100730000C0F0CD050EA410618BF52EA4306D1D143
:1007400081EA030101F000414FF0000070BD50EA62
:10075000410606BF1046194652EA430619D094EAEC
:100760000C0F02D150EA013613D195EA0C0F05D1D6
:1007700052EA03361CBF104619460AD181EA03012A
:1007800001F0004141F0FE4141F470014FF00000E2
:1007900070BD41F0FE4141F4780170BD70B54FF07D
:1007A000FF0C4CF4E06C1CEA11541DBF1CEA1355FD
:1007B00094EA0C0F95EA0C0F00F0A7F8A4EB0504DF
:1007C00081EA030E52EA03354FEA013100F08880D6
:1007D0004FEA03334FF0805545EA131343EA12639F
:1007E0004FEA022245EA111545EA10654FEA002654
:1007F0000EF000419D4208BF964244F1FD0404F50D
:10080000407402D25B084FEA3202B61A65EB030568
:100810005B084FEA32024FF480104FF4002CB6EB25
:10082000020E75EB030E22BFB61A754640EA0C00A5
:100830005B084FEA3202B6EB020E75EB030E22BFE5
:10084000B61A754640EA5C005B084FEA3202B6EB26
:10085000020E75EB030E22BFB61A754640EA9C00E5
:100860005B084FEA3202B6EB020E75EB030E22BFB5
:10087000B61A754640EADC0055EA060E18D04FEA73
:10088000051545EA16754FEA06164FEAC30343EA13
:1008900052734FEAC2025FEA1C1CC0D111F4801FE0
:1008A0000BD141EA00014FF000004FF0004CB6E7D9
:1008B00011F4801F04BF01430020B4F1FD0C88BF78
:1008C000BCF5E06F3FF6AFAEB5EB030C04BFB6EB83
:1008D000020C5FEA500C50F1000041EB045170BD76
:1008E0000EF0004E4EEA113114EB5C04C2BFD4EBA3
:1008F0000C0541EA045170BD41F480114FF0000E27
:10090000013C90E645EA060E8DE60CEA135594EAA2
:100910000C0F08BF95EA0C0F3FF43BAF94EA0C0FA5
:100920000AD150EA01347FF434AF95EA0C0F7FF41A
:1009300025AF104619462CE795EA0C0F06D152EA6E
:1009400003353FF4FDAE1046194622E750EA410652
:1009500018BF52EA43067FF4C5AE50EA41047FF463
:100960000DAF52EA43057FF4EBAE12E74FEA4102C6
:10097000B2F1E04324BFB3F5001CDCF1FE5C0DD9FD
:1009800001F0004C4FEAC0024CEA5070B2F1004F47
:1009900040EB830008BF20F00100704711F0804F4A
:1009A00021D113F13872BCBF01F00040704741F40F
:1009B00080114FEA5252C2F11802C2F1200C10FA13
:1009C0000CF320FA02F018BF40F001004FEAC123F7
:1009D0004FEAD32303FA0CFC40EA0C0023FA02F39B
:1009E0004FEA4303CCE77FEA625307D150EA013371
:1009F0001EBF4FF0FE4040F44000704701F0004041
:100A000040F0FE4040F40000704700BF53B94AB9BF
:100A1000002908BF00281CBF4FF0FF314FF0FF3006
:100A200000F094B9ADF1080C6DE904CE00F026F8A1
:100A3000DDF804E0DDE9022304B07047D0B5FFF72C
:100A40002BFD0C4B002206460F46FFF77DFD00F004
:100A50007FF90446FFF7FEFC074B0022FFF774FD09
:100A600002460B4630463946FFF7B6FB00F070F9F8
:100A70002146D0BD0000F03D0000F0412DE9F047D7
:100A8000089D04468E46002B4DD18A42944669D972
:100A9000B2FA82F252B101FA02F3C2F1200120FA55
:100AA00001F10CFA02FC41EA030E94404FEA1C48A3
:100AB000210CBEFBF8F61FFA8CF708FB16E341EA9F
:100AC000034306FB07F199420AD91CEB030306F125
:100AD000FF3080F01F81994240F21C81023E634446
:100AE0005B1AA4B2B3FBF8F008FB103344EA0344EA
:100AF00000FB07F7A7420AD91CEB040400F1FF33FF
:100B000080F00A81A74240F207816444023840EA3B
:100B10000640E41B00261DB1D4400023C5E9004374
:100B20003146BDE8F0878B4209D9002D00F0EF80F7
:100B30000026C5E9000130463146BDE8F087B3FA2A
:100B400083F6002E4AD18B4202D3824200F2F98012
:100B5000841A61EB030301209E46002DE0D0C5E915
:100B6000004EDDE702B9FFDEB2FA82F2002A40F061
:100B70009280A1EB0C014FEA1C471FFA8CFE012664
:100B8000200CB1FBF7F307FB131140EA01410EFB08
:100B900003F0884208D91CEB010103F1FF3802D2AF
:100BA000884200F2CB804346091AA4B2B1FBF7F0A9
:100BB00007FB101144EA01440EFB00FEA64508D9CC
:100BC0001CEB040400F1FF3102D2A64500F2BB8009
:100BD0000846A4EB0E0440EA03409CE7C6F1200758
:100BE000B34022FA07FC4CEA030C20FA07F401FA9E
:100BF00006F31C43F9404FEA1C4900FA06F3B1FB27
:100C0000F9F8200C1FFA8CFE09FB181140EA01418B
:100C100008FB0EF0884202FA06F20BD91CEB010128
:100C200008F1FF3A80F08880884240F28580A8F180
:100C300002086144091AA4B2B1FBF9F009FB1011D2
:100C400044EA014100FB0EFE8E4508D91CEB010170
:100C500000F1FF346CD28E456AD90238614440EA13
:100C60000840A0FB0294A1EB0E01A142C846A64693
:100C700056D353D05DB1B3EB080261EB0E0101FA1C
:100C800007F722FA06F3F1401F43C5E90071002679
:100C90003146BDE8F087C2F12003D8400CFA02FCCF
:100CA00021FA03F3914001434FEA1C471FFA8CFEDF
:100CB000B3FBF7F007FB10360B0C43EA064300FBCF
:100CC0000EF69E4204FA02F408D91CEB030300F16D
:100CD000FF382FD29E422DD9023863449B1B89B224
:100CE000B3FBF7F607FB163341EA034106FB0EF3AD
:100CF0008B4208D91CEB010106F1FF3816D28B425A
:100D000014D9023E6144C91A46EA004638E72E4625
:100D1000284605E70646E3E61846F8E64B45A9D21D
:100D2000B9EB020864EB0C0E0138A3E74646EAE78C
:100D3000204694E74046D1E7D0467BE7023B61443A
:100D400032E7304609E76444023842E7704700BFA3
:100D50004A0011D212F5001211D20DD56FF478733A
:100D6000B3EB62520ED44FEAC12343F0004343EA8F
:100D7000505323FA02F070474FF00000704750EADA
:100D8000013002D14FF0FF3070474FF00000704744
:100D900080B58AB000AF07F1140300221A605A60D0
:100DA0009A60DA601A6100233B613D4B1B6B3C4A41
:100DB00043F0800313633A4B1B6B03F080033B61EA
:100DC0003B690023FB60364B1B6B354A43F0010344
:100DD0001363334B1B6B03F00103FB60FB680023C1
:100DE000BB602F4B1B6B2E4A43F0040313632C4B49
:100DF0001B6B03F00403BB60BB6800237B60284BC4
:100E00001B6B274A43F002031363254B1B6B03F054
:100E100002037B607B6800221021224803F002FC61
:100E200000220221204803F0FDFB10237B610123F7
:100E3000BB610123FB6102233B6207F114031946E6
:100E4000184803F053FA20237B614FF40413BB616D
:100E50000123FB6107F114031946124803F046FA17
:100E600001237B614FF40413BB610123FB6107F194
:100E7000140319460C4803F039FA02237B6101235D
:100E8000BB610123FB6102233B6207F11403194696
:100E9000054803F02BFA00BF2837BD4680BD00BFD0
:100EA00000380240000802400004024080B58EB0C5
:100EB00000AF07F1280300221A605A609A60DA60D6
:100EC00007F1200300221A605A603B1D00221A60BD
:100ED0005A609A60DA601A615A619A612D4B4FF03C
:100EE00080421A602B4B00225A602A4B00229A60E3
:100EF000284B4FF6FF72DA60264B00221A61254B11
:100F000000229A61234804F049F90346002B01D0DE
:100F10000BF012F84FF48053BB6207F12803194617
:100F20001C4804F007FC0346002B01D00BF004F82A
:100F3000184804F0F3F90346002B01D00AF0FCFF37
:100F400000233B6200237B6207F12003194611480E
:100F500004F0D6FF0346002B01D00AF0EDFF60231A
:100F60007B600023BB600023FB6000237B613B1D93
:100F700008221946074804F01BFB0346002B01D04A
:100F80000AF0DAFF034800F027F800BF3837BD4603
:100F900080BD00BFB400002080B485B000AF786091
:100FA0007B681B68B3F1804F0DD10023FB60094BB8
:100FB0001B6C084A43F001031364064B1B6C03F0DF
:100FC0000103FB60FB6800BF1437BD465DF8047B7E
:100FD000704700BF0038024080B588B000AF78602D
:100FE00007F10C0300221A605A609A60DA601A61F5
:100FF0007B681B68B3F1804F1ED10023BB60104B90
:101000001B6B0F4A43F0020313630D4B1B6B03F082
:101010000203BB60BB684FF48063FB6002233B614B
:1010200001237B610223BB610123FB6107F10C03F8
:101030001946044803F05AF900BF2037BD4680BD69
:10104000003802400004024080B500AF174B184A38
:101050001A60164B03225A60144B00229A60134BFD
:101060000022DA60114B4FF410221A610F4B4FF43B
:1010700000125A610D4B00221A760C4B01225A764F
:101080000A4B01229A76094B0122DA76074B00229D
:101090001A77064B00225A77044801F0A3FD034655
:1010A000002B01D00AF048FF00BF80BDFC000020EB
:1010B0000064004080B500AF174B184A1A60164B09
:1010C00003225A60144B00229A60134B0022DA600C
:1010D000114B4FF410221A610F4B4FF400125A615A
:1010E0000D4B00221A760C4B01225A760A4B012234
:1010F0009A76094B0122DA76074B00221A77064BC3
:1011000000225A77044801F06DFD0346002B01D000
:101110000AF012FF00BF80BD2401002000680040DB
:1011200080B58CB000AF786007F11C0300221A6014
:101130005A609A60DA601A617B681B68624A93425F
:1011400056D1624B1B680133604A13605F4B1B68CA
:10115000012B0DD10023BB615D4B1B6C5C4A43F03E
:10116000007313645A4B1B6C03F00073BB61BB69C3
:1011700000237B61564B1B6B554A43F002031363FC
:10118000534B1B6B03F002037B617B694FF440738D
:10119000FB6102233B6200237B620323BB620923C2
:1011A000FB6207F11C0319464A4803F09FF800222E
:1011B0000521132003F086FF132003F09FFF002278
:1011C0000521142003F07EFF142003F097FF002276
:1011D0000521152003F076FF152003F08FFF002274
:1011E0000521162003F06EFF162003F087FF67E04D
:1011F0007B681B68384A934262D100233B61344BC1
:101200001B6C334A43F080631364314B1B6C03F057
:1012100080633B613B692D4B1B6801332B4A136094
:101220002A4B1B68012B0DD10023FB60284B1B6C44
:10123000274A43F000731364254B1B6C03F00073C3
:10124000FB60FB680023BB60214B1B6B204A43F013
:10125000020313631E4B1B6B03F00203BB60BB68EE
:101260006023FB6102233B6200237B620323BB629A
:101270000923FB6207F11C031946164803F036F8F0
:10128000002205213F2003F01DFF3F2003F036FF21
:1012900000220521402003F015FF402003F02EFF1F
:1012A00000220521412003F00DFF412003F026FF1D
:1012B00000220521422003F005FF422003F01EFF1B
:1012C00000BF3037BD4680BD006400404C010020A7
:1012D00000380240000402400068004080B582B03F
:1012E00000AF00237B60234B1B6B224A43F4800337
:1012F0001363204B1B6B03F480037B607B6800232C
:101300003B601C4B1B6B1B4A43F400131363194BCC
:101310001B6B03F400133B603B68002205210C208B
:1013200003F0D0FE0C2003F0E9FE00220521382056
:1013300003F0C8FE382003F0E1FE00220521392029
:1013400003F0C0FE392003F0D9FE002205213B2026
:1013500003F0B8FE3B2003F0D1FE0022052145201A
:1013600003F0B0FE452003F0C9FE00BF0837BD46BC
:1013700080BD00BF0038024080B500AF114B124A5B
:101380001A60104B114A5A600E4B00229A600D4BA6
:101390000022DA600B4B4FF480621A61094B042281
:1013A0005A61084B00229A61064B0022DA61054817
:1013B00004F036FE0346002B01D00AF0BDFD00BF4D
:1013C00080BD00BF5001002000480040A086010001
:1013D00080B500AF114B124A1A60104B4FF4E13246
:1013E0005A600E4B00229A600C4B0022DA600B4BC5
:1013F00000221A61094B0C225A61084B00229A61A3
:10140000064B0022DA61054804F00AFE0346002B71
:1014100001D00AF091FD00BF80BD00BF98010020FF
:101420000014014080B58CB000AF786007F11C0358
:1014300000221A605A609A60DA601A617B681B6841
:101440008D4A934240F085800023BB618B4B1B6C1F
:101450008A4A43F480231364884B1B6C03F4802373
:10146000BB61BB6900237B61844B1B6B834A43F0E8
:1014700002031363814B1B6B03F002037B617B69E7
:1014800000233B617D4B1B6B7C4A43F004031363D9
:101490007A4B1B6B03F004033B613B694FF4006321
:1014A000FB6102233B6200237B620323BB620723B1
:1014B000FB6207F11C031946714802F017FF4FF455
:1014C0008063FB6102233B6200237B620323BB62D8
:1014D0000723FB6207F11C0319466A4802F006FF66
:1014E000694B6A4A1A60684B4FF000625A60664B5B
:1014F00000229A60644B0022DA60634B4FF48062F2
:101500001A61614B00225A615F4B00229A615E4B67
:101510004FF48072DA615C4B4FF440321A625A4BDE
:1015200000225A62584803F007F90346002B01D005
:101530000AF002FD7B68544ADA63534A7B6893637E
:1015400000220521272003F0BDFD272003F0D6FD52
:101550008EE07B681B684E4A934240F089800023EE
:10156000FB60464B5B6C454A43F020035364434B9E
:101570005B6C03F02003FB60FB680023BB603F4B08
:101580001B6B3E4A43F0040313633C4B1B6B03F09D
:101590000403BB60BB68C023FB6102233B620023E2
:1015A0007B620323BB620823FB6207F11C0319461D
:1015B000344802F09BFE374B374A1A60354B4FF0E8
:1015C00020625A60334B00229A60324B0022DA606C
:1015D000304B4FF480621A612E4B00225A612D4B22
:1015E00000229A612B4B4FF48072DA61294B002262
:1015F0001A62284B00225A62264803F09DF80346DF
:10160000002B01D00AF098FC7B68224ADA63214A59
:101610007B689363214B224A1A60204B4FF0206273
:101620005A601E4B40229A601C4B0022DA601B4B12
:101630004FF480621A61194B00225A61174B002245
:101640009A61164B0022DA61144B00221A62134B86
:1016500000225A62114803F06FF80346002B01D0B4
:101660000AF06AFC7B680D4A9A630C4A7B689363B4
:1016700000BF3037BD4680BD004800400038024002
:101680000004024000080240E001002028600240FF
:10169000001401404002002028640240A002002003
:1016A000A064024080B500AF174B184A1A60164B71
:1016B0004FF482725A60144B00229A60124B00223F
:1016C000DA60114B02221A610F4B01225A610E4B54
:1016D0004FF400729A610C4B1022DA610A4B00221F
:1016E0001A62094B00225A62074B00229A62064B8B
:1016F0000A22DA62044805F029FF0346002B01D0D4
:101700000AF01AFC00BF80BD000300200030014039
:1017100080B58AB000AF786007F1140300221A6028
:101720005A609A60DA601A617B681B684C4A93427F
:1017300040F0928000233B614A4B5B6C494A43F482
:1017400080535364474B5B6C03F480533B613B69AC
:101750000023FB60434B1B6B424A43F001031363BE
:10176000404B1B6B03F00103FB60FB68E0237B61D4
:101770000223BB610123FB6103233B6205237B62E0
:1017800007F114031946384802F0B0FD374B384AC8
:101790001A60364B4FF0C0625A60344B00229A6098
:1017A000324B0022DA60314B4FF480621A612F4BCA
:1017B00000225A612D4B00229A612C4B0022DA61E3
:1017C0002A4B4FF400321A62284B00225A622748F3
:1017D00002F0B2FF0346002B01D00AF0ADFB7B689C
:1017E000224ADA64214A7B689363224B224A1A60B8
:1017F000204B4FF0C0625A601E4B40229A601D4B36
:101800000022DA601B4B4FF480621A61194B0022F0
:101810005A61184B00229A61164B0022DA61154B6F
:101820004FF400321A62134B00225A62114802F040
:1018300083FF0346002B01D00AF07EFB7B680D4A34
:101840009A640C4A7B68936300220521232003F0ED
:1018500039FC232003F052FC00BF2837BD4680BD71
:1018600000300140003802400000024058030020D0
:1018700010640240B80300205864024080B400AFF6
:10188000FEE780B400AFFEE780B400AFFEE780B4AF
:1018900000AFFEE780B400AFFEE780B400AF00BF4A
:1018A000BD465DF8047B704780B500AF024803F089
:1018B000DBF800BF80BD00BFE001002080B500AFB5
:1018C000024801F024FE00BF80BD00BFFC000020E4
:1018D00080B500AF024801F01AFE00BF80BD00BF16
:1018E000FC00002080B500AF024801F010FE00BFF0
:1018F00080BD00BFFC00002080B500AF024801F0B1
:1019000006FE00BF80BD00BFFC00002080B500AF18
:10191000024803F05CFD00BF80BD00BF180400203A
:1019200080B500AF024805F09BFE00BF80BD00BF40
:101930000003002080B500AF024804F069FD00BF3D
:1019400080BD00BF5001002080B500AF024803F009
:101950008BF800BF80BD00BF5803002080B500AFEA
:10196000024803F081F800BF80BD00BF40020020A4
:1019700080B500AF024803F077F800BF80BD00BF1C
:10198000B803002080B500AF024801F0C0FD00BFE1
:1019900080BD00BF2401002080B500AF024801F0E7
:1019A000B6FD00BF80BD00BF2401002080B500AFA0
:1019B000024801F0ACFD00BF80BD00BF2401002043
:1019C00080B500AF024801F0A2FD00BF80BD00BF9E
:1019D0002401002080B500AF024800F0AFF800BF3E
:1019E00080BD00BF2005002080B500AF024803F095
:1019F0003BF800BF80BD00BFA002002080B582B0D0
:101A000000AF00237B60124B5B6C114A43F48043B0
:101A100053640F4B5B6C03F480437B607B68002353
:101A20003B600B4B1B6C0A4A43F080531364084B1A
:101A30001B6C03F080533B603B6800220F216FF06A
:101A4000010003F03FFB00BF0837BD4680BD00BF6B
:101A50000038024080B58CB000AF78600023BB62D4
:101A600000237B620023BB602F4B5B6C2E4A43F04C
:101A7000010353642C4B5B6C03F00103BB60BB6838
:101A800007F10C0207F110031146184602F0FCFBA7
:101A900002F0E6FB03465B00BB62BB6A234AA2FB83
:101AA00003239B0C013B7B62214B224A1A60204B93
:101AB00040F2E732DA601E4A7B6A53601C4B002218
:101AC0001A611B4B00229A60194B00229A61184838
:101AD00003F064FB034687F82F3097F82F30002B74
:101AE0001BD1134803F0AAFB034687F82F3097F861
:101AF0002F30002B11D1192003F000FB7B680F2B36
:101B000008D800227968192003F0DCFA0A4A7B68B9
:101B1000136002E0012387F82F3097F82F30184622
:101B20003037BD4680BD00BF0038024083DE1B4316
:101B300018040020000001400000002090B58DB086
:101B400000AF78607B681B683B623B6AFB617B6827
:101B50001B68184606F08DFD0346002B40F08C8470
:101B60007B681B68184606F0F1FC0346002B00F06A
:101B70008284FB6903F500639B681B0AC3F30D02B3
:101B80007B68C3F8D4247B681B68184606F0DEFC2B
:101B9000034603F00203022B07D17B681B685A69D6
:101BA0007B681B6802F002025A617B681B6818465A
:101BB00006F0CCFC034603F01003102B61D17B68C8
:101BC0001B689A697B681B6822F010029A613B6A65
:101BD0001B6ABB61BB6903F00F021346DB001344B1
:101BE0009B0003F514737A68134404337B61BB696B
:101BF0005B0C03F00F03022B24D1BA6947F6F07394
:101C00001340002B35D07B69D968BB691B099BB297
:101C1000C3F30A039BB21A46386A06F045FB7B6998
:101C2000DA68BB691B09C3F30A031A447B69DA60EB
:101C30007B695A69BB691B09C3F30A031A447B69B0
:101C40005A6116E0BB695B0C03F00F03062B10D141
:101C50007B6803F29C4308221946386A06F024FB8D
:101C60007B695A69BB691B09C3F30A031A447B6980
:101C70005A617B681B689A697B681B6842F0100296
:101C80009A617B681B68184606F060FC034603F403
:101C90000023B3F5002F40F0A78000237B627B6810
:101CA0001B68184606F065FCB86299E0BB6A03F051
:101CB0000103002B00F08E807B681B687A6AD2B229
:101CC0001146184606F089FC38613B6903F00103B0
:101CD000002B0CD07B6A5A01FB69134403F5306377
:101CE0001A4601239360796A786800F041FE3B69E7
:101CF00003F00803002B0CD07B6A5A01FB691344E4
:101D000003F530631A4608239360796A786800F017
:101D100017FF3B6903F01003002B08D07B6A5A01C0
:101D2000FB69134403F530631A46102393603B6943
:101D300003F00203002B30D03B6A5B6903F08003A1
:101D4000802B09D1FB6903F500635B68FA6902F532
:101D5000006243F4806353607A6A1346DB001344E5
:101D60009B0003F514737A68134404337B617B6929
:101D7000DB78012B08D17B690022DA707B6ADBB249
:101D80001946786808F0C8F97B6A5A01FB69134460
:101D900003F530631A46022393603B6903F0200386
:101DA000002B08D07B6A5A01FB69134403F53063AA
:101DB0001A46202393603B6903F40053002B09D09B
:101DC0007B6A5A01FB69134403F530631A464FF4EA
:101DD000005393607B6A01337B62BB6A5B08BB6222
:101DE000BB6A002B7FF462AF7B681B68184606F065
:101DF000ADFB034603F48023B3F5802F40F0DB8076
:101E00007B681B68184606F0CEFBB86200237B6235
:101E1000CDE0BB6A03F00103002B00F0C2807B68B9
:101E20001B687A6AD2B21146184606F0F4FB386194
:101E30003B6903F00103002B57D07B6A03F00F03CB
:101E4000012202FA03F3FB60FB6903F500635A6B9E
:101E5000FB68DB43F96901F5006113404B637B6A62
:101E60005A01FB69134403F510631A46012393607A
:101E70007B689B79012B32D179687A6A1346DB0043
:101E800013449B000B442033196878687A6A134620
:101E9000DB0013449B0003441C331B68194478681F
:101EA0007A6A1346DB0013449B0003442033196015
:101EB0007B6A002B13D179687A6A1346DB001344DE
:101EC0009B000B4424331B68002B08D17B681868E7
:101ED0007B6803F29C431A46012106F0FBFB7B6AF8
:101EE000DBB21946786808F092F83B6903F0080302
:101EF000002B08D07B6A5A01FB69134403F5106379
:101F00001A46082393603B6903F01003002B08D0A6
:101F10007B6A5A01FB69134403F510631A461023C8
:101F200093603B6903F04003002B08D07B6A5A01A1
:101F3000FB69134403F510631A46402393603B6921
:101F400003F00203002B23D0796A386A05F048FDBC
:101F50007A6A1346DB0013449B0010337A681344FB
:101F600004337B617B69DB78012B08D17B6900221C
:101F7000DA707B6ADBB21946786808F0DFF87B6AB2
:101F80005A01FB69134403F510631A460223936058
:101F90003B6903F08003002B03D0796A786800F076
:101FA0005BFC7B6A01337B62BB6A5B08BB62BB6A1A
:101FB000002B7FF42EAF7B681B68184606F0C6FA2C
:101FC000034603F00043B3F1004F22D1FB6903F550
:101FD00000635B68FA6902F5006223F00103536055
:101FE0007B6893F8CC34012B08D17B68002283F8FE
:101FF000CC240021786800F0E9FD02E0786808F060
:102000007DF87B681B685A697B681B6802F0004298
:102010005A617B681B68184606F098FA034603F479
:102020000063B3F5006F12D1FB6903F500639B6891
:1020300003F00103012B02D1786808F039F87B68BE
:102040001B685A697B681B6802F400625A617B68EE
:102050001B68184606F07AFA034603F48053B3F57A
:10206000805F40F0B780FB6903F500635B68FA6945
:1020700002F5006223F0010353607B681B681021A6
:10208000184605F0ADFC0023FB6246E0FB6A5A01EE
:10209000FB69134403F510631A464FF67F339360D0
:1020A000FB6A5A01FB69134403F510631B68FA6A63
:1020B0005101FA690A4402F5106223F40013136017
:1020C000FB6A5A01FB69134403F530631A464FF665
:1020D0007F339360FB6A5A01FB69134403F5306355
:1020E0001B68FA6A5101FA690A4402F5306223F466
:1020F00000131360FB6A5A01FB69134403F5306354
:102100001B68FA6A5101FA690A4402F5306243F029
:1021100000631360FB6A0133FB627B681B791A461C
:10212000FB6A9342B2D3FB6903F50063DB69FA698A
:1021300002F5006243F00113D3617B68DB7B002B67
:1021400016D0FB6903F50063D3F88430FA6902F511
:10215000006243F00B03C2F88430FB6903F50063AF
:102160005B6CFA6902F5006243F00B03536415E0FF
:10217000FB6903F500635B69FA6902F5006243F4E9
:10218000005343F02B035361FB6903F500631B69A4
:10219000FA6902F5006243F00B031361FB6903F572
:1021A00000631B68FA6902F5006223F4FE631360A2
:1021B0007B6818687B6899797B6803F29C431A46B0
:1021C00006F088FA7B681B685A697B681B6802F412
:1021D00080525A617B681B68184606F0B7F90346BF
:1021E00003F40053B3F5005F23D17B681B681846E6
:1021F00006F04DFA7B681B68184605F023FC034681
:102200001A467B68DA717B681C6802F009F801469F
:102210007B68DB791A46204605F040FB786807F0BA
:102220001EFF7B681B685A697B681B6802F40052BA
:102230005A617B681B68184606F088F9034603F06C
:102240000803082B0AD1786807F0FBFE7B681B683F
:102250005A697B681B6802F008025A617B681B6838
:10226000184606F073F9034603F08003802B23D150
:102270003B6A9B6923F080023B6A9A6101237B627F
:1022800014E079687A6A1346DB0013449B000B4420
:1022900003F257231B78012B05D17B6ADBB2194669
:1022A000786800F0A8FA7B6A01337B627B681B794F
:1022B0001A467B6A9342E4D37B681B68184606F093
:1022C00045F9034603F48013B3F5801F3CD1012385
:1022D0007B622BE07B6A5A01FB69134403F51063B0
:1022E0001B68BB6179687A6A1346DB0013449B0064
:1022F0000B4418331B78012B15D1BB69002B12DA64
:1023000079687A6A1346DB0013449B000B44173349
:1023100001221A707B6ADBB263F07F03DBB21946DD
:10232000786800F068FA7B6A01337B627B681B790E
:102330001A467B6A9342CDD37B681B685A697B68D7
:102340001B6802F480125A617B681B68184606F00D
:10235000FDF8034603F40013B3F5001F56D1012323
:102360007B6245E07B6A5A01FB69134403F53063E5
:102370001B68BB6179687A6A1346DB0013449B00D3
:102380000B4403F516731B78012B2ED1BB69002B70
:102390002BDABB6903F480327B68D3F8D43403F0C2
:1023A00001039A4221D179687A6A1346DB0013440B
:1023B0009B000B4403F2572301221A703B6A9B696E
:1023C00043F080023B6A9A613B6A5B6903F08003D9
:1023D000002B0AD1FB6903F500635B68FA6902F51B
:1023E000006243F40073536008E07B6A01337B6250
:1023F0007B681B791A467B6A9342B3D37B681B6860
:102400005A697B681B6802F400125A617B681B687A
:10241000184606F09BF8034603F08043B3F1804F63
:102420000AD1786807F09CFE7B681B685A697B6854
:102430001B6802F080425A617B681B68184606F0F0
:1024400085F8034603F00403042B15D17B681B6851
:102450005B68BB61BB6903F00403002B02D07868A2
:1024600007F08CFE7B681B6859687B681B68BA693B
:102470000A435A6000E000BF3437BD4690BD80B5C6
:1024800082B000AF78600B46FB707B6893F89434A1
:10249000012B01D1022312E07B68012283F89424EE
:1024A0007B68FA785A747B681B68FA78114618467C
:1024B00006F026F87B68002283F89424002318464F
:1024C0000837BD4680BD80B584B000AF786008464F
:1024D00011461A460346FB700B463B801346BB7001
:1024E0000023FB7297F90330002B0FDAFB7803F01F
:1024F0000F021346DB0013449B0010337A68134429
:102500000433FB60FB6801225A700FE0FB7803F094
:102510000F021346DB0013449B0003F514737A6823
:1025200013440433FB60FB6800225A70FB7803F00D
:102530000F03DAB2FB681A703B88C3F30A02FB6828
:102540009A60FB68BA781A71FB685B78002B04D03C
:10255000FB681B789AB2FB685A83BB78022B02D1C6
:10256000FB6800225A717B6893F89434012B01D1E7
:1025700002230EE07B68012283F894247B681B68A9
:10258000F968184605F083FA7B68002283F89424E2
:10259000FB7A18461037BD4680BD80B586B000AFC7
:1025A000F8607A603B600B46FB72FB7A03F00F0227
:1025B0001346DB0013449B0003F51473FA681344BD
:1025C00004337B617B697A68DA607B693A681A61F7
:1025D0007B6900225A617B6900225A70FB7A03F002
:1025E0000F03DAB27B691A70FB689B79012B02D169
:1025F0007A687B69DA61FB681868FB689B791A4620
:10260000796905F0CBFA002318461837BD4680BD1E
:1026100080B586B000AFF8607A603B600B46FB7215
:10262000FB7A03F00F021346DB0013449B001033C8
:10263000FA68134404337B617B697A68DA607B69EA
:102640003A681A617B6900225A617B6901225A70DB
:10265000FB7A03F00F03DAB27B691A70FB689B798F
:10266000012B02D17A687B69DA61FB681868FB6824
:102670009B791A46796905F091FA002318461837B4
:10268000BD4680BD80B584B000AF78600B46FB705E
:10269000FB7803F00F037A681279934201D9012382
:1026A0004FE097F90330002B0FDAFB7803F00F02AD
:1026B0001346DB0013449B0010337A681344043341
:1026C000FB60FB6801225A700DE0FA781346DB00CC
:1026D00013449B0003F514737A6813440433FB60BE
:1026E000FB6800225A70FB6801229A70FB7803F0A5
:1026F0000F03DAB2FB681A707B6893F89434012BED
:1027000001D102231DE07B68012283F894247B68B9
:102710001B68F968184605F01FFEFB7803F00F03ED
:10272000002B09D17B6818687B6899797B6803F274
:102730009C431A4605F0CEFF7B68002283F8942460
:10274000002318461037BD4680BD80B584B000AF69
:1027500078600B46FB70FB7803F00F037A68127900
:10276000934201D9012342E097F90330002B0FDA9D
:10277000FB7803F00F021346DB0013449B00103379
:102780007A6813440433FB60FB6801225A700FE03F
:10279000FB7803F00F021346DB0013449B0003F5A4
:1027A00014737A6813440433FB60FB6800225A7088
:1027B000FB6800229A70FB7803F00F03DAB2FB6823
:1027C0001A707B6893F89434012B01D102230EE038
:1027D0007B68012283F894247B681B68F96818469B
:1027E00005F028FE7B68002283F894240023184615
:1027F0001037BD4680BD80B584B000AF78600B4611
:10280000FB7097F90330002B0CDAFB7803F00F0212
:102810001346DB0013449B0010337A6813440433DF
:10282000FB600CE0FB7803F00F021346DB0013445F
:102830009B0003F514737A6813440433FB607B68D0
:102840001B68F968184605F047FC0346FB72FB7AE3
:1028500018461037BD4680BD80B58AB002AF78609B
:1028600039607B681B687B617B693B613A68134612
:10287000DB0013449B0010337A6813440433FB607D
:10288000FB685A69FB681B699A4201D901236BE016
:10289000FB681A69FB685B69D31AFB61FB689B687C
:1028A000FA699A4202D9FB689B68FB61FB690333B2
:1028B0009B08BB612AE0FB681A69FB685B69D31A55
:1028C000FB61FB689B68FA699A4202D9FB689B68C6
:1028D000FB61FB6903339B08BB61FB68D9683B68FC
:1028E000DAB2FB6998B27B689B79009303467869FA
:1028F00005F09CFCFB68DA68FB691A44FB68DA6047
:10290000FB685A69FB691A44FB685A613B685A01C3
:102910003B69134403F510639B699BB2BA699A4201
:1029200009D8FB685A69FB681B699A4203D2FB68A5
:102930001B69002BBFD1FB681A69FB685B699A426F
:1029400011D83B6803F00F03012202FA03F3BB60C6
:102950003B6903F500635A6BBB68DB43396901F5DA
:10296000006113404B63002318462037BD4680BDED
:1029700080B588B000AF786039607B681B68FB6108
:10298000FB69BB61FB693C3304331B687B613B68BB
:102990005A01BB69134403F530639B683B617B6854
:1029A0009B79012B7BD13B6903F00803002B15D0E9
:1029B0007B69614A934240F2B9803B6903F400436A
:1029C000002B00F0B3803B685A01BB69134403F548
:1029D00030631A464FF400439360A7E03B6903F06D
:1029E0002003002B09D03B685A01BB69134403F54F
:1029F00030631A462023936098E03B6903F0280374
:102A0000002B40F093807B694B4A93420FD93B697E
:102A100003F40043002B0AD03B685A01BB691344FE
:102A200003F530631A464FF4004393607EE03A6842
:102A30001346DB0013449B0003F514737A681344B8
:102A40000433FB60FB681A6A3B685901BB690B449D
:102A500003F530631B69C3F31203D21AFB685A6192
:102A60003B68002B14D1FB681B69002B09D17B68E4
:102A700018687B6803F29C431A46012105F02AFE80
:102A800006E0FB68DA68FB685B691A44FB68DA6099
:102A90003B68DBB21946786807F09EFA46E07B692E
:102AA000264A934224D13B6903F40043002B0AD009
:102AB0003B685A01BB69134403F530631A464FF46F
:102AC0000043936032E03B6903F02003002B08D001
:102AD0003B685A01BB69134403F530631A4620234F
:102AE00093603B68DBB21946786807F075FA1DE021
:102AF0003B68002B14D179683A681346DB00134415
:102B00009B000B4403F519731B68002B08D17B68ED
:102B100018687B6803F29C431A46002105F0DAFD31
:102B20003B68DBB21946786807F056FA002318466E
:102B30002037BD4680BD00BF0A30544F0A31544F84
:102B400080B586B000AF786039607B681B687B61B8
:102B50007B693B617B693C3304331B68FB603B68EA
:102B60005A013B69134403F530639B68BB60FB6803
:102B7000154A93420ED9BB6803F40043002B09D0D9
:102B80003B685A013B69134403F530631A464FF41E
:102B900000439360786807F00DFAFB680A4A934295
:102BA0000CD97B689B79012B08D17B6818687B68FE
:102BB00003F29C431A46012105F08CFD00231846C0
:102BC0001837BD4680BD00BF0A30544F80B483B073
:102BD00000AF78600B46FB7000BF0C37BD465DF858
:102BE000047B704780B584B000AF78607B68002BB1
:102BF00001D10123EDE07B6893F82030DBB2002B9C
:102C000002D17868FEF78CFA7B681B681A687B68CB
:102C10001B6842F001021A6002F0B4FAF86012E098
:102C200002F0B0FA0246FB68D31A0A2B0BD97B6874
:102C30005B6A43F400327B685A627B68052283F842
:102C400020200123C5E07B681B685B6803F001035B
:102C5000002BE5D07B681B681A687B681B6822F034
:102C600002021A6002F08EFAF86012E002F08AFAAC
:102C70000246FB68D31A0A2B0BD97B685B6A43F4C4
:102C800000327B685A627B68052283F8202001238A
:102C90009FE07B681B685B6803F00203002BE5D1B3
:102CA0007B681B7E012B08D17B681B681A687B68D8
:102CB0001B6842F080021A6007E07B681B681A6894
:102CC0007B681B6822F080021A607B685B7E012BA8
:102CD00008D17B681B681A687B681B6842F0400259
:102CE0001A6007E07B681B681A687B681B6822F023
:102CF00040021A607B689B7E012B08D17B681B68B1
:102D00001A687B681B6842F020021A6007E07B6843
:102D10001B681A687B681B6822F020021A607B68B7
:102D2000DB7E012B08D17B681B681A687B681B68F7
:102D300022F010021A6007E07B681B681A687B6843
:102D40001B6842F010021A607B681B7F012B08D1C0
:102D50007B681B681A687B681B6842F008021A606F
:102D600007E07B681B681A687B681B6822F0080212
:102D70001A607B685B7F012B08D17B681B681A682F
:102D80007B681B6842F004021A6007E07B681B68DE
:102D90001A687B681B6822F004021A607B689A68D4
:102DA0007B68DB681A437B681B691A437B685B6935
:102DB00042EA03017B685B685A1E7B681B680A4312
:102DC000DA617B6800225A627B68012283F8202046
:102DD000002318461037BD4680BD000080B487B080
:102DE00000AF786039607B681B687B617B6893F813
:102DF0002030FB74FB7C012B03D0FB7C022B40F0CA
:102E0000BE80654B7B617B69D3F8003243F00102E1
:102E10007B69C3F800227B69D3F8003223F47C522B
:102E20007B69C3F800227B69D3F800223B685B6AA8
:102E30001B021A437B69C3F800223B685B6903F0FD
:102E40001F03012202FA03F3FB607B69D3F81C2203
:102E5000FB68DB431A407B69C3F81C223B68DB69D3
:102E6000002B23D17B69D3F80C22FB68DB431A408B
:102E70007B69C3F80C223B68DB6819043B685B681C
:102E80009BB23A68526919437B69483243F8321061
:102E90003B689B6819043B681B689AB23B685B6996
:102EA0000A4379694833DB000B445A603B68DB69AD
:102EB000012B22D17B69D3F80C22FB681A437B6972
:102EC000C3F80C223B681B6819043B685B689BB223
:102ED0003A68526919437B69483243F832103B68BB
:102EE0009B6819043B68DB689AB23B685B690A43DC
:102EF00079694833DB000B445A603B689B69002BBF
:102F000009D17B69D3F80422FB68DB431A407B6953
:102F1000C3F8042207E07B69D3F80422FB681A4354
:102F20007B69C3F804223B681B69002B09D17B69CC
:102F3000D3F81422FB68DB431A407B69C3F81422E0
:102F400007E07B69D3F81422FB681A437B69C3F856
:102F500014223B681B6A012B07D17B69D3F81C2222
:102F6000FB681A437B69C3F81C227B69D3F80032E3
:102F700023F001027B69C3F80022002306E07B688E
:102F80005B6A43F480227B685A62012318461C372F
:102F9000BD465DF8047B70470064004080B584B096
:102FA00000AF78607B6893F82030DBB2012B2ED124
:102FB0007B68022283F820207B681B681A687B6884
:102FC0001B6822F001021A6002F0DCF8F86012E0DF
:102FD00002F0D8F80246FB68D31A0A2B0BD97B689B
:102FE0005B6A43F400327B685A627B68052283F88F
:102FF0002020012312E07B681B685B6803F001035B
:10300000002BE5D17B6800225A62002306E07B6832
:103010005B6A43F400227B685A620123184610372A
:10302000BD4680BD80B489B000AFF860B9607A60F9
:103030003B60FB6893F82030FB77FB681B689B685C
:10304000BB61FB7F012B03D0FB7F022B40F0AD80E7
:10305000BB6903F08063002B0AD1BB6903F00063F6
:10306000002B05D1BB6903F08053002B00F0958045
:10307000BB691B0E03F003037B6101227B699A404D
:103080003B681A60BB689B68002B0DD1BB681B684E
:103090005A05BB68DB68F96809681A437B6918330D
:1030A0001B010B441A600FE0BB685B68DA00BB6869
:1030B0009B681A43BB68DB68F96809681A437B6937
:1030C00018331B010B441A60FB681968BB681A6946
:1030D0007B6918331B010B4404331A60BB681B7DEA
:1030E000012B11D1FB681A687B6918331B0113444B
:1030F00004331B68FA68116843F480727B691833E3
:103100001B010B4404331A607B6807331B781A06D3
:103110007B6806331B781B041A437B6805331B78D6
:103120001B0213437A68043212781046FA68116859
:1031300043EA00027B691B010B4403F5C6731A6066
:103140007B6803331B781A067B6802331B781B04E9
:103150001A437B6801331B781B0213437A68127889
:103160001046FA68116843EA00027B691B010B44B0
:1031700003F5C4731A60FB681A687B6918331B0176
:1031800013441B68FA68116843F001027B69183325
:103190001B010B441A6000230EE0FB685B6A43F4DA
:1031A0000012FB685A62012306E0FB685B6A43F485
:1031B0008022FB685A62012318462437BD465DF819
:1031C000047B704780B485B000AF78600023FB605B
:1031D0007B6893F82030FB72FB7A012B02D0FB7ADC
:1031E000022B1DD17B681B689B6803F08063002B5A
:1031F00002D0FB680133FB607B681B689B6803F0AF
:103200000063002B02D0FB680133FB607B681B6806
:103210009B6803F08053002B02D0FB680133FB60F6
:10322000FB6818461437BD465DF8047B704780B4D0
:1032300087B000AFF860B9607A603B60FB6893F8D4
:103240002030FB75FB7D012B03D0FB7D022B40F072
:103250000381BB68002B0ED1FB681B68DB6803F0A1
:103260000303002B16D1FB685B6A43F40012FB6872
:103270005A620123F7E0FB681B681B6903F0030334
:10328000002B07D1FB685B6A43F40012FB685A62AB
:103290000123E8E0FB681A68BB681B331B01134479
:1032A0001B6803F004027B689A607B689B68002BB4
:1032B0000CD1FB681A68BB681B331B0113441B68E5
:1032C0005B0DC3F30A027B681A600BE0FB681A68A7
:1032D000BB681B331B0113441B68DB0823F06042EF
:1032E0007B685A60FB681A68BB681B331B01134478
:1032F0001B6803F002027B68DA60FB681A68BB682F
:103300001B331B01134404331B6803F00803002B19
:1033100003D07B6808221A610BE0FB681A68BB685F
:103320001B331B01134404331B6803F00F027B683B
:103330001A61FB681A68BB681B331B011344043312
:103340001B681B0ADAB27B689A61FB681A68BB6863
:103350001B331B01134404331B681B0C9AB27B689C
:103360005A61FB681A68BB681B01134403F5DC73E0
:103370001B68DAB23B681A70FB681A68BB681B01ED
:10338000134403F5DC731B681A0A3B680133D2B29D
:103390001A70FB681A68BB681B01134403F5DC73E1
:1033A0001B681A0C3B680233D2B21A70FB681A68A9
:1033B000BB681B01134403F5DC731B681A0E3B68E2
:1033C0000333D2B21A70FB681A68BB681B0113443E
:1033D00003F5DE731A683B680433D2B21A70FB68D7
:1033E0001A68BB681B01134403F5DE731B681A0AD5
:1033F0003B680533D2B21A70FB681A68BB681B01C0
:10340000134403F5DE731B681A0C3B680633D2B213
:103410001A70FB681A68BB681B01134403F5DE735E
:103420001B681A0E3B680733D2B21A70BB68002BB8
:1034300008D1FB681B68DA68FB681B6842F0200251
:10344000DA6007E0FB681B681A69FB681B6842F0DA
:1034500020021A61002306E0FB685B6A43F48022C5
:10346000FB685A62012318461C37BD465DF8047B91
:10347000704780B485B000AF786039600023FB608E
:103480007B6893F82030FB72FB7A012B02D0FB7A29
:10349000022B0FD13B68002B06D17B681B68DB68D1
:1034A00003F00303FB6005E07B681B681B6903F006
:1034B0000303FB60FB6818461437BD465DF8047BC8
:1034C000704780B485B000AF786039607B6893F84E
:1034D0002030FB73FB7B012B02D0FB7B022B09D13D
:1034E0007B681B6859697B681B683A680A435A61A4
:1034F000002306E07B685B6A43F480227B685A62A3
:10350000012318461437BD465DF8047B704780B52B
:103510008AB000AF786000237B627B681B685B69C0
:103520003B627B681B685B68FB617B681B689B6810
:10353000BB617B681B68DB687B617B681B681B6900
:103540003B617B681B689B69FB603B6A03F001037E
:10355000002B7CD0BB6903F00103002B23D07B68D8
:103560001B6801229A60BB6903F00203002B03D0A1
:10357000786800F083F916E0BB6903F00403002BC0
:1035800004D07B6A43F400637B620CE0BB6903F008
:103590000803002B04D07B6A43F480537B6202E073
:1035A000786800F089F9BB6903F48073002B24D09C
:1035B0007B681B684FF480729A60BB6903F40073E8
:1035C000002B03D0786800F063F916E0BB6903F4C0
:1035D0008063002B04D07B6A43F400537B620CE0D1
:1035E000BB6903F40063002B04D07B6A43F480437F
:1035F0007B6202E0786800F069F9BB6903F480330C
:10360000002B24D07B681B684FF480329A60BB6922
:1036100003F40033002B03D0786800F043F916E080
:10362000BB6903F48023002B04D07B6A43F400437E
:103630007B620CE0BB6903F40023002B04D07B6A9F
:1036400043F480337B6202E0786800F049F93B6A1A
:1036500003F00803002B0CD07B6903F01003002B50
:1036600007D07B6A43F400737B627B681B6810227F
:10367000DA603B6A03F00403002B0BD07B6903F094
:103680000803002B06D07B681B680822DA60786884
:1036900000F030F93B6A03F00203002B09D07B688D
:1036A0001B68DB6803F00303002B02D0786807F087
:1036B0001FFB3B6A03F04003002B0CD03B6903F077
:1036C0001003002B07D07B6A43F480637B627B6826
:1036D0001B6810221A613B6A03F02003002B0BD0F9
:1036E0003B6903F00803002B06D07B681B680822A7
:1036F0001A61786800F008F93B6A03F01003002BA8
:1037000009D07B681B681B6903F00303002B02D000
:10371000786807F0F9FA3B6A03F40033002B0BD00A
:10372000FB6903F01003002B06D07B681B68102296
:103730005A60786800F0F2F83B6A03F48033002B9B
:103740000BD0FB6903F00803002B06D07B681B68D5
:1037500008225A60786800F0EBF83B6A03F40043F3
:10376000002B7BD0FB6903F00403002B72D03B6A73
:1037700003F48073002B08D0FB6803F00103002BD7
:1037800003D07B6A43F001037B623B6A03F400735E
:10379000002B08D0FB6803F00203002B03D07B6AE8
:1037A00043F002037B623B6A03F48063002B08D082
:1037B000FB6803F00403002B03D07B6A43F004038F
:1037C0007B623B6A03F40063002B43D0FB6803F089
:1037D0007003002B3ED0FB6803F07003602B2BD0EE
:1037E000602B2ED8502B22D0502B2AD8402B19D00A
:1037F000402B26D8302B10D0302B22D8102B02D0C3
:10380000202B05D01DE07B6A43F008037B6219E0A2
:103810007B6A43F010037B6214E07B6A43F0200371
:103820007B620FE07B6A43F040037B620AE07B6AC5
:1038300043F080037B6205E07B6A43F480737B6224
:1038400000E000BF7B681B689A697B681B6822F0F8
:1038500070029A617B681B6804225A607B6A002BA5
:1038600008D07B685A6A7B6A1A437B685A62786818
:1038700000F068F800BF2837BD4680BD80B483B033
:1038800000AF786000BF0C37BD465DF8047B704721
:1038900080B483B000AF786000BF0C37BD465DF8E0
:1038A000047B704780B483B000AF786000BF0C37F2
:1038B000BD465DF8047B704780B483B000AF78608C
:1038C00000BF0C37BD465DF8047B704780B483B001
:1038D00000AF786000BF0C37BD465DF8047B7047D1
:1038E00080B483B000AF786000BF0C37BD465DF890
:1038F000047B704780B483B000AF786000BF0C37A2
:10390000BD465DF8047B704780B483B000AF78603B
:1039100000BF0C37BD465DF8047B704780B483B0B0
:1039200000AF786000BF0C37BD465DF8047B704780
:1039300080B483B000AF786000BF0C37BD465DF83F
:10394000047B704780B483B000AF786000BF0C3751
:10395000BD465DF8047B704780B586B000AF7860E7
:103960007B68002B01D1012367E27B681B6803F0B1
:103970000103002B75D0884B9B6803F00C03042BCC
:103980000CD0854B9B6803F00C03082B12D1824BA3
:103990005B6803F48003B3F5800F0BD17E4B1B688B
:1039A00003F40033002B5BD07B685B68002B57D19E
:1039B000012342E27B685B68B3F5803F06D1764B1A
:1039C0001B68754A43F4803313601DE07B685B68B5
:1039D000B3F5A02F0CD1704B1B686F4A43F48023C2
:1039E00013606D4B1B686C4A43F4803313600BE02B
:1039F000694B1B68684A23F480331360664B1B686D
:103A0000654A23F4802313607B685B68002B13D026
:103A100001F0B8FB386108E001F0B4FB02463B69F5
:103A2000D31A642B01D9032307E25B4B1B6803F411
:103A30000033002BF0D014E001F0A4FB386108E063
:103A400001F0A0FB02463B69D31A642B01D9032382
:103A5000F3E1514B1B6803F40033002BF0D100E07D
:103A600000BF7B681B6803F00203002B63D04A4B46
:103A70009B6803F00C03002B0BD0474B9B6803F0B3
:103A80000C03082B1CD1444B5B6803F48003002B10
:103A900016D1414B1B6803F00203002B05D07B6855
:103AA000DB68012B01D00123C7E13B4B1B6823F0EE
:103AB000F8027B681B69DB00374913430B603AE06F
:103AC0007B68DB68002B20D0344B01221A6001F0A8
:103AD00059FB386108E001F055FB02463B69D31AF7
:103AE000022B01D90323A8E12B4B1B6803F002032F
:103AF000002BF0D0284B1B6823F0F8027B681B6971
:103B0000DB00254913430B6015E0244B00221A60AB
:103B100001F038FB386108E001F034FB02463B69F4
:103B2000D31A022B01D9032387E11B4B1B6803F037
:103B30000203002BF0D17B681B6803F00803002B05
:103B400036D07B685B69002B16D0154B01221A60BA
:103B500001F018FB386108E001F014FB02463B69F4
:103B6000D31A022B01D9032367E10B4B5B6F03F0E0
:103B70000203002BF0D01BE0094B00221A6001F079
:103B800001FB38610EE001F0FDFA02463B69D31AF1
:103B9000022B07D9032350E10038024000004742BE
:103BA000800E4742884B5B6F03F00203002BEAD183
:103BB0007B681B6803F00403002B00F09780002350
:103BC000FB75814B1B6C03F08053002B0FD100233E
:103BD000BB607D4B1B6C7C4A43F0805313647A4B73
:103BE0001B6C03F08053BB60BB680123FB75774BF4
:103BF0001B6803F48073002B18D1744B1B68734A45
:103C000043F48073136001F0BDFA386108E001F0FD
:103C1000B9FA02463B69D31A022B01D903230CE1FE
:103C20006A4B1B6803F48073002BF0D07B689B68A1
:103C3000012B06D1644B1B6F634A43F001031367EA
:103C40001CE07B689B68052B0CD15F4B1B6F5E4AA9
:103C500043F0040313675C4B1B6F5B4A43F00103A3
:103C600013670BE0584B1B6F574A23F00103136790
:103C7000554B1B6F544A23F0040313677B689B6802
:103C8000002B15D001F07EFA38610AE001F07AFAD3
:103C900002463B69D31A41F28832934201D9032389
:103CA000CBE0494B1B6F03F00203002BEED014E076
:103CB00001F068FA38610AE001F064FA02463B69F3
:103CC000D31A41F28832934201D90323B5E03E4B27
:103CD0001B6F03F00203002BEED1FB7D012B05D1FE
:103CE000394B1B6C384A23F0805313647B689B6903
:103CF000002B00F0A180344B9B6803F00C03082BD1
:103D00005CD07B689B69022B41D1314B00221A6049
:103D100001F038FA386108E001F034FA02463B69F4
:103D2000D31A022B01D9032387E0274B1B6803F02A
:103D30000073002BF0D17B68DA697B681B6A1A4339
:103D40007B685B6A9B011A437B689B6A5B08013B4B
:103D50001B041A437B68DB6A1B061B4913434B6039
:103D60001B4B01221A6001F00DFA386108E001F0E6
:103D700009FA02463B69D31A022B01D903235CE0FE
:103D8000114B1B6803F00073002BF0D054E0104B74
:103D900000221A6001F0F6F9386108E001F0F2F94A
:103DA00002463B69D31A022B01D9032345E0064B97
:103DB0001B6803F00073002BF0D13DE07B689B692A
:103DC000012B07D1012338E0003802400070004089
:103DD000600047421B4B5B68FB607B689B69012B63
:103DE00028D0FB6803F480027B68DB699A4221D10A
:103DF000FB6803F03F027B681B6A9A421AD1FA689B
:103E000047F6C07313407A68526A9201934211D107
:103E1000FB6803F440327B689B6A5B08013B1B0430
:103E20009A4207D1FB6803F070627B68DB6A1B066D
:103E30009A4201D0012300E0002318461837BD46FE
:103E400080BD00BF0038024080B584B000AF78600C
:103E500039607B68002B01D10123CCE0684B1B68E3
:103E600003F007033A689A420CD9654B3A68D2B21C
:103E70001A70634B1B6803F007033A689A4201D03B
:103E80000123B8E07B681B6803F00203002B20D0FD
:103E90007B681B6803F00403002B05D0594B9B681B
:103EA000584A43F4E05393607B681B6803F00803AF
:103EB000002B05D0534B9B68524A43F460439360F8
:103EC000504B9B6823F0F0027B689B684D4913437D
:103ED0008B607B681B6803F00103002B44D07B6878
:103EE0005B68012B07D1474B1B6803F40033002BA1
:103EF00019D101237FE07B685B68022B03D07B68CC
:103F00005B68032B07D13F4B1B6803F00073002B4A
:103F100009D101236FE03B4B1B6803F00203002B28
:103F200001D1012367E0374B9B6823F003027B68D4
:103F30005B68344913438B6001F024F9F8600AE0B0
:103F400001F020F90246FB68D31A41F2883293420D
:103F500001D903234FE02B4B9B6803F00C027B68D5
:103F60005B689B009A42EBD1254B1B6803F007036B
:103F70003A689A420CD2224B3A68D2B21A70204B5D
:103F80001B6803F007033A689A4201D0012332E02C
:103F90007B681B6803F00403002B08D0194B9B6857
:103FA00023F4E0527B68DB68164913438B607B681F
:103FB0001B6803F00803002B09D0124B9B6823F405
:103FC00060427B681B69DB000E4913438B6000F085
:103FD00021F802460B4B9B681B0903F00F030A49AB
:103FE000CB5C22FA03F3094A1360094B1B6818469D
:103FF000FDF730FD002318461037BD4680BD00BFD9
:10400000003C02400038024044C400080800002080
:10401000000000202DE9B04F94B000AF00237B6476
:104020000023FB6400233B640023BB64794B9B6843
:1040300003F00C03082B0DD0082B00F2E180002BBD
:1040400002D0042B03D0DBE0734BBB64DBE0734B8B
:10405000BB64D8E06F4B5B6803F03F037B646D4B40
:104060005B6803F48003002B63D06A4B5B689B0999
:104070000022BB63FA63BB6BC3F308033B630023FB
:104080007B63D7E90C4522462B464FF000004FF0EA
:104090000001590141EAD261500102460B46214616
:1040A000511A3961294663EB01037B614FF000022D
:1040B0004FF00003D7E904AB59468B01514643EA60
:1040C000916351468A015146B2EB0108594663EBB0
:1040D00001094FF000024FF000034FEAC90343EA21
:1040E00058734FEAC80290469946234618EB0303DB
:1040F000BB602B4649EB0303FB604FF000024FF01F
:104100000003D7E9024529464B02214643EAD15331
:1041100021464A02104619467B6C0022BB62FA62B5
:10412000D7E90A23FCF772FC02460B461346FB64F0
:1041300058E0384B5B689B09002218461146C0F3D3
:1041400008033B6200237B62D7E9088942464B465D
:104150004FF000004FF00001590141EAD2615001D7
:1041600002460B464146B2EB010A494663EB010B9E
:104170004FF000024FF000034FEA8B1343EA9A63BB
:104180004FEA8A12B2EB0A0463EB0B054FF0000210
:104190004FF00003EB0043EA5473E20014461D465F
:1041A0004346E3183B604B4645EB03037B604FF00F
:1041B00000024FF00003D7E9004529468B02214653
:1041C00043EA915321468A02104619467B6C00222D
:1041D000BB61FA61D7E90623FCF718FC02460B46DF
:1041E0001346FB640B4B5B681B0C03F003030133AA
:1041F0005B003B64FA6C3B6CB2FBF3F3BB6402E024
:10420000054BBB6400BFBB6C18465037BD46BDE8CC
:10421000B08F00BF003802400024F40000127A0082
:1042200080B400AF034B1B681846BD465DF8047BA5
:10423000704700BF0800002080B500AFFFF7F0FF17
:104240000246054B9B689B0A03F007030349CB5CBE
:1042500022FA03F3184680BD0038024054C4000817
:1042600080B500AFFFF7DCFF0246054B9B685B0B98
:1042700003F007030349CB5C22FA03F3184680BD21
:104280000038024054C4000880B483B000AF7860A6
:1042900039607B680F221A60124B9B6803F003029F
:1042A0007B685A600F4B9B6803F0F0027B689A6052
:1042B0000C4B9B6803F4E0527B68DA60094B9B6807
:1042C000DB0803F4E0527B681A61074B1B6803F0BC
:1042D00007023B681A6000BF0C37BD465DF8047BDF
:1042E000704700BF00380240003C024080B489B0F3
:1042F00000AF7860396000237B6100233B610023BD
:10430000BB610023FB616BE10122FB6902FA03F34D
:104310007B613B681B687A6913403B613A697B6942
:104320009A4240F05A813B685B6803F00303012B1B
:1043300005D03B685B6803F00303022B30D17B6838
:104340009B68BB61FB695B00032202FA03F3DB435A
:10435000BA691340BB613B68DA68FB695B0002FA2B
:1043600003F3BA691343BB617B68BA699A607B68DF
:104370005B68BB610122FB6902FA03F3DB43BA69A4
:104380001340BB613B685B681B0903F00102FB69DA
:1043900002FA03F3BA691343BB617B68BA695A60D6
:1043A0003B685B6803F00303032B17D07B68DB6873
:1043B000BB61FB695B00032202FA03F3DB43BA69CA
:1043C0001340BB613B689A68FB695B0002FA03F328
:1043D000BA691343BB617B68BA69DA603B685B68A2
:1043E00003F00303022B23D1FB69DA087B68083250
:1043F00053F82230BB61FB6903F007039B000F22D7
:1044000002FA03F3DB43BA691340BB613B681A69E4
:10441000FB6903F007039B0002FA03F3BA69134335
:10442000BB61FB69DA087B680832B96943F822107E
:104430007B681B68BB61FB695B00032202FA03F324
:10444000DB43BA691340BB613B685B6803F003025E
:10445000FB695B0002FA03F3BA691343BB617B6833
:10446000BA691A603B685B6803F44033002B00F0C4
:10447000B4800023FB60604B5B6C5F4A43F4804375
:1044800053645D4B5B6C03F48043FB60FB685B4AE9
:10449000FB699B08023352F82330BB61FB6903F0D0
:1044A00003039B000F2202FA03F3DB43BA691340B4
:1044B000BB617B68524A93422BD07B68514A93423E
:1044C00025D07B68504A93421FD07B684F4A934265
:1044D00019D07B684E4A934213D07B684D4A934271
:1044E0000DD07B684C4A934207D07B684B4A93427D
:1044F00001D107230EE008230CE006230AE0052380
:1045000008E0042306E0032304E0022302E0012381
:1045100000E00023FA6902F0030292009340BA69B6
:104520001343BB613549FB699B080233BA6941F803
:1045300023203B4B9B68BB613B69DB43BA6913405B
:10454000BB613B685B6803F48013002B03D0BA693E
:104550003B691343BB61324ABB699360304BDB68F4
:10456000BB613B69DB43BA691340BB613B685B6875
:1045700003F40013002B03D0BA693B691343BB61FA
:10458000274ABB69D360264B5B68BB613B69DB4351
:10459000BA691340BB613B685B6803F40033002BCE
:1045A00003D0BA693B691343BB611D4ABB695360C1
:1045B0001B4B1B68BB613B69DB43BA691340BB61A2
:1045C0003B685B6803F48033002B03D0BA693B6916
:1045D0001343BB61124ABB691360FB690133FB6182
:1045E000FB690F2B7FF690AE00BF00BF2437BD469E
:1045F0005DF8047B704700BF00380240003801407E
:10460000000002400004024000080240000C02408A
:10461000001002400014024000180240001C02403A
:10462000003C014080B483B000AF78600B467B80D3
:1046300013467B707B78002B03D07A887B689A6165
:1046400003E07B881A047B689A6100BF0C37BD4683
:104650005DF8047B704780B586B000AFF860B96044
:104660007A603B600023FB75FB689B68802B06D15A
:10467000FB684FF480725A650123FB7531E0FB68DB
:1046800093F83430012B01D102232BE0FB68012287
:1046900083F83420FB6893F83530DBB2012B1ED150
:1046A000FB68022283F83520FB681B681A68FB68E8
:1046B0001B6842F480221A60FB681B683A681A6122
:1046C0003B6A7A68B968F86800F010F8FB681B6804
:1046D0001A68FB681B6842F001021A6001E00223BD
:1046E000FB75FB7D18461837BD4680BD80B485B08C
:1046F00000AFF860B9607A603B60FB681B683A689D
:104700005A60FB689B68402B08D1FB681B687A687D
:104710009A60FB681B68BA68DA6007E0FB681B6890
:10472000BA689A60FB681B687A68DA6000BF143761
:10473000BD465DF8047B704780B586B000AF7860F9
:1047400000237B6100F01EFD38617B68002B01D1E6
:10475000012399E07B68022283F835207B680022E0
:1047600083F834207B681B681A687B681B6822F01A
:1047700001021A600FE000F005FD02463B69D31A02
:10478000052B08D97B6820225A657B68032283F8B1
:104790003520032378E07B681B681B6803F0010366
:1047A000002BE8D17B681B681B687B617A69384BFA
:1047B00013407B617B685A687B689B681A437B68FF
:1047C000DB681A437B681B691A437B685B691A4381
:1047D0007B689B691A437B68DB691A437B681B6AA9
:1047E00013437A6913437B617B685B6A042B07D1AF
:1047F0007B68DA6A7B681B6B13437A6913437B61BE
:104800007B681B687A691A607B681B685B697B61DF
:104810007B6923F007037B617B685B6A7A691343DA
:104820007B617B685B6A042B17D17B689B6A7A6922
:1048300013437B617B68DB6A002B0ED0786800F045
:104840000DFB0346002B08D07B6840225A657B682D
:10485000012283F83520012316E07B681B687A6902
:104860005A61786800F0C4FA0346FB607B68DB6D30
:104870003F229A40FB689A607B6800225A657B68F9
:10488000012283F83520002318461837BD4680BD25
:104890003F8010F080B586B000AFF860B9607A60F4
:1048A0003B600023FB75FB689B6D3B61FB6893F8E5
:1048B0003430012B01D1022340E0FB68012283F850
:1048C0003420FB6893F83530DBB2012B2FD1FB6825
:1048D000022283F83520FB6800225A653B687A681B
:1048E000B968F86800F056FAFB68DB6D3F229A4021
:1048F0003B699A60FB681B681A68FB681B6842F09A
:1049000016021A60FB681B6C002B07D0FB681B6843
:104910001A68FB681B6842F008021A60FB681B6893
:104920001A68FB681B6842F001021A6005E0FB6828
:10493000002283F834200223FB75FB7D18461837CC
:10494000BD4680BD80B584B000AF78607B689B6D4C
:10495000FB6000F017FCB8607B6893F83530DBB281
:10496000022B08D07B6880225A657B68002283F87E
:104970003420012352E07B681B681A687B681B683F
:1049800022F016021A607B681B685A697B681B68F4
:1049900022F080025A617B681B6C002B03D17B687C
:1049A0009B6C002B07D07B681B681A687B681B68B0
:1049B00022F008021A607B681B681A687B681B6813
:1049C00022F001021A6013E000F0DCFB0246BB6833
:1049D000D31A052B0CD97B6820225A657B680322E9
:1049E00083F835207B68002283F83420032315E008
:1049F0007B681B681B6803F00103002BE4D17B6814
:104A0000DB6D3F229A40FB689A607B68012283F845
:104A100035207B68002283F83420002318461037A5
:104A2000BD4680BD80B483B000AF78607B6893F8EA
:104A30003530DBB2022B04D07B6880225A6501231B
:104A40000CE07B68052283F835207B681B681A68B8
:104A50007B681B6822F001021A60002318460C379D
:104A6000BD465DF8047B704780B586B000AF7860C6
:104A70000023BB608E4B1B688E4AA2FB03239B0A5C
:104A80007B617B689B6D3B613B691B68FB607B685E
:104A9000DB6D08229A40FB681340002B1AD07B681C
:104AA0001B681B6803F00403002B13D07B681B6892
:104AB0001A687B681B6822F004021A607B68DB6D51
:104AC00008229A403B699A607B685B6D43F0010263
:104AD0007B685A657B68DB6D01229A40FB68134056
:104AE000002B12D07B681B685B6903F08003002BEE
:104AF0000BD07B68DB6D01229A403B699A607B6832
:104B00005B6D43F002027B685A657B68DB6D0422B3
:104B10009A40FB681340002B12D07B681B681B680F
:104B200003F00203002B0BD07B68DB6D04229A405C
:104B30003B699A607B685B6D43F004027B685A6551
:104B40007B68DB6D10229A40FB681340002B43D03A
:104B50007B681B681B6803F00803002B3CD07B6854
:104B6000DB6D10229A403B699A607B681B681B686A
:104B700003F48023002B18D07B681B681B6803F4A8
:104B80000023002B08D17B681B6C002B24D07B6892
:104B90001B6C786898471FE07B689B6C002B1BD0D0
:104BA0007B689B6C7868984716E07B681B681B687D
:104BB00003F48073002B07D17B681B681A687B683D
:104BC0001B6822F008021A607B681B6C002B03D064
:104BD0007B681B6C786898477B68DB6D20229A4065
:104BE000FB681340002B00F08F807B681B681B68FC
:104BF00003F01003002B00F087807B68DB6D202220
:104C00009A403B699A607B6893F83530DBB2052B9C
:104C100036D17B681B681A687B681B6822F0160215
:104C20001A607B681B685A697B681B6822F08002E7
:104C30005A617B681B6C002B03D17B689B6C002B3B
:104C400007D07B681B681A687B681B6822F0080223
:104C50001A607B68DB6D3F229A403B699A607B68F3
:104C6000012283F835207B68002283F834207B689A
:104C70001B6D002B7ED07B681B6D7868984779E0B0
:104C80007B681B681B6803F48023002B1DD07B68A6
:104C90001B681B6803F40023002B0DD17B685B6C41
:104CA000002B31D07B685B6C786898472CE000BFA4
:104CB00008000020B5814E1B7B68DB6B002B23D0E6
:104CC0007B68DB6B786898471EE07B681B681B6815
:104CD00003F48073002B0FD17B681B681A687B6814
:104CE0001B6822F010021A607B68012283F83520CD
:104CF0007B68002283F834207B68DB6B002B03D0B9
:104D00007B68DB6B786898477B685B6D002B32D0E3
:104D10007B685B6D03F00103002B22D07B680522CA
:104D200083F835207B681B681A687B681B6822F053
:104D300001021A60BB680133BB607A699A4207D3EB
:104D40007B681B681B6803F00103002BF2D100E0B5
:104D500000BF7B68012283F835207B68002283F83E
:104D600034207B68DB6C002B05D07B68DB6C7868BB
:104D7000984700E000BF1837BD4680BD80B483B0BF
:104D800000AF78607B685B6D18460C37BD465DF8F8
:104D9000047B704780B485B000AFF860B9607A607A
:104DA0003B60FB681B681A68FB681B6822F4802262
:104DB0001A60FB681B683A685A60FB689B68402B66
:104DC00008D1FB681B687A689A60FB681B68BA6840
:104DD000DA6007E0FB681B68BA689A60FB681B68CA
:104DE0007A68DA6000BF1437BD465DF8047B70470F
:104DF00080B485B000AF78607B681B68DBB2103B85
:104E0000144AA2FB03231B09FB60134AFB681344EB
:104E10001B781A467B68DA65FB68032B09D97B6827
:104E20001B6823F47F7323F003031A1D7B689A65C4
:104E300007E07B681B6823F47F7323F003037A6821
:104E400093657B689B6D18461437BD465DF8047BFF
:104E5000704700BFABAAAAAA3CC4000880B485B0C2
:104E600000AF78600023FB737B689B6ABB607B6844
:104E70009B69002B1FD1BB68032B56D801A252F8A7
:104E800023F000BF954E0008A74E0008954E00087D
:104E90002B4F00087B68DB6A03F08073002B46D041
:104EA0000123FB7343E07B68DB6AB3F1C07F40D131
:104EB0000123FB733DE07B689B69B3F5005F21D163
:104EC000BB68032B37D801A252F823F0DD4E00084F
:104ED000E34E0008DD4E0008F54E00080123FB7389
:104EE00030E07B68DB6A03F08073002B25D0012360
:104EF000FB7322E07B68DB6AB3F1C07F1FD1012323
:104F0000FB731CE0BB68022B03D9BB68032B03D0E7
:104F100018E00123FB7315E07B68DB6A03F0807304
:104F2000002B0ED00123FB730BE000BF0AE000BF93
:104F300008E000BF06E000BF04E000BF02E000BFE1
:104F400000E000BFFB7B18461437BD465DF8047BCC
:104F5000704700BF80B485B000AF78607B6803F015
:104F60000703FB600C4BDB68BB60BA684FF6FF03BE
:104F70001340BB60FB681A02BB68134343F0BF6376
:104F800043F40033BB60044ABB68D36000BF1437EE
:104F9000BD465DF8047B704700ED00E080B400AFD3
:104FA000044BDB681B0A03F007031846BD465DF897
:104FB000047B704700ED00E080B483B000AF03468F
:104FC000FB7197F90730002B0BDBFB7903F01F0215
:104FD000074997F907305B09012000FA02F241F80E
:104FE000232000BF0C37BD465DF8047B704700BF2F
:104FF00000E100E080B483B000AF03463960FB718C
:1050000097F90730002B0ADB3B68DAB20C4997F9B5
:1050100007301201D2B20B4483F800230AE03B6848
:10502000DAB20849FB7903F00F03043B1201D2B254
:105030000B441A7600BF0C37BD465DF8047B704701
:1050400000E100E000ED00E080B489B000AFF8605E
:10505000B9607A60FB6803F00703FB61FB69C3F189
:105060000703042B28BF0423BB61FB690433062B11
:1050700002D9FB69033B00E000237B614FF0FF3264
:10508000BB6902FA03F3DA43BB681A407B699A40B2
:105090004FF0FF317B6901FA03F3D9437B680B4082
:1050A000134318462437BD465DF8047B704780B52E
:1050B00082B000AF78607868FFF74CFF00BF083718
:1050C000BD4680BD80B586B000AF0346B9607A604A
:1050D000FB7300237B61FFF761FF78617A68B96831
:1050E0007869FFF7B1FF024697F90F30114618466D
:1050F000FFF780FF00BF1837BD4680BD80B582B086
:1051000000AF0346FB7197F907301846FFF754FFCD
:1051100000BF0837BD4680BD80B500AF0E4B1B6891
:105120000D4A43F4007313600B4B1B680A4A43F4A7
:1051300080631360084B1B68074A43F48073136055
:105140000320FFF7B4FF0F20FCF784FCFCF756FCAC
:105150000023184680BD00BF003C024080B400AF71
:10516000064B1B781A46064B1B681344044A13600F
:1051700000BFBD465DF8047B704700BF04000020FF
:105180006004002080B400AF034B1B681846BD4686
:105190005DF8047B704700BF6004002080B582B0DA
:1051A00000AF78607B68002B01D1012341E07B6870
:1051B00093F83D30DBB2002B06D17B68002283F8E8
:1051C0003C207868FBF7E8FE7B68022283F83D20EC
:1051D0007B681A687B6804331946104600F09AFB16
:1051E0007B68012283F846207B68012283F83E20F9
:1051F0007B68012283F83F207B68012283F84020EE
:105200007B68012283F841207B68012283F84220D9
:105210007B68012283F843207B68012283F84420C5
:105220007B68012283F845207B68012283F83D20BA
:10523000002318460837BD4680BD000080B485B005
:1052400000AF78607B6893F83D30DBB2012B01D072
:1052500001234EE07B68022283F83D207B681B68B7
:10526000DA687B681B6842F00102DA607B681B68C1
:10527000234A934222D07B681B68B3F1804F1DD034
:105280007B681B681F4A934218D07B681B681E4AC4
:10529000934213D07B681B681C4A93420ED07B68F4
:1052A0001B681B4A934209D07B681B68194A9342CA
:1052B00004D07B681B68184A934211D17B681B6835
:1052C0009B6803F00703FB60FB68062B10D07B682C
:1052D0001B681A687B681B6842F001021A6007E0CD
:1052E0007B681B681A687B681B6842F001021A60C1
:1052F000002318461437BD465DF8047B704700BF95
:10530000000001400004004000080040000C004084
:1053100000040140004001400018004080B582B008
:1053200000AF78607B68002B01D1012341E07B68EE
:1053300093F83D30DBB2002B06D17B68002283F866
:105340003C20786800F039F87B68022283F83D2021
:105350007B681A687B6804331946104600F0DAFA55
:105360007B68012283F846207B68012283F83E2077
:105370007B68012283F83F207B68012283F840206C
:105380007B68012283F841207B68012283F8422058
:105390007B68012283F843207B68012283F8442044
:1053A0007B68012283F845207B68012283F83D2039
:1053B000002318460837BD4680BD80B483B000AFD7
:1053C000786000BF0C37BD465DF8047B704780B540
:1053D00084B000AF78607B681B68DB68FB607B682B
:1053E0001B681B69BB60BB6803F00203002B20D065
:1053F000FB6803F00203002B1BD07B681B686FF077
:1054000002021A617B6801221A777B681B689B691C
:1054100003F00303002B03D0786800F05CFA05E08A
:10542000786800F04EFA786800F05FFA7B68002236
:105430001A77BB6803F00403002B20D0FB6803F04D
:105440000403002B1BD07B681B686FF004021A61F9
:105450007B6802221A777B681B689B6903F44073A0
:10546000002B03D0786800F036FA05E0786800F089
:1054700028FA786800F039FA7B6800221A77BB684E
:1054800003F00803002B20D0FB6803F00803002B77
:105490001BD07B681B686FF008021A617B680422CE
:1054A0001A777B681B68DB6903F00303002B03D0CA
:1054B000786800F010FA05E0786800F002FA786881
:1054C00000F013FA7B6800221A77BB6803F0100320
:1054D000002B20D0FB6803F01003002B1BD07B684F
:1054E0001B686FF010021A617B6808221A777B68CC
:1054F0001B68DB6903F44073002B03D0786800F06D
:10550000EAF905E0786800F0DCF9786800F0EDF978
:105510007B6800221A77BB6803F00103002B0CD0D4
:10552000FB6803F00103002B07D07B681B686FF05A
:1055300001021A61786806F0EDFCBB6803F0800395
:10554000002B0CD0FB6803F08003002B07D07B6896
:105550001B686FF080021A61786800F057FDBB6825
:1055600003F04003002B0CD0FB6803F04003002B3A
:1055700007D07B681B686FF040021A61786800F002
:10558000BEF9BB6803F02003002B0CD0FB6803F0CE
:105590002003002B07D07B681B686FF020021A6184
:1055A000786800F029FD00BF1037BD4680BD0000BF
:1055B00080B586B000AFF860B9607A600023FB75F3
:1055C000FB6893F83C30012B01D10223AEE0FB686D
:1055D000012283F83C207B680C2B00F29F8001A203
:1055E00052F823F0195600081D5700081D570008EF
:1055F0001D570008595600081D5700081D57000880
:105600001D5700089B5600081D5700081D5700082D
:105610001D570008DB560008FB681B68B968184670
:1056200000F024FAFB681B689A69FB681B6842F06B
:1056300008029A61FB681B689A69FB681B6822F084
:1056400004029A61FB681B689969BB681A69FB6868
:105650001B680A439A6164E0FB681B68B9681846D6
:1056600000F074FAFB681B689A69FB681B6842F4D7
:1056700000629A61FB681B689A69FB681B6822F4E8
:1056800080629A61FB681B689969BB681B691A0292
:10569000FB681B680A439A6143E0FB681B68B968B2
:1056A000184600F0C9FAFB681B68DA69FB681B68DA
:1056B00042F00802DA61FB681B68DA69FB681B6864
:1056C00022F00402DA61FB681B68D969BB681A69B9
:1056D000FB681B680A43DA6123E0FB681B68B96852
:1056E000184600F01DFBFB681B68DA69FB681B6845
:1056F00042F40062DA61FB681B68DA69FB681B68C8
:1057000022F48062DA61FB681B68D969BB681B6997
:105710001A02FB681B680A43DA6102E00123FB7589
:1057200000BFFB68002283F83C20FB7D1846183739
:10573000BD4680BD80B584B000AF7860396000237D
:10574000FB737B6893F83C30012B01D10223B4E05A
:105750007B68012283F83C207B68022283F83D208D
:105760007B681B689B68BB60BB6823F07703BB60EA
:10577000BB6823F47F43BB607B681B68BA689A6090
:105780003B681B68B3F5005F3ED0B3F5005F00F2E5
:105790008780B3F5805F00F08680B3F5805F7FD8A7
:1057A000702B1AD0702B7BD8602B50D0602B77D801
:1057B000502B3CD0502B73D8402B58D0402B6FD857
:1057C000302B64D0302B6BD8202B60D0202B67D8A7
:1057D000002B5CD0102B5AD062E07B6818683B68C5
:1057E00099683B685A683B68DB6800F069FB7B6836
:1057F0001B689B68BB60BB6843F07703BB607B683A
:105800001B68BA689A604FE07B6818683B689968C3
:105810003B685A683B68DB6800F052FB7B681B689A
:105820009A687B681B6842F480429A603CE07B681F
:1058300018683B6859683B68DB681A4600F0C6FA8E
:105840007B681B685021184600F01FFB2CE07B682A
:1058500018683B6859683B68DB681A4600F0E5FA4F
:105860007B681B686021184600F00FFB1CE07B681A
:1058700018683B6859683B68DB681A4600F0A6FA6E
:105880007B681B684021184600F0FFFA0CE07B683B
:105890001A683B681B681946104600F0F6FA03E0E8
:1058A0000123FB7300E000BF7B68012283F83D20E9
:1058B0007B68002283F83C20FB7B18461037BD46EE
:1058C00080BD80B483B000AF786000BF0C37BD46A8
:1058D0005DF8047B704780B483B000AF786000BF90
:1058E0000C37BD465DF8047B704780B483B000AFD1
:1058F000786000BF0C37BD465DF8047B704780B40C
:1059000083B000AF786000BF0C37BD465DF8047B04
:105910007047000080B485B000AF786039607B6864
:105920001B68FB607B68464A934213D07B68B3F1E7
:10593000804F0FD07B68434A93420BD07B68424A2A
:10594000934207D07B68414A934203D07B68404A28
:10595000934208D1FB6823F07003FB603B685B68EF
:10596000FA681343FB607B68354A93422BD07B680F
:10597000B3F1804F27D07B68324A934223D07B68B3
:10598000314A93421FD07B68304A93421BD07B68D8
:105990002F4A934217D07B682E4A934213D07B68DC
:1059A0002D4A93420FD07B682C4A93420BD07B68E0
:1059B0002B4A934207D07B682A4A934203D07B68E4
:1059C000294A934208D1FB6823F44073FB603B688B
:1059D000DB68FA681343FB60FB6823F080023B68D6
:1059E0005B691343FB607B68FA681A603B689A68DE
:1059F0007B68DA623B681A687B689A627B68104A47
:105A0000934203D07B68124A934203D13B681A69E0
:105A10007B681A637B6801225A617B681B6903F00B
:105A20000103012B05D17B681B6923F001027B6810
:105A30001A6100BF1437BD465DF8047B704700BF94
:105A4000000001400004004000080040000C00403D
:105A50000004014000400140004401400048014072
:105A600000180040001C00400020004080B487B0B7
:105A700000AF786039607B681B6A7B617B681B6A5A
:105A800023F001027B681A627B685B683B617B687C
:105A90009B69FB60FB6823F07003FB60FB6823F0ED
:105AA0000303FB603B681B68FA681343FB607B6978
:105AB00023F002037B613B689B687A6913437B6137
:105AC0007B68204A934203D07B681F4A93420CD1E3
:105AD0007B6923F008037B613B68DB687A691343C9
