:020000040800F2
:100000000000022065A000085113000853130008E7
:10001000551300085713000859130008000000008A
:10002000000000000000000000000000D15A00089D
:100030005B13000800000000715B0008D55B00083E
:10004000B5A00008B5A00008B5A00008B5A000083C
:10005000B5A00008B5A00008B5A00008B5A000082C
:10006000B5A00008B5A00008B5A00008B5A000081C
:100070005D130008B5A00008B5A00008B5A00008F1
:10008000B5A00008B5A00008B5A000086D130008D1
:100090007D1300088D1300089D130008B5A000080B
:1000A000B5A00008AD130008B5A00008B5A0000871
:1000B000B5A00008B5A00008B5A00008B5A00008CC
:1000C000B5A00008B5A00008B5A00008BD13000841
:1000D000B5A00008B5A00008B5A00008CD13000821
:1000E000B5A00008B5A00008B5A00008B5A000089C
:1000F000B5A00008B5A00008B5A00008B5A000088C
:10010000B5A00008B5A00008B5A00008B5A000087B
:10011000B5A00008B5A00008B5A00008B5A000086B
:10012000DD130008ED130008B5A00008FD1300085A
:10013000B5A0000800000000000000000D14000839
:100140001D1400082D1400083D1400084D1400086B
:10015000B5A000085D140008B5A00008B5A000080F
:10016000B5A00008B5A00008B5A00008B5A000081B
:10017000B5A00008B5A000080000000000000000C5
:08018000B5A00008B5A00008BD
:1001900010B5054C237833B9044B13B10448AFF3C1
:1001A00000800123237010BD90010020000000009A
:1001B000D0A3000808B5034B1BB103490348AFF3B4
:1001C000008008BD0000000094010020D0A30008BA
:1001D00081F0004102E000BF83F0004330B54FEAF8
:1001E00041044FEA430594EA050F08BF90EA020F65
:1001F0001FBF54EA000C55EA020C7FEA645C7FEAF8
:10020000655C00F0E2804FEA5454D4EB5555B8BF1A
:100210006D420CDD2C4480EA020281EA030382EA8B
:10022000000083EA010180EA020281EA0303362D1D
:1002300088BF30BD11F0004F4FEA01314FF4801CF0
:100240004CEA113102D0404261EB410113F0004F02
:100250004FEA03334CEA133302D0524263EB4303B9
:1002600094EA050F00F0A780A4F10104D5F1200E57
:100270000DDB02FA0EFC22FA05F2801841F10001B2
:1002800003FA0EF2801843FA05F359410EE0A5F186
:1002900020050EF1200E012A03FA0EFC28BF4CF0B7
:1002A000020C43FA05F3C01851EBE37101F000456D
:1002B00007D54FF0000EDCF1000C7EEB00006EEB7A
:1002C0000101B1F5801F1BD3B1F5001F0CD3490804
:1002D0005FEA30004FEA3C0C04F101044FEA44525B
:1002E00012F5800F80F09A80BCF1004F08BF5FEAE2
:1002F000500C50F1000041EB045141EA050130BDC2
:100300005FEA4C0C404141EB0101013C28BFB1F5D3
:10031000801FE9D291F0000F04BF01460020B1FA1E
:1003200081F308BF2033A3F10B03B3F120020CDAF1
:100330000C3208DD02F1140CC2F10C0201FA0CF0CF
:1003400021FA02F10CE002F11402D8BFC2F1200C34
:1003500001FA02F120FA0CFCDCBF41EA0C019040EA
:10036000E41AA2BF01EB0451294330BD6FEA040433
:100370001F3C1CDA0C340EDC04F11404C4F120021E
:1003800020FA04F001FA02F340EA030021FA04F330
:1003900045EA030130BDC4F10C04C4F1200220FA87
:1003A00002F001FA04F340EA0300294630BD21FAC5
:1003B00004F0294630BD94F0000F83F4801306BF8B
:1003C00081F480110134013D4EE77FEA645C18BF7F
:1003D0007FEA655C29D094EA050F08BF90EA020F16
:1003E00005D054EA000C04BF1946104630BD91EA0E
:1003F000030F1EBF0021002030BD5FEA545C05D111
:100400004000494128BF41F0004130BD14F580044F
:100410003CBF01F5801130BD01F0004545F0FE41C3
:1004200041F470014FF0000030BD7FEA645C1ABFF8
:10043000194610467FEA655C1CBF0B46024650EA2F
:10044000013406BF52EA033591EA030F41F400215B
:1004500030BD00BF90F0000F04BF0021704730B5E1
:100460004FF4806404F132044FF000054FF00001B6
:1004700050E700BF90F0000F04BF0021704730B577
:100480004FF4806404F1320410F0004548BF40424C
:100490004FF000013EE700BF42004FEAE2014FEAA1
:1004A00031014FEA02701FBF12F07F4393F07F4F7C
:1004B00081F06051704732F07F4208BF704793F07F
:1004C0007F4F04BF41F40021704730B54FF4607492
:1004D00001F0004521F000411CE700BF50EA010295
:1004E00008BF704730B54FF000050AE050EA01023E
:1004F00008BF704730B511F0004502D5404261EBAE
:1005000041014FF4806404F132045FEA915C3FF4EE
:10051000D8AE4FF003025FEADC0C18BF03325FEA8B
:10052000DC0C18BF033202EBDC02C2F1200300FA3C
:1005300003FC20FA02F001FA03FE40EA0E0021FA61
:1005400002F11444BDE600BF70B54FF0FF0C4CF44F
:10055000E06C1CEA11541DBF1CEA135594EA0C0F01
:1005600095EA0C0F00F0DEF82C4481EA030621EA3C
:100570004C5123EA4C5350EA013518BF52EA033577
:1005800041F4801143F4801338D0A0FB02CE4FF029
:100590000005E1FB02E506F00042E0FB03E54FF059
:1005A0000006E1FB03569CF0000F18BF4EF0010E51
:1005B000A4F1FF04B6F5007F64F5407404D25FEA4D
:1005C0004E0E6D4146EB060642EAC62141EA555100
:1005D0004FEAC52040EA5E504FEACE2EB4F1FD0C42
:1005E00088BFBCF5E06F1ED8BEF1004F08BF5FEAC0
:1005F000500E50F1000041EB045170BD06F0004672
:1006000046EA010140EA020081EA0301B4EB5C041E
:10061000C2BFD4EB0C0541EA045170BD41F4801116
:100620004FF0000E013C00F3AB8014F1360FDEBF3B
:10063000002001F0004170BDC4F10004203C35DA17
:100640000C341BDC04F11404C4F1200500FA05F39A
:1006500020FA04F001FA05F240EA020001F000423B
:1006600021F0004110EBD37021FA04F642EB0601B1
:100670005EEA430E08BF20EAD37070BDC4F10C04DB
:10068000C4F1200500FA04F320FA05F001FA04F29F
:1006900040EA020001F0004110EBD37041F100018B
:1006A0005EEA430E08BF20EAD37070BDC4F1200596
:1006B00000FA05F24EEA020E20FA04F301FA05F2FE
:1006C00043EA020321FA04F001F0004121FA04F2A6
:1006D00020EA020000EBD3705EEA430E08BF20EA76
:1006E000D37070BD94F0000F0FD101F000464000B0
:1006F00041EB010111F4801F08BF013CF7D041EA32
:10070000060195F0000F18BF704703F00046520035
:1007100043EB030313F4801F08BF013DF7D043EA06
:100720000603704794EA0C0F0CEA135518BF95EABC
:100730000C0F0CD050EA410618BF52EA4306D1D143
:1007400081EA030101F000414FF0000070BD50EA62
:10075000410606BF1046194652EA430619D094EAEC
:100760000C0F02D150EA013613D195EA0C0F05D1D6
:1007700052EA03361CBF104619460AD181EA03012A
:1007800001F0004141F0FE4141F470014FF00000E2
:1007900070BD41F0FE4141F4780170BD70B54FF07D
:1007A000FF0C4CF4E06C1CEA11541DBF1CEA1355FD
:1007B00094EA0C0F95EA0C0F00F0A7F8A4EB0504DF
:1007C00081EA030E52EA03354FEA013100F08880D6
:1007D0004FEA03334FF0805545EA131343EA12639F
:1007E0004FEA022245EA111545EA10654FEA002654
:1007F0000EF000419D4208BF964244F1FD0404F50D
:10080000407402D25B084FEA3202B61A65EB030568
:100810005B084FEA32024FF480104FF4002CB6EB25
:10082000020E75EB030E22BFB61A754640EA0C00A5
:100830005B084FEA3202B6EB020E75EB030E22BFE5
:10084000B61A754640EA5C005B084FEA3202B6EB26
:10085000020E75EB030E22BFB61A754640EA9C00E5
:100860005B084FEA3202B6EB020E75EB030E22BFB5
:10087000B61A754640EADC0055EA060E18D04FEA73
:10088000051545EA16754FEA06164FEAC30343EA13
:1008900052734FEAC2025FEA1C1CC0D111F4801FE0
:1008A0000BD141EA00014FF000004FF0004CB6E7D9
:1008B00011F4801F04BF01430020B4F1FD0C88BF78
:1008C000BCF5E06F3FF6AFAEB5EB030C04BFB6EB83
:1008D000020C5FEA500C50F1000041EB045170BD76
:1008E0000EF0004E4EEA113114EB5C04C2BFD4EBA3
:1008F0000C0541EA045170BD41F480114FF0000E27
:10090000013C90E645EA060E8DE60CEA135594EAA2
:100910000C0F08BF95EA0C0F3FF43BAF94EA0C0FA5
:100920000AD150EA01347FF434AF95EA0C0F7FF41A
:1009300025AF104619462CE795EA0C0F06D152EA6E
:1009400003353FF4FDAE1046194622E750EA410652
:1009500018BF52EA43067FF4C5AE50EA41047FF463
:100960000DAF52EA43057FF4EBAE12E780F0004092
:1009700002E000BF81F0004142001FBF5FEA410377
:1009800092EA030F7FEA226C7FEA236C6AD04FEA77
:100990001262D2EB1363C1BFD218414048404140BC
:1009A000B8BF5B42192B88BF704710F0004F40F46E
:1009B000000020F07F4018BF404211F0004F41F48A
:1009C000000121F07F4118BF494292EA030F3FD056
:1009D000A2F1010241FA03FC10EB0C00C3F1200369
:1009E00001FA03F100F0004302D5494260EB4000F8
:1009F000B0F5000F13D3B0F1807F06D340084FEA63
:100A0000310102F10102FE2A51D2B1F1004F40EB57
:100A1000C25008BF20F0010040EA030070474900BF
:100A200040EB0000013A28BFB0F5000FEDD2B0FA5C
:100A300080FCACF1080CB2EB0C0200FA0CF0AABF7F
:100A400000EBC25052421843BCBFD040184370471D
:100A500092F0000F81F4000106BF80F40000013223
:100A6000013BB5E74FEA41037FEA226C18BF7FEAFA
:100A7000236C21D092EA030F04D092F0000F08BF3C
:100A80000846704790EA010F1CBF0020704712F023
:100A90007F4F04D1400028BF40F00040704712F162
:100AA00000723CBF00F50000704700F0004343F0C7
:100AB000FE4040F4000070477FEA226216BF0846FD
:100AC0007FEA23630146420206BF5FEA412390EAC0
:100AD000010F40F4800070474FF0000304E000BFB6
:100AE00010F0004348BF40425FEA000C08BF704767
:100AF00043F0964301464FF000001CE050EA01022B
:100B000008BF70474FF000030AE000BF50EA01023F
:100B100008BF704711F0004302D5404261EB41012C
:100B20005FEA010C02BF84460146002043F0B64351
:100B300008BFA3F18053A3F50003BCFA8CF2083A76
:100B4000A3EBC25310DB01FA02FC634400FA02FC7F
:100B5000C2F12002BCF1004F20FA02F243EB020086
:100B600008BF20F00100704702F1200201FA02FCE8
:100B7000C2F1200250EA4C0021FA02F243EB0200DB
:100B800008BF20EADC70704753B94AB9002908BF92
:100B900000281CBF4FF0FF314FF0FF3000F094B938
:100BA000ADF1080C6DE904CE00F026F8DDF804E0A4
:100BB000DDE9022304B07047D0B5FFF76DFC0C4BA4
:100BC000002206460F46FFF7BFFC00F07FF90446FF
:100BD000FFF740FC074B0022FFF7B6FC02460B462E
:100BE00030463946FFF7F8FA00F070F92146D0BDDB
:100BF0000000F03D0000F0412DE9F047089D04465B
:100C00008E46002B4DD18A42944669D9B2FA82F2BF
:100C100052B101FA02F3C2F1200120FA01F10CFAFB
:100C200002FC41EA030E94404FEA1C48210CBEFB33
:100C3000F8F61FFA8CF708FB16E341EA034306FBBC
:100C400007F199420AD91CEB030306F1FF3080F04B
:100C50001F81994240F21C81023E63445B1AA4B298
:100C6000B3FBF8F008FB103344EA034400FB07F73A
:100C7000A7420AD91CEB040400F1FF3380F00A817B
:100C8000A74240F207816444023840EA0640E41B70
:100C900000261DB1D4400023C5E900433146BDE81C
:100CA000F0878B4209D9002D00F0EF800026C5E9BE
:100CB000000130463146BDE8F087B3FA83F6002ED6
:100CC0004AD18B4202D3824200F2F980841A61EB4E
:100CD000030301209E46002DE0D0C5E9004EDDE76C
:100CE00002B9FFDEB2FA82F2002A40F09280A1EB54
:100CF0000C014FEA1C471FFA8CFE0126200CB1FBA9
:100D0000F7F307FB131140EA01410EFB03F08842A1
:100D100008D91CEB010103F1FF3802D2884200F22E
:100D2000CB804346091AA4B2B1FBF7F007FB1011C0
:100D300044EA01440EFB00FEA64508D91CEB04045E
:100D400000F1FF3102D2A64500F2BB800846A4EBB9
:100D50000E0440EA03409CE7C6F12007B34022FAA4
:100D600007FC4CEA030C20FA07F401FA06F31C43D3
:100D7000F9404FEA1C4900FA06F3B1FBF9F8200CE0
:100D80001FFA8CFE09FB181140EA014108FB0EF026
:100D9000884202FA06F20BD91CEB010108F1FF3A76
:100DA00080F08880884240F28580A8F10208614482
:100DB000091AA4B2B1FBF9F009FB101144EA014190
:100DC00000FB0EFE8E4508D91CEB010100F1FF343B
:100DD0006CD28E456AD90238614440EA0840A0FBD3
:100DE0000294A1EB0E01A142C846A64656D353D0A9
:100DF0005DB1B3EB080261EB0E0101FA07F722FACD
:100E000006F3F1401F43C5E9007100263146BDE8F5
:100E1000F087C2F12003D8400CFA02FC21FA03F358
:100E2000914001434FEA1C471FFA8CFEB3FBF7F0D9
:100E300007FB10360B0C43EA064300FB0EF69E42FE
:100E400004FA02F408D91CEB030300F1FF382FD297
:100E50009E422DD9023863449B1B89B2B3FBF7F63F
:100E600007FB163341EA034106FB0EF38B4208D918
:100E70001CEB010106F1FF3816D28B4214D9023E59
:100E80006144C91A46EA004638E72E46284605E777
:100E90000646E3E61846F8E64B45A9D2B9EB020848
:100EA00064EB0C0E0138A3E74646EAE7204694E7D8
:100EB0004046D1E7D0467BE7023B614432E730460B
:100EC00009E76444023842E7704700BF4A0011D284
:100ED00012F5001211D20DD56FF47873B3EB625294
:100EE0000ED44FEAC12343F0004343EA505323FAA0
:100EF00002F070474FF00000704750EA013002D115
:100F00004FF0FF3070474FF0000070472DE9F0417F
:100F10008AB00024059406940794089409940194D7
:100F20002E4B1A6B42F080021A631A6B02F0800299
:100F30000192019A02941A6B42F001021A631A6B31
:100F400002F001020292029A03941A6B42F0040228
:100F50001A631A6B02F004020392039A04941A6B48
:100F600042F002021A631B6B03F002030493049B1A
:100F70001B4F22461021384602F064F9194D2246D3
:100F80000221284602F05EF91023059301240694FD
:100F900007940226089605A9384602F061F8202336
:100FA00005934FF40418CDF81880079405A9384626
:100FB00002F056F80594CDF81880079405A9284644
:100FC00002F04EF8059606940794089605A928465F
:100FD00002F046F80AB0BDE8F08100BF00380240D8
:100FE000000802400004024008B505F027FF012078
:100FF00004F048FBFBE70000034B0360034B0B606E
:1010000080231360704700BFB8030020B8010020A0
:1010100010B596B01B4C0DF13C0CA646BEE80F0077
:10102000ACE80F009EE807008CE8070000210FA83D
:1010300004F0A5FB144B18600DF1200C04F11C0EFC
:10104000BEE80F00ACE80F009EE807008CE8070040
:10105000002108A804F093FB0C4B18600DF1040E5E
:1010600004F1380CBCE80F00AEE80F009CE8070064
:101070008EE80700002101A804F081FB044B1860F2
:1010800016B010BDE8A30008AC010020B00100209C
:10109000B40100200368B3F1804F00D0704782B0E4
:1010A00000230193054B1A6C42F001021A641B6C79
:1010B00003F001030193019B02B070470038024026
:1010C00008B50E480E4B0360032343600023836082
:1010D000C3604FF4102202614FF4001242610376A4
:1010E000012242768276C3760377437701F066F871
:1010F00000B908BD08F076F9FBE700BF1004002036
:101100000064004008B50E480E4B036003234360A3
:1011100000238360C3604FF4102202614FF4001279
:1011200042610376012242768276C3760377437763
:1011300001F044F800B908BD08F054F9FBE700BF1E
:10114000380400200068004010B58AB000230593E1
:1011500006930793089309930368564A934204D071
:10116000554A93424ED00AB010BD544A1368013319
:101170001360012B39D000240194514B1A6B42F0BB
:1011800002021A631B6B03F002030193019B4FF4ED
:1011900040730593022306930323089309230993BD
:1011A00005A9484801F05CFF22460521132002F002
:1011B0003BFA132002F070FA22460521142002F0B7
:1011C00033FA142002F068FA22460521152002F0B5
:1011D0002BFA152002F060FA22460521162002F0B3
:1011E00023FA162002F058FABDE700230093344B8F
:1011F0001A6C42F000721A641B6C03F000730093C7
:10120000009BB8E7002302932D4B1A6C42F08062DA
:101210001A641B6C03F080630293029B274A1368D5
:1012200001331360012B38D000240494244B1A6B33
:1012300042F002021A631B6B03F002030493049B47
:10124000602305930223069303230893092309933C
:1012500005A91C4801F004FF224605213F2002F0A9
:10126000E3F93F2002F018FA22460521402002F05F
:10127000DBF9402002F010FA22460521412002F05D
:10128000D3F9412002F008FA22460521422002F05B
:10129000CBF9422002F000FA65E700230393084BE4
:1012A0001A6C42F000721A641B6C03F00073039313
:1012B000039BB9E700640040006800400C04002074
:1012C000003802400004024010B582B000240094AF
:1012D0001E4B1A6B42F480021A631A6B02F48002EE
:1012E0000092009A01941A6B42F400121A631B6B6D
:1012F00003F400130193019B224605210C2002F008
:1013000093F90C2002F0C8F922460521382002F09A
:101310008BF9382002F0C0F922460521392002F06D
:1013200083F9392002F0B8F9224605213B2002F06A
:101330007BF93B2002F0B0F922460521452002F05E
:1013400073F9452002F0A8F902B010BD0038024040
:10135000FEE7FEE7FEE7FEE7FEE7704708B5024856
:1013600002F060F808BD00BF6004002008B5024824
:1013700001F007FA08BD00BF1004002008B50248BC
:1013800001F0FFF908BD00BF1004002008B50248B5
:1013900001F0F7F908BD00BF1004002008B50248AD
:1013A00001F0EFF908BD00BF1004002008B50248A5
:1013B00002F008FA08BD00BFE006002008B50248A8
:1013C00002F05CFF08BD00BF8806002008B5024897
:1013D00002F0B8FC08BD00BF8005002008B5024837
:1013E00002F020F808BD00BFC805002008B502487B
:1013F00002F018F808BD00BFC004002008B502487C
:1014000002F010F808BD00BF2806002008B5024809
:1014100001F0B7F908BD00BF3804002008B5024844
:1014200001F0AFF908BD00BF3804002008B502483C
:1014300001F0A7F908BD00BF3804002008B5024834
:1014400001F09FF908BD00BF3804002008B502482C
:1014500000F0ABFB08BD00BF6459002008B502488E
:1014600001F0E0FF08BD00BF2005002000B583B0FB
:10147000002200920D4B596C41F480415964596C23
:1014800001F48041009100990192196C41F0805162
:1014900019641B6C03F080530193019B0F216FF0C3
:1014A000010002F0C1F803B05DF804FB003802400F
:1014B00030B589B00546002401941E4B5A6C42F0A9
:1014C00001025A645B6C03F001030193019B02A9C2
:1014D00003A801F0A7FD01F095FD43001648A0FB0D
:1014E00003239B0C013B1548154A026040F2E7328A
:1014F000C260436004618460846102F07FFA044644
:1015000010B1204609B030BD0C4802F013F9044672
:101510000028F6D1192002F0BFF80F2D01D90124BF
:10152000EFE700222946192002F07EF8054B1D60E6
:10153000E7E700BF0038024083DE1B43E0060020DF
:1015400000000140040000202DE9F04383B0D0F8F2
:10155000008001EBC10300EB83039A6A5B6A9A4245
:1015600054D807460C469B1A01EBC10200EB8202DD
:10157000D2699A4200D31A4602F103094FEA990947
:1015800015E006F103094FEA9909BB7904EBC4059C
:1015900007EB8505296A0093B3B2E2B2404603F037
:1015A0003CFA2B6A33442B62AB6A3344AB6208EBE0
:1015B000441303F510639B699BB24B4512D304EBB4
:1015C000C40207EB8202916A536A99420AD24BB174
:1015D0005B1A04EBC40207EB8202D6699E42D0D3A9
:1015E0001E46CEE704EBC40007EB80077A6ABB6AAD
:1015F0009A420FD804F00F040123A340D8F83448CE
:1016000024EA0304C8F83448002000E0012003B0B5
:10161000BDE8F0830020FAE730B583B000287AD027
:101620000446056890F89534C3B1032384F89534D3
:10163000B5F1A04F17D0206802F0A0FF237C8DF8F1
:101640000030231D0ECB206802F0D7FE70B10223BC
:1016500084F895340125284603B030BD80F89434D1
:1016600005F0E2FCE1E70023A371E4E70021206834
:1016700003F0F4FB024608B9034617E0022384F89E
:1016800095340125E7E703EBC30104EB8101012059
:1016900048750B75CB8500200876C861086203EB9E
:1016A000C30104EB810148620133DBB22079984227
:1016B000E9D816E002EBC20304EB8303002183F8B0
:1016C000551283F8542283F85812C3F85C12C3F8F9
:1016D000601202EBC20304EB8303C3F8641201320D
:1016E000D2B29042E6D8237C8DF80030231D0ECB79
:1016F000206802F099FF054620B1022384F8953452
:101700000125A8E700236374012384F89534206839
:1017100003F061FB9FE701259DE7036890F894249F
:10172000012A1AD010B50446012280F89424DA6800
:1017300012F0400F02D0427B012A09D0206802F04B
:1017400017FF206803F039FB002084F8940410BDD3
:101750009A6B42F480329A63F0E7022070470000EF
:1017600070B504460D460068066C00EB411303F5A6
:1017700030639A68A179012911D038498E4256D038
:101780003DB905EBC50304EB8303D3F86432002BAA
:101790005ED0E9B2204605F091FC002070BD12F049
:1017A000080F09D02E498E42F7D912F4004FF4D019
:1017B0004FF400429A60F0E712F0200F02D020228E
:1017C0009A60EAE712F0280FE7D125498E4206D940
:1017D00012F4004F03D04FF400429A60DDE705EBAE
:1017E000C50204EB8202D2F874121B69C3F3120320
:1017F000CB1AC2F868327DB905EBC50204EB820250
:10180000D2F864226AB105EBC50204EB8202D2F879
:1018100060120B44C2F86032E9B2204605F04EFC7B
:10182000BBE704F29C42012103F05AFBF4E712F4F7
:10183000004F03D04FF400429A60AEE712F0200F41
:1018400001D020229A60E9B2204605F037FCA4E7D7
:1018500004F29C42002103F043FB9AE70A31544F03
:101860000A30544F38B5044603681D6C03EB41132E
:10187000D3F8081B0E4A954207D903F5306311F4DB
:10188000004F02D04FF400429A60204605F00EFC53
:10189000074B9D4202D9A379012B01D0002038BD0E
:1018A00004F29C420121206803F01AFBF6E700BF16
:1018B0000A30544F90F89434012B0CD010B50446E4
:1018C000012380F894344174006803F066FA002024
:1018D00084F8940410BD0220704738B505468C4644
:1018E00011F0800F2BD101F00F0E0EEBCE04A400EF
:1018F00004F514740444211D0EEBCE0E00EB8E0E85
:1019000000208EF855020CF00F0C81F800C0C2F3D5
:101910000A028A600B714A780AB1A1F81AC0022B38
:101920001CD095F89434012B1BD0012385F89434F6
:10193000286802F054FF002085F8940438BD01F0B7
:101940000F0000EBC001890010312944043100EB85
:10195000C00005EB800001244475D4E700234B71DF
:10196000DFE70220EAE710B504460A4611F0800FCF
:1019700020D101F00F0000EBC0039B0003F51473AE
:101980002344191D00EBC00004EB8000002380F805
:10199000553202F00F020A7094F89434012B18D0DB
:1019A000012384F89434206802F068FF002084F852
:1019B000940410BD01F00F0000EBC0039B00103336
:1019C0002344191D00EBC00004EB80000123437584
:1019D000DFE70220EDE710B5144601F00F0C0CEB29
:1019E000CC01890001F51471014404310CEBCC0EDB
:1019F00000EB8E0ECEF86022CEF864320023CEF8D3
:101A000068328EF855328EF854C28279012A04D099
:101A1000006803F019F8002010BDCEF87042F7E717
:101A200001F00F0101EBC10100EB8101D1F8680267
:101A3000704710B5144601F00F0C0CEBCC01890077
:101A40001031014404310CEBCC0E00EB8E0ECEF8BD
:101A50002020CEF824300023CEF8283001238EF841
:101A600015308EF814C082799A4204D0006802F0D2
:101A7000EBFF002010BDCEF83040F7E738B501F09D
:101A80000F050279AA4238D304460B4611F0800FA5
:101A90001FD101EBC101890001F51471014404312A
:101AA00003EBC30300EB8303002283F855220123D9
:101AB0008B700D7094F89434012B20D0012384F89E
:101AC0009434206803F00EF985B1002084F8940462
:101AD00038BD05EBC501890010310144043105EB27
:101AE000C50300EB830301225A75E0E704F29C4230
:101AF000A179206803F0F4F9E7E70120E8E7022084
:101B0000E6E701F00F0302799A4230D310B504469C
:101B100011F0800F1ED103EBC301890001F5147190
:101B20000144043103EBC30200EB8202002082F87F
:101B3000550200228A700B7094F89434012B18D04F
:101B4000012384F89434206803F0F9F8002084F825
:101B5000940410BD03EBC30189001031014404312A
:101B600003EBC30200EB820201205075E1E7012084
:101B700070470220EDE708B511F0800F0CD101F09D
:101B80000F0101EBC101890001F514710144043119
:101B9000006802F0E3FE08BD01F00F0101EBC10196
:101BA0008900103101440431F2E72DE9F04F83B090
:101BB00004460568284603F04DF910B103B0BDE8AE
:101BC000F08F0646206803F014F90028F6D005F5DA
:101BD0000067BB68C3F30D23C4F8D434206803F056
:101BE00008F910F0020F04D02268536903F00203D1
:101BF0005361206803F0FDF810F0100F13D0226835
:101C0000936923F010039361D5F8208008F00F0941
:101C1000C8F34343022B4BD0062B6FD02268936945
:101C200043F010039361206803F0E3F810F4002FF1
:101C300076D1206803F0DDF810F4802F40F0E080CA
:101C4000206803F0D6F80028C0F26181206803F014
:101C5000D0F810F4006F09D0BB6813F0010F40F00A
:101C60006E812268536903F400635361206803F0B6
:101C7000C0F810F4805F40F06681206803F0B9F886
:101C800010F4005F40F0B381206803F0B2F810F068
:101C9000080F40F0C481206803F0ABF810F0800F0B
:101CA00000F0D781AB6923F08003AB610126C0E16E
:101CB00047F6F07318EA030FB0D04FEA181B4FEA4B
:101CC000C903019309EBC90A04EB8A0AC8F30A1293
:101CD000DAF86012284602F0DBFFCBF30A0BDAF8E1
:101CE00060325B44CAF86032019B4B4404EB8303CF
:101CF000D3F868325B44CAF868328FE7082204F2EE
:101D00009C41284602F0C4FFC8F30A1809EBC90237
:101D100004EB8202D2F868324344C2F868327DE7AD
:101D2000206803F06AF88046B14635E005EB4913B8
:101D30000122C3F8082B49462046FFF711FD3CE07D
:101D400005EB49130822C3F8082B49462046FFF744
:101D500089FD35E009EBC90304EB830393F857329F
:101D6000012B41D005EB49130222C3F8082B1AF0CE
:101D7000200F04D005EB49132022C3F8082B1AF4D6
:101D8000005F05D005EB49134FF40052C3F8082B50
:101D900009F101094FEA5808B8F1000F3FF449AFC3
:101DA00018F0010FF4D05FFA89FB5946206803F060
:101DB00034F8824610F0010FB8D11AF0080FBFD1E5
:101DC0001AF0100F04D005EB49131022C3F8082BAA
:101DD0001AF0020FCBD06B6913F0800FBAD07B687A
:101DE00043F480637B60B5E709EBC90304EB83032D
:101DF000002283F857225946204605F0AFF9B1E793
:101E0000206803F002F88046B14625E05946204696
:101E100005F060F91AF0080F04D005EB4913082209
:101E2000C3F808291AF0100F04D005EB491310224B
:101E3000C3F808291AF0400F04D005EB49134022DB
:101E4000C3F808291AF0020F40D11AF0800F59D1B7
:101E500009F101094FEA5808B8F1000F3FF4F0AE5C
:101E600018F0010FF4D05FFA89FB5946206802F0A0
:101E7000DDFF824610F0010FCCD009F00F030121E5
:101E800001FA03F27B6B23EA02037B6305EB491340
:101E9000C3F80819A3798B42B8D109EBC90304EB45
:101EA0008303D9691A6A0A441A62B9F1000FADD1E5
:101EB00009EBC90304EB83035B6A002BA6D104F290
:101EC0009C420121206803F00BF89FE74946284611
:101ED00002F05AFB09EBC90304EB8303DB7D012B02
:101EE00005D005EB49130222C3F80829ADE709EB39
:101EF000C90304EB83030022DA755946204605F036
:101F000033F9EEE749462046FFF71EFBA0E77B6862
:101F100023F001037B6094F8CC34012B08D02046D9
:101F200005F016F92268536903F0004353618DE60A
:101F3000002184F8CC14204600F03FF9F2E7204657
:101F400005F0EEF88DE67B6823F001037B6010213D
:101F5000206802F019FB1AE005EB46134FF67F31BB
:101F6000C3F80819D3F8002922F40012C3F8002995
:101F7000C3F8081BD3F8002B22F40012C3F8002B7F
:101F8000D3F8002B42F00062C3F8002B013623790E
:101F9000B342E1D8FB6943F00113FB61E37BDBB1A2
:101FA000D7F8843043F00B03C7F884307B6C43F0E0
:101FB0000B037B64D5F8003823F4FE63C5F80038C2
:101FC00004F29C42A179206802F08AFF22685369DA
:101FD00003F48053536150E67B6943F4005343F0AC
:101FE0002B037B613B6943F00B033B61E2E7206815
:101FF00002F065FF206802F0E1FBE071266800F066
:10200000FBFF0146E279304602F040FA204605F037
:1020100072F82268536903F40053536134E6204692
:1020200005F063F82268536903F00803536132E650
:1020300001362379B3420CD906EBC60304EB8303C4
:1020400093F85732012BF3D1F1B22046FFF793FDFD
:10205000EEE7206802F0CDFE10F4801F25D1206845
:1020600002F0C7FE10F4001F59D0012326E001360C
:102070002379B3421BD905EB4613D3F8002906EBAD
:10208000C60304EB83031B7E012BF0D1002AEEDA9A
:1020900006EBC60304EB83030122DA7566F07F01C9
:1020A000C9B22046FFF767FDE1E70126E0E72268B5
:1020B000536903F480135361D1E7013322799A42C3
:1020C00028D905EB4312D2F8001B03EBC30204EB43
:1020D000820292F85822012AEFD10029EDDA01F4A8
:1020E0008031D4F8D42402F001029142E5D103EB0F
:1020F000C30204EB8202012182F85712AA6942F05E
:102100008002AA616A6912F0800FD6D17B6843F41D
:1021100000737B602268536903F4001353612068E5
:1021200002F067FE10F0804F10D1206802F061FECF
:1021300010F0040F3FF442AD23685D6815F0040F02
:102140000DD1226853682B43536037E5204605F0D4
:1021500011F82268536903F080435361E5E7204694
:1021600005F00EF8EDE710B40468606A31B940EA92
:102170000240A06200205DF8044B70478C46A36AC1
:1021800000EB1340002308E003F1400104EB810160
:10219000496800EB11400133DBB20CF1FF318B4297
:1021A000F2D340EA02400CF13F0104EB81014860A8
:1021B000E0E703685962002070477047002800F08C
:1021C000A18038B5044690F82030D3B12268136856
:1021D00043F00103136001F093FA054623685A683F
:1021E00012F0010F10D101F08BFA401B0A28F5D92B
:1021F000636A43F400336362052384F820300120CE
:1022000038BDFEF7A1FFE1E71A6822F002021A606A
:1022100001F076FA054623685A6812F0020F0DD0D5
:1022200001F06EFA401B0A28F5D9636A43F40033C3
:102230006362052384F820300120E1E7227E012A31
:102240003DD01A6822F080021A60637E012B3BD0D9
:102250002268136823F040031360A37E012B39D05A
:102260002268136823F020031360E37E012B37D02C
:102270002268136843F010031360237F012B35D0CD
:102280002268136823F008031360637F012B33D0A7
:102290002268136823F004031360A368E268134301
:1022A00022691343626913436268013A2168134348
:1022B000CB6100206062012384F82030A0E71A6817
:1022C00042F080021A60C0E72268136843F04003BE
:1022D0001360C2E72268136843F020031360C4E769
:1022E0002268136823F010031360C6E7226813689E
:1022F00043F008031360C8E72268136843F004033F
:102300001360CAE70120704790F82030013BDBB230
:10231000012B05D9436A43F48023436201207047AF
:1023200030B5464BD3F8002242F00102C3F8002238
:10233000D3F8002222F47C52C3F80022D3F8002202
:10234000486A42EA0022C3F800224A6902F01F02EA
:10235000012000FA02F2D3F81C026FEA020C20EA14
:102360000200C3F81C02CB69C3B9344BD3F80C028A
:102370000CEA0000C3F80C028C884869CD6844EA76
:102380000544483043F830408C68088840EA0440EF
:102390004C6904F1480E03EBCE035860CB69012B66
:1023A0001ED08B69002B33D12448D0F804320CEABC
:1023B0000303C0F804320B698BBB2048D0F81432F9
:1023C0000CEA0303C0F814320B6A012B2ED01B4A0F
:1023D000D2F8003223F00103C2F80032002030BDF1
:1023E000164BD3F80C021043C3F80C028C884869D2
:1023F0000D6844EA0544483043F8304088894C6908
:102400008D6840EA0540483403EBC4035860C8E7D0
:102410000A48D0F804321343C0F80432CBE7074827
:10242000D0F814321343C0F81432CDE70349D1F881
:102430001C321A43C1F81C22C9E700BF00640040E7
:1024400070B5044690F82050EDB2012D06D0436AD5
:1024500043F4002343620125284670BD022380F81F
:1024600020300268136823F00103136001F048F97B
:10247000064623685B6813F0010F0CD001F040F9A9
:10248000831B0A2BF5D9636A43F400336362052387
:1024900084F82030E0E700256562DDE730B590F88C
:1024A00020C00468A4680CF1FF3C5FFA8CFCBCF10E
:1024B000010F62D814F0E05F59D0C4F3016C01241D
:1024C00004FA0CF41C608B68002B3DD10D68CB68BE
:1024D000046843EA45550CF118031B01E5500368F5
:1024E0000C690CF1180E03EB0E135C600B7D012BD5
:1024F00035D0D17993791B0443EA0163517943EADA
:10250000012314790168234301EB0C11C1F88C31CC
:10251000D17893781B0443EA0163517843EA01239D
:10252000117802680B4302EB0C12C2F88831026882
:102530000CF1180C4FEA0C1C52F80C3043F001035C
:1025400042F80C3000201DE04C6843EAC403CC681C
:1025500023430CF11804240105682B51BFE70368DD
:1025600003EB0E13596841F480715960C1E7436A67
:1025700043F400134362012004E0436A43F48023E0
:102580004362012030BD90F82030013BDBB2012BCB
:1025900001D9002070470368986810F0806000D06F
:1025A00001209A6812F0006F00D001309B6813F090
:1025B000805FEFD00130704790F820C00CF1FF3CF5
:1025C0005FFA8CFCBCF1010F00F2A58030B451B968
:1025D0000468E46814F0030F10D1436A43F4001355
:1025E000436201207EE00468246914F0030F05D1E2
:1025F000436A43F400134362012073E0056801F16C
:102600001B0424012C5904F004049460002C6BD1A9
:10261000056801F11B0424012C59640D1460046841
:1026200001F11B0C4FEA0C1C54F80C4004F002049E
:10263000D4600468A444DCF8045015F0080F5BD0A3
:1026400008241461056801F11B0C05EB0C156D687D
:10265000C5F307259561046804EB0C146468240C29
:102660005461026802EB0112D2F8B8211A700268B4
:1026700002EB0112D2F8B821C2F307225A700268A5
:1026800002EB0112D2F8B821C2F307429A70026835
:1026900002EB0112D2F8B821120EDA70026802EBD6
:1026A0000112D2F8BC211A71026802EB0112D2F8B1
:1026B000BC21C2F307225A71026802EB0112D2F860
:1026C000BC21C2F307429A71026802EB0112D2F8F0
:1026D000BC21120EDA71C1B90268D36843F020033D
:1026E000D360002030BC7047056801F11B04240151
:1026F0002C59E408546092E701F11B0504EB051422
:10270000646804F00F0414619CE70268136943F0E5
:1027100020031361E5E7436A43F480234362012009
:10272000704790F82030013BDBB2012B01D900202B
:10273000704721B90368D86800F003007047036848
:10274000186900F00300704790F82030013BDBB2BD
:10275000012B05D9436A43F480234362012070476B
:1027600002685369194351610020704770477047F0
:1027700070477047704770477047704770477047A1
:1027800070472DE9F84F054603685C69D3F804806B
:102790009F68D3F80CB0D3F810A0D3F8189014F0B9
:1027A00001063BD017F0010616D001229A6017F0FF
:1027B000020F08D117F0040F0CD117F0080606D04D
:1027C0004FF4805608E0FFF7D1FF002604E0FFF742
:1027D000D0FF01E04FF4006617F4807F0DD02B6826
:1027E0004FF480729A6017F4007F40F0868017F4EF
:1027F000806F00F0868046F4005617F4803F0DD0BD
:102800002B684FF480329A6017F4003F40F08380C9
:1028100017F4802F00F0838046F4004614F0080F70
:1028200007D01BF0100F04D046F400762B6810225E
:10283000DA6014F0040F02D01BF0080F79D114F005
:10284000020F04D02B68DB6813F0030F78D114F06B
:10285000400F07D01AF0100F04D046F480662B68A2
:1028600010221A6114F0200F02D01AF0080F6BD159
:1028700014F0100F04D02B681B6913F0030F6AD1FA
:1028800014F4003F02D018F0100F68D114F4803F08
:1028900002D018F0080F69D114F4004F7AD018F064
:1028A000040F74D014F4807F04D019F0010F01D00C
:1028B00046F0010614F4007F04D019F0020F01D095
:1028C00046F0020614F4806F04D019F0040F01D012
:1028D00046F0040614F4006F59D019F0700956D070
:1028E000B9F1400F65D058D8B9F1200F5ED0B9F1D9
:1028F000300F42D146F0200644E02846FFF737FF6C
:102900007BE717F4006F02D046F4804675E728464F
:10291000FFF730FF71E72846FFF72AFF7EE717F43D
:10292000002F02D046F4803678E72846FFF723FFD1
:1029300074E72B680822DA602846FFF71DFF7EE760
:10294000284605F075FD82E72B6808221A612846A3
:10295000FFF713FF8CE7284605F06FFD90E72B6823
:1029600010225A602846FFF709FF8FE72B680822DC
:102970005A602846FFF703FF8EE7B9F1100F01D127
:1029800046F008062A68936923F0700393612B6868
:1029900004225A609EB9BDE8F88FB9F1500F0BD0F0
:1029A000B9F1600FEED146F48076EBE746F0100601
:1029B000E8E746F04006E5E746F08006E2E76B6AA6
:1029C0001E436E622846FFF7DBFEE4E7002800F0B6
:1029D000E08170B582B00446036813F0010F3BD06C
:1029E0009F4B9B6803F00C03042B2CD09C4B9B68E3
:1029F00003F00C03082B21D06368B3F5803F4FD060
:102A0000B3F5A02F52D0964B1A6822F480321A6088
:102A10001A6822F480221A606368002B50D000F0FC
:102A20006FFE05468E4B1B6813F4003F14D100F077
:102A300067FE401B6428F5D90320B1E1884B5B6831
:102A400013F4800FD8D0864B1B6813F4003F03D0DB
:102A50006368002B00F09F81236813F0020F54D0AD
:102A60007F4B9B6813F00C0F3ED07D4B9B6803F0AF
:102A70000C03082B33D0E368002B68D0794B01227C
:102A80001A6000F03DFE0546754B1B6813F0020FFF
:102A900054D100F035FE401B0228F5D903207FE118
:102AA0006F4A136843F480331360B5E76C4B1A68C0
:102AB00042F480221A601A6842F480321A60ABE74E
:102AC00000F01EFE0546664B1B6813F4003FC3D0A2
:102AD00000F016FE401B6428F5D9032060E1604B2E
:102AE0005B6813F4800FC6D15D4B1B6813F0020FB7
:102AF00003D0E368012B40F05081594A136823F05A
:102B0000F803216943EAC1031360236813F0080F37
:102B100042D063696BB3534B0122C3F8802E00F09F
:102B2000EFFD05464E4B5B6F13F0020F34D100F002
:102B3000E7FD401B0228F5D9032031E1484A13681C
:102B400023F0F803216943EAC1031360DDE7454B35
:102B500000221A6000F0D4FD0546414B1B6813F0BB
:102B6000020FD2D000F0CCFD401B0228F5D9032083
:102B700016E13C4B0022C3F8802E00F0C1FD054653
:102B8000374B5B6F13F0020F06D000F0B9FD401B0E
:102B90000228F5D9032003E1236813F0040F77D04E
:102BA0002F4B1B6C13F0805F33D1002301932C4B10
:102BB0001A6C42F080521A641B6C03F0805301932C
:102BC000019B0125284B1B6813F4807F23D0A36849
:102BD000012B34D0052B38D0214B1A6F22F0010283
:102BE0001A671A6F22F004021A67A368002B3DD0FF
:102BF00000F086FD06461A4B1B6F13F0020F46D1FC
:102C000000F07EFD801B41F288339842F3D9032007
:102C1000C6E00025D6E7144A136843F480731360B6
:102C200000F06EFD0646104B1B6813F4807FCED17A
:102C300000F066FD801B0228F5D90320B0E0084AA9
:102C4000136F43F001031367CFE7054B1A6F42F090
:102C500004021A671A6F42F001021A67C5E700BF43
:102C600000380240000047420070004000F048FD7C
:102C70000646524B1B6F13F0020F08D000F040FDC8
:102C8000801B41F288339842F3D9032088E0EDB9E4
:102C9000A369002B00F08380484A926802F00C027E
:102CA000082A51D0022B17D0454B00221A6600F09B
:102CB00027FD0446414B1B6813F0007F42D000F013
:102CC0001FFD001B0228F5D9032069E03B4A136C65
:102CD00023F080531364DBE7394B00221A6600F0BF
:102CE0000FFD0546354B1B6813F0007F06D000F042
:102CF00007FD401B0228F5D9032051E0E369226A51
:102D00001343626A43EA8213A26A5208013A43EA11
:102D10000243E26A43EA0263284A5360284B0122D5
:102D20001A6600F0EDFC0446244B1B6813F0007F8C
:102D300006D100F0E5FC001B0228F5D903202FE0A6
:102D400000202DE000202BE0012B2BD01B4B5B68DB
:102D500003F48001E269914226D103F03F02216A27
:102D60008A4223D1616A47F6C0721A40B2EB811FD2
:102D70001ED103F44031A26A5208013AB1EB024F6E
:102D800018D103F07063E26AB3EB026F14D1002034
:102D900006E001207047012002E0012000E0002051
:102DA00002B070BD0120FBE70120F9E70120F7E741
:102DB0000120F5E70120F3E70120F1E700380240A8
:102DC0000000474208B5314B9B6803F00C03042B0D
:102DD00057D0082B57D12D4B5A6802F03F025B6841
:102DE00013F4800F2AD0294B5968C1F3881C4FEA8D
:102DF0004C11B1EB0C006EEB0E0E4FEA8E1343EA52
:102E000090638101091A63EB0E03DB0043EA5173FF
:102E1000C90011EB0C0C43F10003590200234FEAE7
:102E20004C2041EADC51FDF7AFFE184B5B68C3F361
:102E3000014301335B00B0FBF3F025E0134B59680D
:102E4000C1F3881C4FEA4C11B1EB0C006EEB0E0E77
:102E50004FEA8E1343EA90638101091A63EB0E0374
:102E6000DB0043EA5173C90011EB0C0C43F1000382
:102E7000990200234FEA8C2041EA9C51FDF784FE21
:102E8000D3E7034800E0034808BD00BF0038024014
:102E900000127A000024F400002800F09B8070B536
:102EA0000D4604464F4B1B6803F007038B4208D2C4
:102EB000CBB24C4A1370136803F007038B4240F007
:102EC0008B80236813F0020F17D013F0040F04D087
:102ED000454A936843F4E0539360236813F0080F66
:102EE00004D0414A936843F4604393603E4A936838
:102EF00023F0F003A1680B439360236813F0010FE4
:102F000032D06368012B21D09A1E012A25D9364A76
:102F1000126812F0020F61D033498A6822F003026E
:102F200013438B6000F0ECFB06462F4B9B6803F0CD
:102F30000C036268B3EB820F16D000F0E1FB801B3C
:102F400041F288339842F0D9032042E0264A1268C1
:102F500012F4003FE0D101203BE0234A126812F056
:102F6000007FD9D1012034E01E4B1B6803F007031A
:102F7000AB4207D9EAB21B4B1A701B6803F0070378
:102F8000AB422DD1236813F0040F06D0164A936884
:102F900023F4E053E1680B439360236813F0080FB8
:102FA00007D0114A936823F46043216943EAC103BF
:102FB0009360FFF707FF0C4B9B68C3F303130B4AA7
:102FC000D35CD8400A4B18600A4B1868FEF770FAB9
:102FD000002070BD012070470120FAE70120F8E7CA
:102FE0000120F6E7003C024000380240A8A4000897
:102FF0000800002004000020014B1868704700BF43
:103000000800002008B5FFF7F7FF044B9B68C3F3E7
:103010004233034AD35CD84008BD00BF00380240A9
:10302000B8A400080F2303600B4B9A6802F0030258
:1030300042609A6802F0F00282609A6802F4E052FC
:10304000C2609B68DB0803F4E0530361034B1B6819
:1030500003F007030B60704700380240003C024059
:1030600000230F2B00F2E48070B582B060E0856829
:103070005E000324B44025EA0405CC68B4402C4328
:103080008460456825EA02054C68C4F300129A4042
:103090002A4342605AE0DC08083450F8246003F008
:1030A000070295000F22AA4026EA020E0A69AA40EA
:1030B00042EA0E0240F824205CE0072200E00022F1
:1030C00002FA0EF22A4302345A4D45F824205A4A95
:1030D00094686FEA0C0224EA0C054E6816F4801F0F
:1030E00001D04CEA0405544CA560E46802EA0405EA
:1030F0004E6816F4001F01D04CEA04054E4CE56002
:10310000646802EA04054E6816F4003F01D04CEAF8
:103110000405494C6560246822404D6815F4803FE1
:1031200001D04CEA0402444C226001330F2B7DD8BD
:1031300001229A400C6804EA020C32EA0404F4D139
:103140004C6804F00304013C012C90D94A6802F059
:103150000302032A09D0C4685D000322AA4024EABE
:1031600002048A68AA402243C2604A6802F003024D
:10317000022A90D004684FEA430E032202FA0EF2AC
:1031800024EA02044A6802F0030202FA0EF2224321
:1031900002604A6812F4403FC7D000220192274AD9
:1031A000546C44F480445464526C02F480420192A2
:1031B000019A9C08A51C1F4A52F8255003F00302EF
:1031C0004FEA820E0F2202FA0EF225EA02051C4A8D
:1031D00090423FF474AF02F5806290421AD002F53B
:1031E0008062904218D002F58062904216D002F5BB
:1031F0008062904214D002F58062904212D002F5B3
:103200008062904210D002F5806290423FF455AF48
:10321000082255E7012253E7022251E703224FE734
:1032200004224DE705224BE7062249E702B070BDB4
:10323000704700BF00380140003C014000380240A8
:10324000000002400AB18161704709048161704742
:1032500010B4046863608368402B06D003689960EB
:103260000368DA605DF8044B704703689A6003688E
:10327000D960F7E738B50446806880280DD094F807
:103280003400012823D0012084F8340094F835005C
:10329000C0B2012806D0022038BD4FF480736365A8
:1032A0000120F9E7022084F835002568286840F4F9
:1032B0008020286020680361049B2046FFF7C8FF38
:1032C0002268136843F0010313600020E4E7022042
:1032D000E2E730B405682C6824F480242C6004688C
:1032E00063608368402B05D0036899600368DA60E7
:1032F00030BC704703689A600368D960F8E738B556
:103300000446856D90F8340001282BD0012084F804
:10331000340094F83500C0B2012804D0002384F8AA
:103320003430022038BD022084F83500002060656A
:103330002046FFF7CEFFE26D3F239340AB6022684B
:10334000136843F016031360236C23B122681368DB
:1033500043F0080313602268136843F0010313600D
:103360000020DFE70220DDE770B50446866D00F03F
:10337000C7F994F83530DBB2022B06D080236365A1
:10338000002384F83430012070BD0546226813689C
:1033900023F0160313602268536923F080035361FE
:1033A000236CE3B12268136823F0080313602268DA
:1033B000136823F00103136023681B6813F0010FE7
:1033C00011D000F09DF9431B052BF5D9202363652F
:1033D000032084F83500002384F83430D4E7A36C4C
:1033E000002BDFD1E3E7E26D3F239340B36001237D
:1033F00084F83530002084F83400C5E790F8353083
:10340000DBB2022B03D080234365012070470523E4
:1034100080F835300268136823F001031360002040
:1034200070470000F0B583B0044600230193724B4F
:103430001D68724BA3FB0535AD0A876D3E68C26DF2
:1034400008239340334210D003681A6812F0040F27
:103450000BD01A6822F004021A60C26D0823934050
:10346000BB60436D43F001034365E26D012393406C
:10347000334209D02268526912F0800F04D0BB6039
:10348000636D43F002036365E26D042393403342AE
:1034900009D02268126812F0020F04D0BB60636D7D
:1034A00043F004036365E26D10239340334224D05C
:1034B0002268126812F0080F1FD0BB6023681A68D8
:1034C00012F4802F0DD01B6813F4002F04D1236C4D
:1034D0009BB12046984710E0A36C73B120469847F3
:1034E0000BE01A6812F4807F03D11A6822F00802F8
:1034F0001A60236C0BB120469847E26D202393405D
:10350000334255D02268126812F0100F50D0BB60C1
:1035100094F83530DBB2052B0ED023681A6812F40C
:10352000802F33D01B6813F4002F2AD1636C002B3B
:103530003ED0204698473BE02268136823F01603EC
:1035400013602268536923F080035361236CA3B195
:103550002268136823F008031360E26D3F23934051
:10356000BB60012384F83530002384F83430236DA8
:10357000002B3FD0204698473CE0A36C002BE7D1BE
:10358000EBE7E36BA3B12046984711E01A6812F409
:10359000807F09D11A6822F010021A60012384F892
:1035A0003530002384F83430E36B0BB12046984764
:1035B000636DFBB1636D13F0010F17D0052384F821
:1035C00035302268136823F001031360019B013337
:1035D0000193AB4204D823681B6813F0010FF5D1A7
:1035E000012384F83530002384F83430E36C0BB1C8
:1035F0002046984703B0F0BD08000020B5814E1B5F
:10360000406D7047074AD36823F4E0631B041B0C2A
:10361000000200F4E060034343F0BF6343F400336F
:10362000D360704700ED00E000B5194BDB68C3F3D1
:103630000223C3F1070CBCF1040F28BF4FF0040CA8
:1036400003F1040EBEF1060F18D9033B4FF0FF3E05
:103650000EFA0CFC21EA0C0199400EFA03F322EA5F
:103660000303194300280BDB0901C9B200F16040D4
:1036700000F5614080F800135DF804FB0023E5E7E6
:1036800000F00F000901C9B2024B1954F4E700BF62
:1036900000ED00E014ED00E0002807DB00F01F0261
:1036A000400901239340024A42F82030704700BF8E
:1036B00000E100E008B50B4B1A6842F400721A6092
:1036C0001A6842F480621A601A6842F480721A60C2
:1036D0000320FFF797FF0F20FDF7EAFEFDF7C6FE78
:1036E000002008BD003C0240034A1168034B1B78D0
:1036F0000B441360704700BF280700200000002023
:10370000014B1868704700BF2807002038B50446F1
:10371000FFF7F6FF0546B4F1FF3F02D0044B1B78DC
:103720001C44FFF7EDFF401BA042FAD338BD00BF99
:103730000000002090F83D30DBB2012B37D102238E
:1037400080F83D300268D36843F00103D36003681A
:10375000194A934220D0B3F1804F1DD0A2F57C428C
:10376000934219D002F58062934215D002F580622F
:10377000934211D002F5784293420DD002F5705277
:10378000934209D0A2F59432934205D01A6842F0D0
:1037900001021A60002070479A6802F00702062AA8
:1037A00007D01A6842F001021A6000207047012019
:1037B00070470020704700BF00000140704770470D
:1037C0007047704770B504460368DE681D6915F0E0
:1037D000020F10D016F0020F0DD06FF002021A6126
:1037E0000123037703689B6913F0030F5ED0FFF793
:1037F000E6FF0023237715F0040F12D016F0040F14
:103800000FD023686FF004021A6102232377236824
:103810009B6913F4407F4FD02046FFF7D0FF002371
:10382000237715F0080F12D016F0080F0FD0236879
:103830006FF008021A61042323772368DB6913F011
:10384000030F40D02046FFF7BAFF0023237715F07F
:10385000100F12D016F0100F0FD023686FF0100267
:103860001A61082323772368DB6913F4407F31D082
:103870002046FFF7A4FF0023237715F0010F02D0A5
:1038800016F0010F2DD115F0800F02D016F0800F29
:103890002FD115F0400F02D016F0400F31D115F0A6
:1038A000200F02D016F0200F33D170BDFFF786FF36
:1038B0002046FFF785FF9CE72046FFF77FFF204665
:1038C000FFF77EFFABE72046FFF778FF2046FFF7C4
:1038D00077FFBAE72046FFF771FF2046FFF770FF3A
:1038E000C9E723686FF001021A61204605F06EFDFA
:1038F000C9E723686FF080021A61204600F0ABF838
:10390000C7E723686FF040021A612046FFF759FFAE
:10391000C5E723686FF020021A61204600F09AF88C
:10392000C3E700000368344A904212D0B0F1804FE0
:103930000FD0A2F57C4290420BD002F580629042FB
:1039400007D002F58062904203D002F5784290429F
:1039500003D123F070034A681343274A90422AD0C8
:10396000B0F1804F27D0A2F57C42904223D002F5DF
:10397000806290421FD002F5806290421BD002F517
:103980007842904217D002F57052904213D002F55F
:10399000806290420FD002F5806290420BD0A2F577
:1039A0009832904207D002F58062904203D002F52F
:1039B0008062904203D123F44073CA68134323F01A
:1039C00080034A69134303608B68C3620B68836298
:1039D000094B984203D003F58063984201D10B69EB
:1039E000036301234361036913F0010F03D00369EB
:1039F00023F00103036170470000014040B310B59C
:103A0000044690F83D30F3B1022384F83D3021465E
:103A100051F8040BFFF786FF012384F8463084F841
:103A20003E3084F83F3084F8403084F8413084F8E8
:103A3000423084F8433084F8443084F8453084F8C8
:103A40003D30002010BD80F83C30FDF723FBDBE764
:103A50000120704770477047026802F10C0353E879
:103A6000003F23F0C0030C3242E800310029F3D1BB
:103A7000202380F841307047026802F10C0353E8BC
:103A8000003F23F490730C3242E800310029F3D157
:103A9000026802F1140353E8003F23F001031432DB
:103AA00042E800310029F3D1036B012B05D020231C
:103AB00080F84230002303637047026802F10C0370
:103AC00053E8003F23F010030C3242E80031002994
:103AD000F3D1ECE790F84130DBB2212B01D002208A
:103AE00070478368B3F5805F17D0036A5A1C02627F
:103AF0001A7803685A60C38C9BB2013B9BB2C384A3
:103B00004BB90268D36823F08003D3600268D3689E
:103B100043F04003D360002070470369002BE4D1D9
:103B2000036A1B880268C3F308035360036A023305
:103B30000362E0E710B50446226802F10C0353E883
:103B4000003F23F490730C3242E800310029F3D196
:103B5000226802F1140353E8003F23F001031432FA
:103B600042E800310029F3D1236B012B1FD02368D9
:103B70005B6913F0400F13D0226802F1140353E87D
:103B8000003F23F04003143242E800310029F3D112
:103B9000E36B2BB100221A65E06BFFF7E5FB98B9E8
:103BA0000020E085202384F84230206310BD226885
:103BB00002F10C0353E8003F23F010030C3242E8FB
:103BC00000310029F3D1D2E7E06BFFF719FD20287F
:103BD000E6D1102363640320E8E708B50168CA68EA
:103BE00022F04002CA60202280F8412004F089FAC5
:103BF000002008BD10B5846B23685A6994F84130E1
:103C0000DBB2212B10D023685A6902F0400294F8ED
:103C10004230DBB2222B11D0636C43F0100363649B
:103C2000204604F072FA10BD02F08002002AEAD0A9
:103C30000023E3842046FFF70FFFE4E7002AEBD0E0
:103C40000023E3852046FFF717FFE5E708B5806B03
:103C50000023C385C38404F058FA08BD90F84230AD
:103C6000DBB2222B69D18368B3F5805F4FD0826AC3
:103C7000B3F5805F04D0002B56D10369002B53D1DC
:103C800003685B681370836A01338362C38D9BB2E0
:103C9000013B9BB2C385002B51D100B583B00268B4
:103CA000D36823F02003D3600268D36823F48073C1
:103CB000D3600268536923F001035361202380F825
:103CC000423000234363036B012B33D10023036392
:103CD000026802F10C0353E8003F23F010030C329A
:103CE00042E800310029F3D103681A6812F0100F7E
:103CF00006D0002201921A6801925B680193019B31
:103D0000818D04F0F5F9002003B05DF804FB026931
:103D1000002AACD1826A03685B68C3F3080313808E
:103D2000836A02338362B1E703685B6803F07F0351
:103D30001370A8E704F0E0F9E5E7022070470020DF
:103D40007047000030B583B0044602681368D0683D
:103D5000516913F00F0505D113F0200F02D010F0B8
:103D6000200F19D12DB111F0010119D110F4907F5C
:103D700016D1216B01297DD013F0800F03D010F0F4
:103D8000800F40F0198113F0400F03D010F0400F66
:103D900040F0168103B030BD2046FFF75FFFF9E722
:103DA00013F0010F06D010F4807F03D0626C42F054
:103DB0000102626413F0040F04D019B1626C42F086
:103DC0000202626413F0020F04D019B1626C42F077
:103DD0000402626413F0080F07D010F0200F00D126
:103DE00019B1626C42F008026264626C002AD1D0A0
:103DF00013F0200F02D010F0200F29D123685B6947
:103E000003F04003626C12F0080F00D163B3204648
:103E1000FFF732FE23685B6913F0400F20D0226861
:103E200002F1140353E8003F23F04003143242E848
:103E300000310029F3D1E36B73B1634A1A65E06B7B
:103E4000FFF7DCFA0028A5D0E06B036D9847A1E7E7
:103E50002046FFF703FFD1E7204604F056F999E723
:103E6000204604F052F995E7204604F04EF900236D
:103E700063648FE713F0100F3FF47EAF10F0100F64
:103E80003FF47AAF002301931368019353680193C1
:103E9000019B536913F0400F52D0E26B13685B68CB
:103EA0009BB2002B3FF476AFA18D99427FF672AFA3
:103EB000E385D369B3F5807F37D0226802F10C0324
:103EC00053E8003F23F480730C3242E800310029AC
:103ED000F3D1226802F1140353E8003F23F00103F9
:103EE000143242E800310029F3D1226802F11403B0
:103EF00053E8003F23F04003143242E80031002928
:103F0000F3D1202384F8423000232363226802F196
:103F10000C0353E8003F23F010030C3242E8003159
:103F20000029F3D1E06BFFF71FFA02236363A18D31
:103F3000E38D9BB2C91A89B2204604F0D9F829E76B
:103F4000A18DE38D9BB2C91A89B2E38D9BB2002B80
:103F50003FF420AF00293FF41DAF226802F10C03AB
:103F600053E8003F23F490730C3242E800300028FD
:103F7000F3D1226802F1140353E8003F23F0010358
:103F8000143242E800300028F3D1202384F8423074
:103F900000232363226802F10C0353E8003F23F05F
:103FA00010030C3242E800300028F3D1022363638F
:103FB000204604F09DF8EDE62046FFF78BFDE9E68C
:103FC0002046FFF70AFEE5E64D3C000808B5806B89
:103FD00001234363036B012B02D004F091F808BD69
:103FE000818D490804F084F8F9E708B50346806B31
:103FF0001B681B6813F4807F2BD10023C3850268E4
:1040000002F10C0353E8003F23F480730C3242E8C2
:1040100000310029F3D1026802F1140353E8003F94
:1040200023F00103143242E800310029F3D1026881
:1040300002F1140353E8003F23F04003143242E836
:1040400000310029F3D1202380F84230036B012B8B
:1040500007D000234363036B012B0FD004F04CF80F
:1040600008BD026802F10C0353E8003F23F010037F
:104070000C3242E800310029F3D1EAE7818D04F0E7
:1040800037F8EDE781628285C285002343642223ED
:1040900080F84230036923B10268D36843F4807327
:1040A000D3600268536943F0010353610268D36827
:1040B00043F02003D3600020704708B590F84230E9
:1040C000DBB2202B08D149B10AB9012008BD002379
:1040D0000363FFF7D7FFF9E70220F7E70120F5E7D1
:1040E00090F84230DBB2202B29D110B582B00446C3
:1040F00039B312B9012002B010BD012303630023BC
:104100004363FFF7BFFF0028F5D1236B012B01D0DC
:104110000120F0E70023019323681A6801925B688D
:104120000193019B226802F10C0353E8003F43F026
:1041300010030C3242E800310029F3D1DBE7022002
:1041400070470120D7E7000030B583B0044613461E
:104150008162828500254564222280F84220C26B5C
:104160001F48D063E26B1F481064E26B1E48D064A6
:10417000E26B156520680A46011DE06BFFF7BFF88A
:10418000019523681A6801925B680193019B23697A
:104190005BB1226802F10C0353E8003F43F48073E3
:1041A0000C3242E800310029F3D1226802F11403F5
:1041B00053E8003F43F00103143242E80031002984
:1041C000F3D1226802F1140353E8003F43F04003A7
:1041D000143242E800310029F3D1002003B030BD91
:1041E000EB3F0008CD3F0008F53B000808B590F80C
:1041F0004230DBB2202B08D149B10AB9012008BDF9
:1042000000230363FFF7A0FFF9E70220F7E701208F
:10421000F5E790F84230DBB2202B29D110B582B0FF
:10422000044639B312B9012002B010BD0123036363
:1042300000234363FFF788FF0028F5D1236B012B90
:1042400001D00120F0E70023019323681A6801924E
:104250005B680193019B226802F10C0353E8003F65
:1042600043F010030C3242E800310029F3D1DBE7C0
:10427000022070470120D7E77047000030B585B0B5
:104280000446026851689368C3F3801013F0400F2E
:1042900005D113F0010F02D011F0400F69D113F0D6
:1042A000020F02D011F0800F67D1C3F3401513F055
:1042B000200F03D110B913F4807F61D011F0200FCB
:1042C0005ED078B194F85100C0B203285AD0606D26
:1042D00040F00400606500200090D0680090906875
:1042E0000090009865B1606D40F0010060650020AD
:1042F000029090680290106820F040001060029ACE
:1043000013F4807F09D0636D43F0080363650023D5
:10431000039323689B680393039B636D002B2FD04B
:104320002268536823F0E0035360012384F851307E
:1043300011F0030F2ED02268536823F0030353605B
:10434000E36C4BB1154A1A65E06CFFF757F818B1EA
:10435000636D43F040036365A36C8BB10F4A1A652C
:10436000A06CFFF74BF858B1636D43F040036365F1
:1043700006E0236C2046984702E0636C204698478D
:1043800005B030BD00230193D36801939368019376
:10439000019BF5E72046FFF76FFFF1E7A143000817
:1043A00008B5806B0023C387C386FFF765FF08BD90
:1043B00082B000230193019B01330193019BB3F170
:1043C000706F15D80369002BF5DA00230193036998
:1043D00043F001030361019B01330193019BB3F19E
:1043E000706F08D8036913F0010FF4D1002000E0CA
:1043F000032002B070470320FBE784B010B50446E9
:1044000003A880E80E009DF81130012B21D1A36B89
:1044100023F48033A363E36823F4840323F040038D
:10442000E360E36823F44013E3609DF81830012B48
:104430000AD02046FFF7BCFF9DF80E30012B1CD0A0
:10444000BDE8104004B07047E36843F48013E360B4
:10445000EFE7E36843F04003E3602046FFF7A8FF7F
:104460009DF8153023B9A36B43F48033A363E3E7CE
:10447000A36B23F48033A363DEE7A36843F0060352
:10448000A360A36843F02003A360D9E7022A0AD0FF
:104490000921C26822F47052C260C36843EA8123D2
:1044A000C36000207047234B0B44234A93422FD90B
:1044B000224B0B44224A93422CD9A1F57403A3F555
:1044C0001053204A934227D9A1F18373A3F5E74300
:1044D0001D4A934222D31D4B0B441D4A93421FD9C0
:1044E0001C4B0B441C4A93421CD31C4B0B441C4AD0
:1044F000934219D3A1F1B773A3F55853194A9342C4
:1045000014D3194B0B44194A934211D20721C0E727
:104510000F21BEE70E21BCE70D21BAE70C21B8E759
:104520000B21B6E70A21B4E70921B2E70821B0E779
:104530000621AEE7405327FFFF340C00401E1BFF4F
:104540003F420F007F4F120020D6130060B6E5FEF9
:104550005FE3160000D3CEFE40771B00C05BB3FEC6
:10456000C091210020753800E05459FEE09C4100C4
:10457000836843F00103836000207047836823F061
:10458000010383600020704782B000230193019BE8
:1045900001330193019BB3F1706F15D80369002BB0
:1045A000F5DA00230193890141F020010161019BAB
:1045B00001330193019BB3F1706F08D8036913F0C5
:1045C000200FF4D1002000E0032002B07047032048
:1045D000FBE782B000230193019B01330193019B10
:1045E000B3F1706F13D80369002BF5DA0023019340
:1045F00010230361019B01330193019BB3F1706FA1
:1046000008D8036913F0100FF4D1002000E0032054
:1046100002B070470320FBE7D0F800381943C0F818
:10462000001800207047000084B0F8B5044607A8C1
:1046300080E80E00002306E003F1400204EB820252
:104640000021516001330E2BF6D99DF8266006BB80
:10465000D4F8043843F00203C4F80438A36B43F4DD
:104660000013A363A36B23F40023A363A36B23F4BE
:104670008023A3630023C4F8003E9DF82130012B62
:1046800015D19DF81F306BB900212046FFF7C4FFFC
:1046900011E0A36B23F40013A363A36B43F4002383
:1046A000A363E7E701212046FFF7B6FF03E00321FC
:1046B0002046FFF7B1FF10212046FFF765FF0546B2
:1046C00000B101252046FFF784FF00B1012504F564
:1046D000006C0023CCF81030CCF81430CCF81C302F
:1046E0000AE0CBB94FF00060C2F8000900220A616D
:1046F0004FF67F328A6001339DF81C10994210D921
:1047000004EB431202F51061D2F800090028E8DB3F
:104710000020C2F80009E9E74FF09040C2F8000914
:10472000E4E700230AE0BBB14FF09047C2F8007BFA
:10473000002202614FF67F3282600133994210D924
:1047400004EB431202F53060D2F8007B002FEADB65
:104750000027C2F8007BEBE74FF00067C2F8007B50
:10476000E6E7DCF8103023F48073CCF81030002337
:10477000A3616FF0804363619DF81E301BB9A3698C
:1047800043F01003A361A2690B4B1343A3619DF88F
:1047900022301BB1A36943F00803A361012E04D0AA
:1047A0002846BDE8F84004B07047A36943F0804351
:1047B00043F00403A361F3E700383C80D0F80838E5
:1047C00013F0060307D0022B07D0062B01D00F20D1
:1047D000704702207047002070470220704710B5D4
:1047E00091F800C04B78012B23D000F5006ED0F873
:1047F0001C380CF00F040122A24043EA0243C0F827
:104800001C3800EB4C10D0F8003B13F4004F0ED1D5
:10481000D0F8003B8A68C2F30A02097942EA814271
:10482000134343F0805343F40043C0F8003B00209F
:1048300010BDD0F81C280CF00F0E03FA0EF39BB23B
:104840001343C0F81C3800EB4C10D0F8003913F4B7
:10485000004FECD1D0F800398A68C2F30A02097916
:1048600042EA814242EA8C5C43EA0C0343F0805303
:1048700043F40043C0F80039D9E7000030B40B78A6
:104880004A78012A26D000EB4313D3F8002B002AE4
:1048900052DBD0F83C480A7802F00F024FF0010CCE
:1048A0000CFA02F224EA0242C0F83C28D0F81C2894
:1048B000097801F00F010CFA01FC22EA0C42C0F861
:1048C0001C28D3F8001B234A0A40C3F8002B002001
:1048D00030BC704700EB4313D3F80029002A1EDBDD
:1048E000D0F83C580A7802F00F02012404FA02F2D0
:1048F00092B225EA0202C0F83C28D0F81C280978B8
:1049000001F00F018C40A4B222EA0404C0F81C4854
:10491000D3F80019104A0A40C3F80029D7E7D3F8A2
:10492000002942F00062C3F80029D3F8002942F0C0
:104930008042C3F80029D3E7D3F8002B42F000628D
:10494000C3F8002BD3F8002B42F08042C3F8002BB1
:104950009FE700BF0078F3EF007833EC10B483B02A
:10496000024600230193487801280BD00B7802EB14
:104970004313D3F8000B00282DDB002003B05DF8B3
:10498000044B70470B7802EB4313D3F80049002C1B
:1049900001DB0020F2E7D3F8004944F00064C3F8DB
:1049A00000490B7802EB4313D3F8004944F08044EC
:1049B000C3F80049019B01330193019C42F210733B
:1049C0009C42DBD80B7802EB4313D3F80039002B61
:1049D000F0DB0020D2E7D3F8000B40F00060C3F812
:1049E000000B0B7802EB4313D3F8000B40F0804030
:1049F000C3F8000B019B01330193019842F210733D
:104A0000984208D80B7802EB4313D3F8003B002BF5
:104A1000F0DB0020B2E70120B0E710B59DF80840B8
:104A200084B903334FEA930E4FF0000C08E000EB1B
:104A3000023303F5805351F8044B1C600CF1010C58
:104A4000F445F4D3002010BDF0B583B00C784B785A
:104A5000012B2FD000EB441C0CF530631D69ED0CCD
:104A6000ED041D611D6925F0FF5525F4C0151D617C
:104A7000002C40F0CF800C690CB18C680C618C6804
:104A80000C621D69C4F312042C431C611C6944F4BC
:104A900000241C61012A00F0E0800B79012B00F05A
:104AA000E280DCF8003B43F00443CCF8003B0020FC
:104AB00003B0F0BD0B6983BB00EB4413D3F810596E
:104AC00025F0FF5525F4C015C3F81059D3F8105937
:104AD00045F40025C3F81059D3F81059ED0CED0436
:104AE000C3F81059012A53D000EB4414D4F800390C
:104AF00043F00443C4F800390B79012B71D00B69E2
:104B0000002BD4D0D0F834380A7802F00F010122FB
:104B10008A401343C0F83438C9E700EB441303F567
:104B200010631D69ED0CED041D611D6925F0FF5535
:104B300025F4C0151D6184B90E698D68AE4200D997
:104B40000D611D6945F400251D611D690E69C6F3DF
:104B5000120C45EA0C051D61C4E70D698E683544E9
:104B6000013DB5FBF6F51E69484F07EAC54C46EA1C
:104B70000C061E610E79012EE7D11E6926F0C04693
:104B80001E611E696D0705F0C04535431D61DCE7F8
:104B9000CB691BB100EB4412C2F814390B79012B1D
:104BA00008D000EB4410D0F8003943F00443C0F8BB
:104BB00000397CE7D0F8083813F4807F08D100EB87
:104BC0004412D2F8003943F00053C2F80039E8E744
:104BD00000EB4412D2F8003943F08053C2F8003998
:104BE000DFE7D0F8083813F4807F0CD1D4F800390F
:104BF00043F00053C4F8003900920B8A0A78C96860
:104C0000FFF70BFF53E7D4F8003943F08053C4F8A3
:104C10000039F1E70C6954B91C698D68C5F31205B8
:104C20002C431C611C6944F400241C6132E78D682C
:104C30002C44013CB4FBF5F4A4B204FB05F50D6271
:104C40001D69124E06EAC4442C431C611C690D6A9E
:104C5000C5F312052C431C611CE7CA68002A3FF407
:104C60001CAF5A6119E7D0F8083813F4807F06D1D9
:104C7000DCF8003B43F00053CCF8003B11E7DCF8D4
:104C8000003B43F08053CCF8003B0AE70000F81FDC
:104C900000B583B0844608464FEA920E02F0030244
:104CA000002305E00CF58051096840F8041B01332E
:104CB0007345F7D39AB10CF5805CDCF800300193B2
:104CC0004FF0000C5FFA8CF3D900019BCB4000F849
:104CD000013B0CF1010C013A92B2002AF2D103B06F
:104CE0005DF804FB0B784A78012A14D000EB4310DE
:104CF000D0F8002B002A06DB2BB1D0F8003B23F0C4
:104D00008043C0F8003BD0F8003B43F40013C0F8E8
:104D1000003B0020704700EB4310D0F80029002A28
:104D200006DB2BB1D0F8003923F08043C0F80039FE
:104D3000D0F8003943F40013C0F80039E9E70B78E4
:104D40004A78012A0ED000EB4310D0F8003B23F440
:104D50000013C0F8003B0B79023BDBB2012B15D9E5
:104D60000020704700EB4310D0F8003923F4001303
:104D7000C0F800390B79023BDBB2012BF0D8D0F838
:104D8000003943F08053C0F80039E9E7D0F8003B20
:104D900043F08053C0F8003BE2E7D0F8003823F43A
:104DA000FE63C0F80038D0F80038090101F4FE6154
:104DB0001943C0F8001800207047D0F8003E23F0D7
:104DC0000303C0F8003ED0F8043823F00203C0F813
:104DD000043800207047D0F8003E23F00303C0F8E9
:104DE000003ED0F8043843F00203C0F80438002035
:104DF00070474269806910407047D0F8183800F554
:104E00000060C0691840000C7047D0F8183800F5F1
:104E10000060C069184080B2704700EB4111D1F8C2
:104E2000082B00F5006040691040704710B4D0F8BE
:104E30001048D0F8343801F00F02D340DB01DBB268
:104E4000234300EB411000F51060806818405DF8C6
:104E5000044B7047406900F00100704738B50546C3
:104E6000C36823F0C043C360012913D019BBC368D2
:104E700043F08043C36000240A20FEF747FC0A3455
:104E80002846FFF7E7FF08B1C72CF5D9C82C14D086
:104E9000002038BDC36843F00053C36000240A20DB
:104EA000FEF734FC0A342846FFF7D4FF0128EDD082
:104EB000C72CF4D9EAE70120EBE70120E9E7D0F8B5
:104EC000003923F4FF6323F00703C0F80039D0F85A
:104ED000043843F48073C0F80438002070470000A1
:104EE00010B4046C154B9C4203D9D0F8003B002B46
:104EF00016DB0024C0F8104BD0F8104B44F400240B
:104F0000C0F8104BD0F8104B44F01804C0F8104B08
:104F1000D0F8104B44F0C044C0F8104B012903D026
:104F200000205DF8044B7047C0F8142BD0F8003B0C
:104F300043F08023C0F8003BF2E700BF0A30544F33
:104F4000034AD2F8883043F47003C2F888307047BF
:104F500000ED00E000F1080343604FF0FF32826093
:104F6000C36003610023036070470023036170473F
:104F700043684B609A688A60516099600861036871
:104F800001330360704730B40D68B5F1FF3F11D0B5
:104F900000F108031C465B681A68AA42FAD96368E4
:104FA0004B6099608C606160086103680133036045
:104FB00030BC70470469F2E70369416882688A601F
:104FC000416851605A68824206D0002202611A6824
:104FD000013A1A601868704782685A60F5E7000065
:104FE000084B1B681B6823B9074B4FF0FF321A6050
:104FF0007047044B1B68DB68DB685A68024B1A6019
:10500000704700BF30070020040800202DE9F0475A
:1050100007469846089DDDF824900A9C266B02F10D
:105020008042013A06EB820626F0070600293AD0B4
:105030008E464FF0000CBCF10F0F0BD81EF80C2061
:1050400004EB0C0383F834201EF80C3013B10CF180
:10505000010CF0E7002384F84330062D00D9062523
:10506000E56265644FF0000AC4F848A0201DFFF710
:105070007CFF04F11800FFF778FF2461C5F10705F4
:10508000A5616462C4F84CA084F850A04246394639
:10509000304600F007FD2060B9F1000F01D0C9F8DB
:1050A0000040BDE8F087002384F83430D5E70000E5
:1050B00038B5002407E004EB840293000E4818443E
:1050C000FFF748FF0134062CF5D90C4D2846FFF7B1
:1050D00041FF0B4C2046FFF73DFF0A48FFF73AFF20
:1050E0000948FFF737FF0948FFF734FF084B1D60F9
:1050F000084B1C6038BD00BF38070020D8070020CF
:10510000EC070020100800203C08002028080020A0
:10511000300700203407002010B5044600F0EAFCF8
:10512000214A136801331360204B1B685BB1204B8D
:105130001B686BB91D4B1B68DA6AE36A9A4207D891
:105140001A4B1C6004E0194B1C601368012B28D01B
:10515000184A136801331360E06A01238340164A3A
:1051600011680B43136000EB8000211D134B03EB10
:105170008000FFF7FDFE00F0DFFC0D4B1B687BB1EC
:105180000A4B1B68DA6AE36A9A4209D24FF0E023BD
:105190004FF08052C3F8042DBFF34F8FBFF36F8FD2
:1051A00010BDFFF785FFD3E7C40700202C070020C0
:1051B00024080020D0070020D40700203807002052
:1051C00010B5044690F8513063B1012B11D0022B79
:1051D0000ED04FF0500383F31188BFF36F8FBFF3EE
:1051E0004F8FFEE7006B00F0E1FB204600F0DEFB96
:1051F00010BD00F0DBFBFBE70F4B1B68D3B110B514
:1052000000F078FC0D4BDB68DC68201DFFF7D4FE56
:105210000B4A1368013B1360074A1368013B136094
:1052200000F08AFC2046FFF7CBFF034B1B68002BE6
:10523000E6D110BD704700BFC80700203C08002021
:10524000C407002008B5FFF7D7FF074B1B68012BE9
:10525000F9D94FF0E0234FF08052C3F8042DBFF38B
:105260004F8FBFF36F8FEEE73807002070B504460D
:105270000D461D4B1E681D4B18680430FFF79CFE41
:1052800050B91A4B1B68DA6A012303FA02F2184973
:105290000B6823EA02030B60B4F1FF3F0DD03444E6
:1052A000124B1B685C60A64210D9124B18680F4B5A
:1052B00019680431FFF767FE70BD002DEFD00B4B6E
:1052C000196804310C48FFF753FEF5E70B4B1868DB
:1052D000064B19680431FFF756FE094B1B68A342C1
:1052E000EAD9074B1C60E7E7500800202C07002094
:1052F000D4070020340700202808002030070020B1
:105300000408002030B587B00B9C7CB10C9DB5B172
:1053100054250495049D542D1AD04FF0500383F367
:105320001188BFF36F8FBFF34F8FFEE74FF050032D
:1053300083F31188BFF36F8FBFF34F8FFEE74FF0FA
:10534000500383F31188BFF36F8FBFF34F8FFEE7D6
:10535000049D0C9D2C63022485F851400024039485
:10536000029505AC01940A9C0094FFF74FFE0C983F
:10537000FFF7D2FE059807B030BD2DE9F04385B0A8
:105380000746884614461E46900000F091FA00B386
:105390008146542000F08CFA0546B0B1C0F8309038
:1053A000E5B1002385F85130039302950D9B0193DD
:1053B0000C9B00933346224641463846FFF726FEB3
:1053C0002846FFF7A9FE012005E0484600F0EEFA66
:1053D000E6E74FF0FF3005B0BDE8F0834FF0FF3057
:1053E000F9E7000010B588B000240594069407AAD8
:1053F00006A905A8FBF700FE059B0293069B0193F7
:1054000000942346079A0E490E48FFF77BFF0E4B88
:10541000186090B14FF0500383F31188BFF36F8F82
:10542000BFF34F8F094B4FF0FF321A60084B012238
:105430001A60084B1C6000F0F7FB08B010BD00BFFD
:10544000C0A40008455200080008002004080020FD
:105450002408002050080020024A1368013313601A
:10546000704700BFCC070020014B1868704700BF91
:1054700050080020F8B53A4B1B68002B69D1394B16
:105480001D6801351D60C5B9374B1B681B6843B1EA
:105490004FF0500383F31188BFF36F8FBFF34F8F2B
:1054A000FEE7314A1168314B186810601960304AC4
:1054B000136801331360FFF793FD2E4B1B68AB425B
:1054C0003DD900272C4B1B68DB6A03EB83039A0052
:1054D0002A4B9B58012B00D90127294B1B68002B15
:1054E0003CD001273AE001271F4B1B681B6843B3E0
:1054F0001D4B1B68DB68DC6863689D4226D3261D54
:105500003046FFF759FDA36A1BB104F11800FFF7FD
:1055100053FDE36A01229A401A49086802430A606F
:1055200003EB83039A00314614481044FFF720FD33
:10553000E26A114B1B68DB6A9A42D4D2D4E7002797
:10554000D2E70C4B4FF0FF321A60BBE7094A1360F9
:10555000B8E70D4A13680133136000273846F8BDD9
:10556000CC0700205008002030070020340700201E
:1055700008080020040800202C070020380700201D
:1055800054080020D40700200C08002038B5354B03
:105590001B6843B94FF0500383F31188BFF36F8F3B
:1055A000BFF34F8FFEE700F0A5FA2E4B1A68013AC1
:1055B0001A601B68002B4FD12B4B1B680BB90024C2
:1055C0004BE00024294B1B681BB3284BDB68DC68CD
:1055D00004F11800FFF7F0FC251D2846FFF7ECFC4E
:1055E000E06A01238340224A11680B43136000EBF9
:1055F000800029461F4B03EB8000FFF7B9FCE26AED
:105600001D4B1B68DB6A9A42DCD31C4B01221A60DB
:10561000D8E70CB1FFF7E4FC194B1C6884B9174BB1
:105620001C68D4B14FF0E0234FF08052C3F8042D32
:10563000BFF34F8FBFF36F8F01240EE0013C07D003
:10564000FFF718FF0028F9D00C4B01221A60F5E78C
:105650000B4B00221A60E2E7002400F06DFA2046AE
:1056600038BD00BFCC070020C40700201008002070
:10567000D4070020380700202C0700205408002001
:105680000C08002010B5A8B10446104B1B6843B1AC
:105690004FF0500383F31188BFF36F8FBFF34F8F29
:1056A000FEE7FFF7D9FE00212046FFF7DFFDFFF7F9
:1056B0006DFF48B94FF0E0234FF08052C3F8042D3E
:1056C000BFF34F8FBFF36F8F10BD00BFCC0700201B
:1056D000204B1B681BB1204B01221A6070471E4BE8
:1056E00000221A601D4B1B68B3FA83F3DBB2C3F1CF
:1056F0001F0303EB83018A0019498A5842B94FF00E
:10570000500383F31188BFF36F8FBFF34F8FFEE712
:10571000134903EB830082000A44506840685060DC
:1057200003EB830C4FEA8C0208321144884209D003
:1057300003EB83039A000A4B13445B68DA68094B56
:105740001A607047406862469100054A0A445060FA
:10575000EEE700BFCC07002054080020D40700204B
:10576000380700202C070020842801D00330704720
:105770000020704708B5FFF735FE002008BD2DE971
:10578000F04387B004460F464569BDB18669AEB1A6
:10579000D0F80480D0F80090B0F90800FFF7E4FFDB
:1057A0000296019500903B46226949464046FFF724
:1057B000A9FD0590059807B0BDE8F08365682668E7
:1057C000D4F81080B4F90800FFF7CEFF05AB0193C1
:1057D00000903B461FFA88F231462846FFF7CDFD80
:1057E0000128E7D00020E6E7124A12F0070F1ED08A
:1057F000D11D21F00701C1F5705313440A460E482C
:105800000260002141601344083B23F007030B486A
:10581000036059601960991A51601360084B196050
:10582000084B1960084B4FF000421A6070474FF464
:105830007053E4E75C080020704400205808002002
:1058400064440020604400205C440020164B1A464B
:105850001B688342FBD3516802EB010C844509D0DD
:10586000416800EB010C634509D00360904219D0F8
:10587000106070474068014451601046F0E710B472
:105880000A4C2468A3420BD05B681944416013683A
:105890001B680360904200D010605DF8044B7047B5
:1058A0000460F7E7704700BF7044002058080020EC
:1058B00070B50546FFF7D0FD364B1B68A3B1364BDC
:1058C0001B681D424ED135B1083515F0070F02D0C7
:1058D00025F007050835002D46D0304B1B68AB423C
:1058E00051D32F4A146804E0FFF77EFFE7E7224612
:1058F0001C466368AB4202D22368002BF7D1254BCC
:105900001B68A34241D01668083623681360636899
:105910005B1B102B10D9601910F0070F08D04FF047
:10592000500383F31188BFF36F8FBFF34F8FFEE7F0
:1059300043606560FFF78AFF626818490B689B1A2D
:105940000B60184909688B4201D216490B60124B53
:105950001B681343636000232360134A13680133F9
:10596000136002E0002600E00026FFF70FFE16F0AD
:10597000070F0CD04FF0500383F31188BFF36F8FE4
:10598000BFF34F8FFEE70026EFE70026EDE7304636
:1059900070BD00BF580800205C4400206044002017
:1059A000704400206444002068440020002834D063
:1059B00038B50446A0F1080550F8043C174A1268AF
:1059C000134208D14FF0500383F31188BFF36F8F58
:1059D000BFF34F8FFEE750F8081C41B14FF0500362
:1059E00083F31188BFF36F8FBFF34F8FFEE723EA76
:1059F000020340F8043CFFF72FFD54F8041C084A4A
:105A000013680B4413602846FFF720FF054A13680C
:105A100001331360FFF7BAFD38BD70475C440020C6
:105A2000604400206C44002082B0002301930D4BA1
:105A30001B68B3F1FF3F08D04FF0500383F3118888
:105A4000BFF36F8FBFF34F8FFEE74FF0500383F329
:105A50001188BFF36F8FBFF34F8F019B002BFCD0DA
:105A600002B070470C00002008480068006880F30E
:105A700008884FF0000080F3148862B661B6BFF367
:105A80004F8FBFF36F8F00DF00BF000008ED00E015
:105A9000DFF80C00016841F47001016070470000FC
:105AA00088ED00E04FF0807340F8043C21F00101E4
:105AB00040F8081C054B40F80C3C40F8202C6FF0D7
:105AC000020340F8243C4438704700BF295A0008BC
:105AD000074B19680868B0E8F04F80F30988BFF3F6
